:0400000080317A28A9
:10000800803120007F08F300931D762893112A0879
:10001800F0002B08F100F2017008C7077108C83D0D
:100028007208C93D7F307805F00000307905F1008D
:1000380070087104031D33284C0803192B2801305C
:10004800CC02031D2B284D08031D2B28D4164D0860
:10005800031933280130CD02031D3328D41601308B
:10006800F8070030F93D8030780602300319790628
:10007800031D7628F801F901560803194B280130A9
:10008800D602031D4B2854145417D301D30A0C0964
:10009800E039F0007008D500D51B551B61280130E8
:1000A800F0007008F60740307606031D62283C30E1
:1000B800F0007008F60051166228F601551BD51B92
:1000C80073280130F0007008F70740307706031DE9
:1000D80074283C30F0007008F700D1167428F70136
:1000E8009319010073082000FF00090080317C2863
:1000F800F601F701F801F901473084000030850066
:1001080011308A31B4228031F03084008D3085007E
:10011800203086000030870027308A31BA228031AB
:10012800B53084008E308500A0308600003087000E
:100138004F308A31BA228031773084008E30850082
:1001480020308600013087003E308A31BA222000F4
:100158008031AE2887318F27803120000C09DE00DE
:10016800E0305E05C03A031DBE281130DE005E088F
:10017800D300BF28D30154147C309B001B362600C3
:10018800980028001715200018142200E9010E30E5
:1001980069020318B72964002000960197018F2986
:1001A80020001C15AA2920001C11AA29F401F40A10
:1001B80000308A31942280312000DE005E0822005F
:1001C800EB006B082000DE000430DE36890BE928DE
:1001D8005E083038DF005F082200A1006B080F3985
:1001E80030382000DE005E082200A200F401F40A84
:1001F80001308A31942280312000DE005E0822001E
:10020800EB006B082000DE000430DE36890B09297C
:100218005E083038DF005F082200A4006B080F3941
:1002280030382000DE005E082200A500AA2904302C
:100238002000DE005E08D800D9010230DF005F0828
:10024800DA0018308D31CF258031103084008830A5
:100258008500003F2000D800013FD90080308E3152
:100268004126803120002008D8002108D900C0305C
:100278008E314126803120302000DA000130DB0049
:10028800CA308A31202280312C302000DE005E08FE
:100298002100A6002D302000DE005E082100AD0000
:1002A8002E302000DE005E082100B400323020002D
:1002B800DE005E082100C20033302000DE005E0848
:1002C8002100BB00AA2930302000D8008830D9008E
:1002D800213084008830850000088E31172680314F
:1002E80038302000D8008830D90022308400883087
:1002F800850000088E311726803128302000D8006C
:100308008830D900203084008830850000088E317C
:1003180017268031AA2922006908003A0319D4282F
:10032800013A0319D728033A0319D428013A0319C3
:10033800DA28073A03191B29013A03194829033A0D
:10034800031967290A3A0319D728AA292000111C7A
:10035800AA2911100130DE005E082200E9070E30DC
:100368006902031CCF280B1728001E1521009315BE
:1003780064002000550857065505DE005E08220077
:10038800E80020005508DE005E08D7002200E81EBD
:10039800CF29200051152200E81FD8292000551F19
:1003A800D729D115D82951142200681FE129200026
:1003B800D51FE029D115E129D1142000511EE629C5
:1003C80051125114D11EEA29D112D1145108031D1A
:1003D8005416D11DFB29D1115303031DFB295208C3
:1003E8000319F829D201FA29D201D20AD414511DCD
:1003F800952A51115414882A0230DE005E08D30071
:10040800BB01BC01952A0530782A0330DE005E085E
:10041800D300C101C201952A0430DE005E08D30072
:100428002100E901EA01952A0830732A0A30782A5E
:100438000B30782A0E30DE005E08D3002100D70189
:10044800D801952A0C302000DE005E08D300210078
:10045800E301E401952A10302000DE005E08D30095
:100468002100DD01DE01952A2000D301D30A952A57
:100478003B0884000A3004020318382A89310435FD
:10048800E73E8200952A41080319752A0930782A1F
:100498000630782A0730782A752A4F08860087019F
:1004A8000108003A0319502A013A03194C2A033A61
:1004B80003194E2A502A952A210057080319722A2F
:1004C8000F30732A210063080319722A0D30732A2A
:1004D80021005D080319722A1230732A02302000A5
:1004E800782A0230782A0430DE005E08D300952A84
:1004F80002307F2A0330DE005E08D300D416952A26
:10050800D301D30A5417952A5308FF3E031C952A92
:100518008400133004020318952A893104359B3E60
:1005280082002000541CFE2A5410D414F42AC93026
:10053800B02A3B30E02A4130E02AE930E02AD730BF
:10054800E02AE330E02ADD30E02AA630B02AAD30D8
:10055800B02AB430B02AC230DE005E08D000FE2ACD
:10056800BB30DE005E08D0008D309B001B36D82AD9
:100578004108FF3E2F3EDE005E082100D000D0304B
:100588002000DE005E08D0005008860087010108C0
:100598008600870101089B001B08DE00320AD52A65
:1005A800DE36890BD42A5E082600980020001C1528
:1005B800FE2AB501B6013530DE005E08CF00FE2AFE
:1005C800D417FE2A8731F627803101001E308400B7
:1005D80088308500003F2000CA00013FCB00FE2A7A
:1005E80053088400143004020318FE2A89310435A4
:1005F800733E8200D41F622CD4138B132200EA01AD
:1006080020005417D4144030DE005E08D600502B6A
:1006180028308F31042780312000DE005E08220058
:10062800EA002000D601D60A5E2B28308F31042735
:1006380080312000DE005E082200EA0018308400C5
:1006480088308500003F2000CA00013F4E2B28302B
:100658008F315F2780312000DE005E082200EA002B
:100668001C30840088308500003F2000CA00013F0C
:100678004E2B28308F315F2780312000DE005E0846
:100688002200EA001A30840088308500003F2000EC
:10069800CA00013FCB005E2B5308003A03190C2B0C
:1006A8000D3A03193D2B023A0319192B1E3A031967
:1006B8002B2B5E2B2908DE000430DE36890B612BDC
:1006C8005E08003E840088300318013E850000085B
:1006D800DF005F082200AB00200029080F39003E28
:1006E800840088300318013E85000008DE005E089B
:1006F8002200AC0020002808DE000430DE36890B1A
:10070800822B5E08003E840088300318013E850075
:100718000008DF005F082200B200200028080F3917
:10072800003E840088300318013E85000008DE0082
:100738005E082200B3006A082000DE000430DE36BE
:10074800890BA32B5E08003E840088300318013E05
:1007580085000008DF005F082200B9006A080F3929
:10076800003E840088300318013E85000008200000
:10077800DE005E082200BA006A080319CA2B13308B
:100788002000DE005E08D300D40154148B17622CBD
:100798002000D11CF02BD1104F08023E86008701A3
:1007A8004F0884008501000801060319F02B013069
:1007B800DE004F08860087015E0881074F0A860021
:1007C80087010108031DEF2B0130DE004F0A860068
:1007D80087015E088107D414511C702C51104F08F2
:1007E8008600870101080319702C4F0886008701CD
:1007F800013081024F0A8600870101080319092C7C
:100808004F0A8600870101308102D414702C511CD4
:100818001B2C511003302B02E73003192A0203184E
:100828001A2C0130AA070030AB3D54155417D11CBF
:10083800702CD11000302B02023003192A02031C3D
:100848002A2C0130AA020030AB3B54155417702CE7
:10085800511C472C5110500886008701010886005A
:100868008701500A84008501000801060319472CF6
:100878000130DE00500886008701010886008701E4
:100888005E0881075415D11C702CD11050088600C1
:1008980087010108860087015008023E840085010F
:1008A800000801060319702C50088600870101080A
:1008B80086008701013081025415702C20005308EE
:1008C800FF3E031C702C8400103004020318702CA7
:1008D8008A310435003E8200541F7E2C54138B133A
:1008E8000030C7000030C8000030C900CE01D41560
:1008F8008B17E22C3A304902031D882C98304802A5
:10090800031D882C00304702031CE22C0030DE0057
:100918009830DF003A30E0005E08C7025F08C83B45
:100928006008C93B2C08DE00DF01DE35DF0D013031
:10093800E0006008CE075F08803A803C031DA62CC3
:100948005E084E02031CAA2C2000CE012000D415FC
:10095800E22C541EBB2C54122E08DE005E08CD007B
:100968007C309B001B362600980020001C15D41DE7
:10097800002DD4115208031D002D4D08031D002D14
:100988002D08DE005E08CC004E08031DCD2C300873
:10099800D42C2C084E06031DD32C3108D42C2F0838
:1009A8009B001B08DE00320ADA2CDE36890BD92CB4
:1009B8005E082600980020001C15002D5308003AF8
:1009C8000319002D093A0319002D033A0319002DC4
:1009D800073A0319002D023A0319002D1E3A03198C
:1009E800002D023A0319002DAD2C002DFE2CD41E2B
:1009F800172DD4121C11172D5308003A0319FA2C7D
:100A0800093A0319172D033A0319172D073A031941
:100A1800FA2C023A0319FA2C1E3A0319FA2C023A54
:100A28000319FA2CFB2CD41C8A2ED4107C2E4F08C8
:100A3800033E860087014F08840085010008DE0018
:100A48004F0A840085010003FF3A5E070907010782
:100A5800DF005F08860001308700403FD800413F33
:100A6800D90081308E314126803120004F08033E65
:100A7800860087014F08840085010008DE004F0AC0
:100A8800840085010003FF3A5E070907023E01075B
:100A9800DF005F08860001308700403FD800413FF3
:100AA800D900C1308E314126803120004F0A86009E
:100AB80087014F0884008501000801060319702D7D
:100AC80021308400883085000008DE005E08D800E8
:100AD8008F308A31A622803120004F0A8600870194
:100AE8004F08023E8400850100080107DE00DF018F
:100AF800DF0D5E08FF3EE000FF305F3DE1004F087C
:100B0800860087010108600661040319972D2230C9
:100B18008400883085000008DE005E08D800CF30E9
:100B28008A31A62280312030840088308500000870
:100B38002000DE005E08D8004F0A86008701010801
:100B4800263E840088300318013E850000088A315B
:100B5800A62280318A2E20005008033E8600870195
:100B6800403FD800413FD90080308E314126803146
:100B780020005008053E86008701403FD800413FCD
:100B8800D900C0308E314126803120005303031D27
:100B9800DD2D52080319EB2D1230840088308500B2
:100BA800003FDA00013FDB008A308A3120228031A1
:100BB800EB2D093020005306031DEB2D41082F3E75
:100BC800DE005E08D800C5308A31A62280312000B8
:100BD80054158A2E3535203E86008701403FD800BF
:100BE800413FD90080308E314126803107302000C6
:100BF800DE005E08F40035088A3170228031203E1C
:100C08002000DA000130DB008A308A31202280316E
:100C180020003535023E203E86008701403FD8003F
:100C2800413FD900C0308E31412680310730200045
:100C3800DE005E08F4003508013E8A3170228031FA
:100C4800203E2000DA000130DB00CA308A31202241
:100C580080318A2E1430840088308500003F2000BF
:100C6800D800013FD9008D308E31412680311630B1
:100C7800840088308500003F2000D800013FD9005B
:100C8800CD308E314126803120004F08043E860049
:100C98008701403FDA00413FDB0080308A31202263
:100CA8008031203084008830850000082000DE0074
:100CB8005E08D8004F0A860087010108263E840096
:100CC80088300318013E850000080C388A31A622B6
:100CD80080318A2E20004A08D8004B08D90080307D
:100CE8008E3141268031C0308A31402280318A2EAF
:100CF80020005308FF3E031C8A2E84001330040290
:100D080003188A2E89310435C13E82002000541D03
:100D1800BC295411A0308600003087005E30840062
:100D2800013085000630DE0016001A00DE0B982E12
:100D3800D92E2B082200E60020002A082200E50010
:100D4800E22EB31FBF2E3308DE00DF01DE1BDF03F8
:100D5800DE09DF09DE0A0319DF0A5E082200E50062
:100D680020005F082200E6002D302000DE005E082B
:100D78002200DF00E22E200033082200E500E60111
:100D8800E51BE603E22E20005008860087010108D3
:100D9800860087010108DE00DF015E082200E50009
:100DA80020005F082200E600E22E20005308013AE6
:100DB80003199D2E0B3A0319A52EC72E2200E40114
:100DC800EC0103306C020318632F30302000DE0082
:100DD8005E082200E7006C08233E84008830031870
:100DE800013E850000082000DE00DF015F082200C8
:100DF8006602031D032F20005E0822006502031C03
:100E08001E2F6C08233E840088300318013E85009D
:100E180000082000DE00DF015E082200E502200055
:100E28005F082200E63B01302000DE005E08220059
:100E3800E707EF2E6408031D292F313067020318D6
:100E4800292F02306C06031D3A2F67082000DE00A8
:100E580022006C08023E5E3E8600013087002000BA
:100E68005E0881002200E401E40A592F6C08013E63
:100E78005E3E86000130870001082000DE00220067
:100E88006C08023E5E3E86000130870020005E0846
:100E980081002030DE0022006C08013E5E3E8600A4
:100EA8000130870020005E08810001302000DE004C
:100EB8005E082200EC0703306C02031CE92E5E304A
:100EC8002000DA000130DB00CB308A31202280316B
:100ED800852F200033082100832F2000500886002A
:100EE800870101088600870101089B001B08DE00B6
:100EF800320A7F2FDE36890B7E2F5E082600980087
:100F0800BC2920005308093A0319712F033A031921
:100F18006D2FBC29BC292100190887397038990020
:100F2800FC3099059917C03098051708C1391E3843
:100F380097008B130B139515951215162000950124
:100F48008B120B1118103F30980530309804181187
:100F58009601970111102100111020001C118730F3
:100F68009C0503309C047C309B009A019110210061
:100F7800911028001711873097051708FC39013898
:100F880097004F3096009501200093102100931090
:100F980028001E1187309E05FC309E057C309D0080
:100FA8009C01200093112100931125009E01F0302F
:100FB8009305F0309A05F030260093051A08F039A9
:100FC8000C389A00CF309A053F3025009E05260040
:100FD8009801990123008C018D01E03021008C00DB
:100FE8008D01080080308A3140228731C0308A3133
:040FF800402208008B
:1010000030343134323433343434353436343734A4
:10101000383439344134423443344434453446342A
:10102000C3348834163489346B3489346F3489344A
:101030002B3489344434893469348834EB3488342B
:1010400000340134023464340A3401348034C0344E
:10105000103418341C341E341C341834103400344A
:10106000003404340E341F340034003400340034AF
:1010700000340034003400341F340E34043400349F
:10108000413464346A342E34203444347534723438
:101090006134743469346F346E34003443346F34E3
:1010A0006E34663469346734753472346134743440
:1010B00069346F346E340034413464346A342E340D
:1010C000203450342D3457346934643474346834E3
:1010D000003449346E3469347434693461346C34A6
:1010E00069347A3465346434003443346C3469349C
:1010F00063346B34203453346F3475346E34643459
:101100000034503475346C347334653420345734BF
:10111000693464347434683400344534723472345D
:101120006F347234203443346F34643465340034A3
:1011300052344F344D3420344F3466346634733473
:101140006534743400345334613476346534203477
:1011500043346F3475346E3474340034423465343F
:1011600061347434203443346F3475346E347434E1
:1011700000344B3465347934203453346F3475344F
:101180006E34643400344D346534743472346F34E6
:101190006E346F346D3465340034413464346A34F1
:1011A0002E34203454346F346E34653400344F346C
:1011B000733463342E342034543475346E346534CF
:1011C0000034413464346A342E3420345434753459
:1011D0006E34653400344534523452344F34523412
:1011E00020342134213400343C34203452346534EA
:1011F0007434753472346E3400344B34653479345D
:1012000020344234653465347034003452346534EB
:1012100073346534743420343F34003456346534C8
:101220007234733469346F346E34003423344D3483
:10123000753474346534233400344C346F34613481
:10124000643420343F3400345334613476346534AC
:1012500020343F3400344C346F34613464346534AA
:101260006434003454346F346E34653430340034B4
:1012700054346F346E3465343134003454346F3444
:101280006E3465343234003453346134763465342A
:101290006434003443346C34693463346B34003464
:1012A000543465346D3470346F34003452346534E2
:1012B00073346534743400344C346F3461346434C2
:1012C00000345334613476346534003449346E3438
:1012D00066346F3400344E346F3420340034593463
:1012E0006534733400348231E42A82319B2A82319E
:1012F0009D2A82319F2A8231A12A8231A92A8231F4
:10130000AB2A8231AD2A8231AF2A8231BC2A8231A6
:10131000B42A8231DD2A8231A52A8231E42A82313F
:10132000A32A8231E42A8231A72A8231E42A823137
:10133000E62A8231EA2A8231002A82313C2A82312D
:10134000472A8231512A8231752A8231772A8231A5
:10135000772A8231752A82317E2A82317C2A823133
:10136000752A8231662A8231952A8231602A823139
:10137000952A82316C2A8231842A8231952A8231DF
:10138000842A8531AF2D85311B2D85311B2D85316B
:101390001B2D8531AF2D8531AF2D8531AF2D853199
:1013A000AF2D8531AF2D8531AF2D8531EE2D8631B5
:1013B0002E2E86316E2E86312E2E86316E2E863161
:1013C0002E2E86316E2E86318A2E86316E2E8231F9
:1013D000382A8231072A8231092A8231102A823141
:1013E000182A82311A2A82311E2A8231262A823113
:0613F0001C2A82312F2AA5
:1014000084310B2C8331CC2B8331CC2B8331CC2BEF
:1014100084312C2C84312C2C84312C2C84312C2C98
:1014200084312C2C84312C2C8331CC2B8331CC2B4C
:101430008431702C8331CC2B8431702C8331CC2BB4
:101440002000DD00F4015D088A315A228A31200033
:101450005A0884005B088500120003190800F40193
:10146000F40A20005A0884005B08850000088A31CD
:101470005A228A3101302000DA070030DB3D272A6A
:101480002000D900F4015908F0398A315A228A31F2
:101490002000DA0110305A0603190800F401F40A9A
:1014A00020308A315A228A3101302000D800580871
:1014B000DA074A2AF5002000931C5B2A75082200EF
:1014C0008D0074080319662A8C14672A8C100C147A
:1014D000000022000C102800950120009310080045
:1014E0002000D900D801591C792A7408F500750824
:1014F000D8070310F40D0310D90C5908031D732AE3
:1015000058080800F5002300920175089100940125
:101510007408930055309600AA3096009514200068
:10152000121E8F2A12120800F5002300920175087E
:1015300091009513740803199F2A1517A02A1513F3
:101540001514000000002300130808002000D90033
:10155000F40159088A315A228A31F401F40A200030
:1015600058088A315A220800640080010131890B31
:10157000B52A0034FE0012001E00FE0BBB2A003408
:101B9E002000DB00F4015B081C3920388A315A2200
:101BAE008D31F401200058080C3908388A315A2238
:101BBE008D31F40120005908073910388A315A2224
:101BCE008D31F40120005A08033904388A315A2223
:101BDE0008000E34893498348834A33488348D3414
:101BEE008834003400347834003404341034103423
:101BFE00F9343E34523401340034003400340034AD
:101C0E0002340034003400340034003409343C34DF
:101C1E0000340034003400340334503400340034C3
:101C2E002000DB00F4015B08DA000230DA35FF3EFB
:101C3E00031D1D2E5A353F3940388A315A228E31B6
:101C4E002000DC0108305C0603190800F401F40AD8
:101C5E00580884005908850000088A315A228E31AE
:101C6E0001302000DA005A08DC070130D8070030B6
:101C7E00D93D292E2000DB00F4015B08F0398A31B2
:101C8E005A228E312000DC0110305C060319080048
:101C9E005B080F395C02031C6B2E58088400590830
:101CAE008500120003196B2EF401F40A5808840003
:101CBE005908850000088A315A228E3101302000E1
:101CCE00D8070030D93D712EF401F40A20308A3144
:101CDE005A228E3101302000DA005A08DC074B2ED2
:101CEE0020342D342D342E342D342D340034203424
:101CFE002034303478342D342D34003420342034D4
:101D0E00303478342D342D340034203420343034B3
:101D1E007834303430340034F4348834AE3488348B
:101D2E00CD348834403488345C348834E13488349B
:101D3E005C34893461348934663489345634893458
:101D4E00F434883432348934383489343E34893426
:101D5E00F434883475348834B93488343D342034BE
:101D6E0030343034303400340034403400344E34A7
:101D7E008834AE3488340034FF340034453488342B
:101D8E004A3489340034FF34003445348834FD3409
:101D9E00883400341E34E2344E348834D7348834D8
:101DAE000034073401344E3488348134883400349E
:101DBE0000340034C3348834503489340034FF3452
:101DCE000034D2348834D2348834003400340134B0
:101DDE0000341D34893400340034013400340634A8
:101DEE00893400340034013400342434893400340E
:101DFE00003402345834003400342000DC005C0817
:101E0E00D8005808DA008B13F40100308A3194227E
:101E1E008F312000D8005C0A8600870158088100A7
:101E2E005C0A86008701F3300102031C202F30303C
:101E3E0008005C080C3E860087018101DB010D3035
:101E4E005B020318532FF4015C0A86008701010818
:101E5E005B078A3194228F312000D8005B085A0725
:101E6E00D900590886008701580881005B085A0777
:101E7E00D8005808860087010108D9005C080C3E7E
:101E8E0086008701590881060130D8005808DB0703
:101E9E000D305B02031C2A2F8B175C080C3E86004C
:101EAE008701010803195D2F20300800003008005B
:101EBE002000DD005D08D8005808DB00DA018B1326
:101ECE00F40100308A3194228F312000D8005D0A4F
:101EDE008600870158088100F4015D0A860087019B
:101EEE0001088A3194228F312000D8005D088600C7
:101EFE008701580881000130D8005D0886008701EF
:101F0E00580881070103031D982F0D30D8005D0A74
:101F1E0086008701580881075D08860087018101C8
:101F2E00810A5D0A86008701F3300102031CA42F8B
:101F3E005D0A860087018101810A230015152000A4
:101F4E005D080C3E860087018101DC01B32F013054
:101F5E002000D8005808DC070D305C020318E02F73
:101F6E005C085B07D8005808860087010108D90075
:101F7E005908F4005D0A8600870101085C078A3162
:101F8E0082228F3120005C085B07D800580886003B
:101F9E0087010108D9005D080C3E860087015908AB
:101FAE0081062300951DAE2F10302000D800580852
:101FBE00DA005D08860087010103031DFB2F230055
:101FCE009519FB2F20005D0886008701413FF40024
:101FDE0000308A3182228F312300951DFB2F103065
:101FEE002000D8005808DA00230015118B17003096
:021FFE000800D9
:020000040001F9
:080000000100010000000000F6
:04000E009CCFFFDAAA
:00000001FF
