:0400000080317628AD
:10000800803120007F08F300931D732893112A087C
:10001800F0002B08F100F2017008DB077108DC3DE5
:100028007208DD3D0130F802031D73285030F000DE
:100038007008F8006408031929280130E402031D38
:1000480029286508031D2928E3166508031931289E
:100058000130E502031D3128E3160130F902031DC2
:1000680073280A30F0007008F9006C080319442856
:100078000130EC02031D442863146317EA01EA0AFD
:100088000C09E039F0007008EB00EB1B6B1B5A28D9
:100098000130F0007008F60740307606031D5B2833
:1000A8003C30F0007008F60062165B28F6016B1B06
:1000B800EB1B6C280130F0007008F707403077061A
:1000C800031D6D283C30F0007008F700E2166D281B
:1000D800F701931D73280230F0007008E9007308D7
:1000E800FF00090080317828F601F701F801F901CD
:1000F8005B3084000030850013308731FA27803167
:10010800F03084008D308500203086000030870074
:1001180021308D312D258031B63084008E30850018
:10012800A0308600003087004E308D312D2580317B
:10013800713084008E3085002030860001308700C1
:1001480045308D312D2520008031AA28873193270D
:10015800803120000C09C700E0304705C03A031D74
:10016800BA281130C7004708EA00BB28EA0163141F
:100178007C309B001B3626009800280017152000AD
:100188001814D6010E3056020318AB29640020005B
:100198009601970184291C159F291C119F29F40198
:1001A800F40A00308D31492580312000C700470806
:1001B800D8005808C7000430C736890BE02847081C
:1001C8003038C80048082200A100200058080F391C
:1001D8003038C70047082200A200F401F40A0130B1
:1001E8008D31492580312000C7004708D8005808BC
:1001F800C7000430C736890BFE2847083038C800C6
:1002080048082200A400200058080F393038C700D9
:1002180047082200A5009F2904302000C70047088E
:10022800C100C2010230C8004808C30018308D312F
:10023800CF2580310030840088308500003F2000C1
:10024800C100013FC20080308E313B268031200042
:100258002008C1002108C200C0308E313B26803101
:1002680020302000C3000130C400CA308D31AF25D2
:1002780080312C302000C70047082100A6002D300F
:100288002000C70047082100AD002E302000C7001D
:1002980047082100B40032302000C7004708210079
:1002A800BB0033302000C70047082200D8009F2930
:1002B80034302000C1008830C200253084008830E6
:1002C800850000088E31112680313C302000C100A5
:1002D8008830C200263084008830850000088E31BE
:1002E800112680312C302000C1008830C200243013
:1002F80084008830850000088E31112680319F29BE
:1003080020005608003A0319CF28013A0319D128CA
:10031800033A0319CF28013A0319D328073A0319D6
:100328001029013A03193D29033A03195C290A3AAD
:100338000319D1289F292000111C9F291110013071
:10034800C7004708D6070E305602031CCA280B17E9
:1003580093112100931528001E15640020006B08D6
:10036800C7004708D90059086D065905C70047084E
:10037800D5005908C7004708ED00D51A6215D51FE2
:10038800CA29591FC929E215CA296214551FD1293A
:10039800D91FD029E215D129E214621ED52962128B
:1003A8006214E21ED929E212E2146208031D6316E0
:1003B800E21DEA29E2116A03031DEA296808031904
:1003C800E729E801E929E801E80AE314621D8B2A14
:1003D800621163147E2A0230C7004708EA00210030
:1003E800E801E9018B2A0530682A03302000C7009C
:1003F8004708EA00BB01BC018B2A04302000C70073
:100408004708EA002100E201E3018B2A0830682A44
:100418000A30682A0B30682A0E302000C7004708C7
:10042800EA002100D001D1018B2A0C302000C7003E
:100438004708EA002100DC01DD018B2A103020008A
:10044800C7004708EA002100D601D7018B2A2000FF
:10045800EA01EA0A8B2A2100680884000A300402AB
:1004680003182B2A8A310435203E82008B2A20006B
:100478003B0803196A2A09306D2A06306D2A0730AD
:100488006D2A6A2A6708860087010108003A03195D
:10049800452A013A0319412A033A0319432A452AEE
:1004A8008B2A210050080319672A0F30682A210077
:1004B8005C080319672A0D30682A210056080319B9
:1004C800672A1230682A023020006D2A02306D2A0D
:1004D8000430C7004708EA008B2A0230742A033028
:1004E800C7004708EA00E3168B2AE901EA01EA0A8D
:1004F80063178B2A6A08FF3E031C8B2A840013307B
:10050800040203188B2A89310435B43E8200200086
:1005180069080319992A13306A060319992A1330AE
:10052800C7004708EA00E3016314631C1D2B63102E
:10053800E314132BC230E0000030BD2AE830EC2A67
:100548003B30EC2AE230EC2AD030EC2ADC30EC2AC2
:10055800D630EC2AA630E0000030BD2AAD30E000ED
:100568000030BD2AB430E0000030BD2ABB30E000C6
:100578000030E1001D2B5830E0000130E1008D30E3
:100588009B001B36E42A3B08FF3E2F3EC700470866
:100598002100C900C9302000E0000030E1006008F7
:1005A80086006108870001088600870101089B0012
:1005B8001B08C700320AE12AC736890BE02A470818
:1005C8002600980020001C151D2BB501B6013530FA
:1005D800C7004708E7001D2BE3171D2B8D31332576
:1005E80080310100092B1030840088308500003FDD
:1005F8002000DE00013F072B123084008830850080
:10060800003FDE00013FDF001D2B20006908013A92
:100618000319F72A033A0319002B1D2B1D2B6A080F
:1006280084001430040203181D2B893104358C3ED4
:100638008200E31F792CE3138B13D7016317E314AC
:100648006430C7004708EC00652B28308F31042739
:1006580080312000C7004708D700EC01EC0A732B53
:1006680028308F31042780312000C7004708D70081
:100678000830840088308500003FDE00013F632B8E
:1006880028308F315F2780312000C7004708D70006
:100698000C30840088308500003FDE00013F632B6A
:1006A80028308F315F2780312000C7004708D700E6
:1006B8000A30840088308500003FDE00013FDF00FB
:1006C800732B6A08003A0319292B0D3A0319542B86
:1006D800023A0319342B1E3A0319442B732B2908A9
:1006E800C7000430C736890B762B4708143E8400B0
:1006F80088300318013E85000008C8004808220019
:10070800AB00200029080F39143E840088300318F4
:10071800013E85000008C70047082200AC00200001
:100728002808C7000430C736890B972B4708143EA2
:10073800840088300318013E85000008C800480876
:100748002200B200200028080F39143E84008830A7
:100758000318013E85000008C70047082200B300BF
:1007680020005708C7000430C736890BB82B470844
:10077800143E840088300318013E85000008C80034
:1007880048082200B900200057080F39143E840099
:1007980088300318013E85000008C700470822007A
:1007A800BA00200057080319DB2BE901E90A8B1767
:1007B800792CE21C002CE2106708023E86008701B3
:1007C800670884008501000801060319002C013020
:1007D800C70067088600870147088107670A8600FF
:1007E80087010108031DFF2B0130C700670A860037
:1007F800870147088107E314621C862C621067088A
:100808008600870101080319862C6708860087017E
:1008180001308102670A8600870101080319192C33
:10082800670A8600870101308102E314862C621C66
:100838002B2C621003302B02E73003192A0203180D
:100848002A2C0130AA070030AB3D63156317E21C60
:10085800862CE21000302B02023003192A02031CF6
:100868003A2C0130AA020030AB3B63156317862C83
:10087800621C5B2C62106008860061088700010812
:10088800860087016008840061088500013100083E
:10089800010603195B2C0130C70060088600610857
:1008A8008700010886008701470881076315E21C55
:1008B800862CE2106008860061088700010886001F
:1008C800870160088400610885000231000801067C
:1008D8000319862C600886006108870001088600D5
:1008E8008701013081026315862C6A08FF3E031CCC
:1008F800862C8400103004020318862C8A310435B3
:10090800003E82008B13631F922C63130030DB00C0
:100918000030DC000030DD00E601BF2C49305D020C
:10092800031D9C2C3E305C02031D9C2C00305B0296
:10093800031CC02C0030C7003E30C8004930C90035
:100948004708DB024808DC3B4908DD3B2C08C700A8
:10095800C801C735C80D0130C9004908E60748086D
:10096800803A803C031DBA2C47086602031CBE2C43
:100978002000E6012000E3158B17F72C631ED02C0E
:1009880063122E08C7004708E5007C309B001B3621
:100998002600980020001C15E31D152DE31168089A
:1009A800031D152D6508031D152D2D08C7004708C3
:1009B800E4006608031DE22C3008E92C2C086606C2
:1009C800031DE82C3108E92C2F089B001B08C700E1
:1009D800320AEF2CC736890BEE2C47082600980000
:1009E80020001C15152D6A08003A0319152D093A1F
:1009F8000319152D033A0319152D073A0319152D57
:100A0800023A0319152D1E3A0319152D023A031936
:100A1800152DC22C152D132DE31E2C2DE3121C11A0
:100A28002C2D6A08003A03190F2D093A03192C2DA9
:100A3800033A03192C2D073A03190F2D023A03190B
:100A48000F2D1E3A03190F2D023A03190F2D102DE1
:100A5800E31CB82EE310AA2E6708033E8600870120
:100A68006708840085010008C700670A84008501BB
:100A78000003FF3A470709070107C800480886002E
:100A880001308700403FC100413FC20081308E31B4
:100A98003B26803120006708033E860087016708EF
:100AA800840085010008C700670A840085010003E7
:100AB800FF3A47070907023E0107C80048088600B1
:100AC80001308700403FC100413FC200C1308E3134
:100AD8003B2680312000670A86008701670884006A
:100AE8008501000801060319852D2530840088300A
:100AF80085000008C7004708C1008F308D313B25AD
:100B080080312000670A860087016708023E84005A
:100B1800850100080107C700C801C80D4708FF3E46
:100B2800C900FF30483DCA006708860087010108F0
:100B380049064A040319AC2D263084008830850004
:100B48000008C7004708C100CF308D313B258031F0
:100B5800243084008830850000082000C70047083A
:100B6800C100670A8600870101082A3E8400883090
:100B78000318013E850000088D313B258031B82ED1
:100B8800200060088600610887004331403FC100AB
:100B9800413FC20080308E313B2680312000600802
:100BA8008600610887004531403FC100413FC200CF
:100BB800C0308E313B26803120006A03031DF42D9E
:100BC80068080319022E0230840088308500003F2F
:100BD800C300013FC4008A308D31AF258031022E19
:100BE800093020006A06031D022E3B082F3EC7006D
:100BF8004708C100C5308D313B2580312000631581
:100C0800B82E3535203E86008701403FC100413F60
:100C1800C20080308E313B26803107302000C7006B
:100C28004708F40035088D316D258031203E2000BD
:100C3800C3000130C4008A308D31AF2580312000D7
:100C48003535023E203E86008701403FC100413FC6
:100C5800C200C0308E313B26803107302000C700EB
:100C68004708F4003508013E8D316D258031203E5E
:100C78002000C3000130C400CA308D31AF25803157
:100C8800B82E0430840088308500003F2000C10061
:100C9800013FC2008D308E313B2680310630840002
:100CA80088308500003F2000C100013FC200CD30E0
:100CB8008E313B26803120006708043E860087017C
:100CC800403FC300413FC40080308D31AF258031A3
:100CD800243084008830850000082000C7004708B9
:100CE800C100670A8600870101082A3E840088300F
:100CF8000318013E850000080C388D313B258031F2
:100D0800B82E20005E08C1005F08C20080308E3116
:100D18003B268031C0308D3195258031B82E0E307C
:100D2800840088308500003F2000C100013FC200D8
:100D380080308E313B26803120005E08C1005F087C
:100D4800C200C0308E313B268031B82E20006A08A0
:100D5800FF3E031CB82E8400133004020318B82E7B
:100D680089310435DA3E82002000631DB129631100
:100D7800A0308600003087004B30840000308500AA
:100D88000630C70016001A00C70BC62EFA2E2B080D
:100D9800D3002A08D200022FB31FE52E3308C7005C
:100DA800C801C71BC803C709C809C70A0319C80A65
:100DB8004708D2004808D3002D30C7004708CC00A8
:100DC800022F3308D200D301D21BD303022F6008AD
:100DD8008600610887000108860087010108C700AE
:100DE800C8014708D2004808D300022F6A08013A10
:100DF8000319CB2E0B3A0319D02EEB2ED101DA01B1
:100E080003305A020318672F3030C7004708D40050
:100E18005A08273E840088300318013E85000008E0
:100E2800C700C80148085302031D1C2F4708520277
:100E3800031C312F5A08273E840088300318013ECE
:100E480085000008C700C8014708D2024808D33BFC
:100E58000130C7004708D4070C2F5108031D3C2F49
:100E68003130540203183C2F02305A06031D482F14
:100E78005408C7005A08023E4B3E860087014708BF
:100E88008100D101D10A5F2F5A08013E4B3E8600EE
:100E980087010108C7005A08023E4B3E86008701B9
:100EA800470881002030C7005A08013E4B3E8600A3
:100EB8008701470881000130C7004708DA07033077
:100EC8005A02031C082F4B30C3000030C400CB303B
:100ED8008D31AF258031892F200033082100872FDD
:100EE80020006008860061088700010886008701E5
:100EF80001089B001B08C700320A832FC736890BDD
:100F0800822F470826009800B12920006A08093A6C
:100F18000319742F033A0319702FB129B12921003D
:100F28001908873970389900FC3099059917C0302D
:100F380098051708C1391E3897008B130B139515A0
:100F480095121516200095018B120B1118103F30C1
:100F58009805303098041811960197011110210056
:100F6800111020001C1187309C0503309C047C3034
:100F78009B009A01911021009110280017118730C9
:100F880097051708FC39013897004F3096009501EE
:100F9800200093102100931028001E1187309E0511
:100FA800FC309E0563309D009C01200093112100B8
:100FB800931125009E01F0309305F0309A05F0302A
:100FC800260093051A08F0390C389A00CF309A0594
:100FD8003F3025009E0526009801990123008C01C9
:100FE8008D01E03021008C008D0108006400800133
:100FF8000131890BFB2F0034D434883428348934E8
:101008008434893488348934443489345D34893467
:101018007A348834603488343D348934FC348834F4
:10102800303431343234333434343534363437347C
:101038003834393441344234433444344534463402
:1010480000340134023464340A3401348034C03446
:10105800103418341C341E341C3418341034003442
:10106800003404340E341F340034003400340034A7
:1010780000340034003400341F340E340434003497
:10108800413464346A342E34203444347534723430
:101098006134743469346F346E34003443346F34DB
:1010A8006E34663469346734753472346134743438
:1010B80069346F346E3400344534723472346F34AA
:1010C800723420346F346E3420342E342E342E345F
:1010D8000034413464346A342E34203450342D348E
:1010E80057346934643474346834003449346E34A1
:1010F80069347434693461346C3469347A346534ED
:101108006434003443346C34693463346B342034CD
:1011180053346F3475346E34643400345034753459
:101128006C3473346534203457346934643474341B
:10113800683400344534723472346F347234203475
:1011480043346F3464346534003452344F344D348E
:1011580020344F3466346634733465347434003460
:101168005334613476346534203443346F34753401
:101178006E34743400344234653461347434203449
:1011880043346F3475346E34743400344B346534FE
:101198007934203453346F3475346E346434003405
:1011A8004D346534743472346F346E346F346D3446
:1011B80065340034413464346A342E342034543471
:1011C8006F346E34653400344F34733463342E34E2
:1011D8002034543475346E34653400344134643406
:1011E8006A342E342034543475346E346534003403
:1011F80049346E34743465347234723475347034EE
:10120800743400343C3420345234653474347534C6
:1012180072346E3400344B346534793420344234BB
:10122800653465347034003452346534733465344D
:10123800743420343F340034563465347234733493
:1012480069346F346E34003423344D347534743457
:101258006534233400344C346F34613464342034BE
:101268003F340034533461347634653420343F34A9
:10127800003445344534503452344F344D340034FE
:101288004C346F3461346434653464340034543419
:101298006F346E3465343034003454346F346E3403
:1012A80065343134003454346F346E346534323438
:1012B8000034533461347634653464340034433450
:1012C8006C34693463346B340034543465346D34AD
:1012D80070346F3400345234653473346534743484
:1012E80000344C346F346134643400345334613422
:1012F80076346534003449346E3466346F340034DF
:101308004E346F3420340034593465347334003427
:101318008231F02A82319E2A8231A22A8231A42A7D
:101328008231A62A8231AE2A8231B22A8231B62A85
:101338008231BA2A8231C72A8231BF2A8231E92A08
:101348008231AA2A8231F02A8231A82A8231F02AEF
:101358008231AC2A8231F02A8231F22A8331092B78
:101368008131EF2982312F2A82313B2A8231462A64
:1013780082316A2A82316C2A82316C2A82316A2A45
:101388008231732A8231712A82316A2A82315B2A38
:1013980082318B2A8231552A82318B2A8231612A05
:1013A80082317A2A82318B2A8231792A8531C42D79
:1013B8008531302D8531302D8531302D8531C42D45
:1013C8008531C42D8531C42D8531C42D8531C42D79
:1013D8008531C42D8631052E8631452E8631852EE0
:1013E8008631452E8631852E8631452E8631852ECD
:1013F8008631B82E8631932E84311B2C8331DD2B18
:101408008331DD2B8331DD2B84313C2C84313C2C22
:1014180084313C2C84313C2C84313C2C84313C2C50
:101428008331DD2B8331DD2B8431862C8331DD2B19
:101438008431862C8331DD2B82312B2A8131F729A7
:101448008131F9298231012A82310A2A82310C2A12
:101458008231102A8231192A82310E2A8231222AB7
:101A5A00FE0012001E00FE0B2E2D003480308D3148
:101A6A0095258D31C0308D31952508002000C200A2
:101A7A00F40142088D317F258D31F401F40A2000EA
:101A8A0041088D317F250800F50023009201750871
:101A9A009100951374080319542D1517552D151314
:101AAA00151400000000230013080800F5002300A5
:101ABA0092017508910094017408930055309600BC
:101ACA00AA30960095142000121E682D12120800E2
:101ADA002000C200C101421C762D7408F500750869
:101AEA00C1070310F40D0310C20C4208031D702D28
:101AFA0041080800F5002000931C802D750822007B
:101B0A008D00740803198B2D8C148C2D8C100C14D9
:101B1A00000022000C1028009501200093100800F4
:101B2A002000C200F4014208F0398D317F258D3141
:101B3A002000C3011030430603190800F401F40A17
:101B4A0020308D317F258D3101302000C1004108C0
:101B5A00C3079F2D2000C600F40146088D317F255A
:101B6A008D312000430884004408850012000319BF
:101B7A000800F401F40A20004308840044088500A0
:101B8A0000088D317F258D3101302000C3070030D8
:101B9A00C43DB62D2000C400F40144081C39203885
:101BAA008D317F258D31F401200041080C39083828
:101BBA008D317F258D31F401200042080739103814
:101BCA008D317F258D31F401200043080339043813
:101BDA008D317F25080020348934A9348834B434FF
:101BEA0088349E3488340034003478340034043421
:101BFA001E341E34F9343E34523401340034003475
:101C0A000034003402340034003400340034003428
:101C1A0003345034003400342000C400F401440872
:101C2A00C3000230C335FF3E031D172E43353F392B
:101C3A0040388D317F258E312000C5010830450698
:101C4A0003190800F401F40A4108840042088500D7
:101C5A0000088D317F258E3101302000C3004308F2
:101C6A00C5070130C1070030C23D232E2000C40041
:101C7A00F4014408F0398D317F258E312000C501E9
:101C8A00103045060319080044080F394502031CA1
:101C9A00652E410884004208850012000319652E4A
:101CAA00F401F40A410884004208850000088D31D5
:101CBA007F258E3101302000C1070030C23D6B2ED6
:101CCA00F401F40A20308D317F258E310130200055
:101CDA00C3004308C507452E20342D342D342E3435
:101CEA002D342D34003420342034303478342D34DB
:101CFA002D34003420342034303478342D342D34CB
:101D0A0000342034203430347834303430340034E1
:101D1A0006348934BF348834DE3488344434883411
:101D2A006D348834F2348834753489347A34893499
:101D3A007F3489346F348934063489344B34893496
:101D4A00513489345734893400341E34E2345234DD
:101D5A008834E83488340634893486348834CA347A
:101D6A0088343D3420343034303430340034003454
:101D7A004034003452348834BF3488340034FF3459
:101D8A00003449348834633489340034FF340034ED
:101D9A00493488340F3489340034073401345234D6
:101DAA00883492348834003400340034D43488348B
:101DBA00693489340034FF340034E3348834E3343A
:101DCA00883400340034013400342F348934003428
:101DDA0000340134003418348934003400340134B6
:101DEA000034363489340034003402345F34003429
:101DFA0000340034003409343C3400340034200008
:101E0A00C5004508C1004108C3008B13F401003026
:101E1A008D3149258F312000C100450A860087018E
:101E2A0041088100450A86008701F3300102031C3C
:101E3A00202F3030080045080C3E860087018101BA
:101E4A00C4010D3044020318532FF401450A8600D9
:101E5A008701010844078D3149258F312000C100CF
:101E6A0044084307C20042088600870141088100EE
:101E7A0044084307C1004108860087010108C200DF
:101E8A0045080C3E86008701420881060130C100E0
:101E9A004108C4070D304402031C2A2F8B1745083A
:101EAA000C3E86008701010803195D2F20300800C7
:101EBA00003008002000C6004608C1004108C400DE
:101ECA00C3018B13F40100308D3149258F31200075
:101EDA00C100460A8600870141088100F401460ACA
:101EEA008600870101088D3149258F312000C10004
:101EFA00460886008701410881000130C100460872
:101F0A0086008701410881070103031D982F0D30C0
:101F1A00C100460A860087014108810746088600F3
:101F2A0087018101810A460A86008701F33001028E
:101F3A00031CA42F460A860087018101810A230017
:101F4A001515200046080C3E860087018101C5014F
:101F5A00B32F01302000C1004108C5070D304502EA
:101F6A000318E02F45084407C1004108860087018D
:101F7A000108C2004208F400460A860087010108E7
:101F8A0045078D315B258F31200045084407C10084
:101F9A004108860087010108C20046080C3E8600F7
:101FAA008701420881062300951DAE2F10302000BC
:101FBA00C1004108C3004608860087010103031DCA
:101FCA00FB2F23009519FB2F200046088600870166
:101FDA00413FF40000308D315B258F312300951D80
:101FEA00FB2F10302000C1004108C3002300151147
:061FFA008B170030080007
:020000040001F9
:080000000100010000000000F6
:04000E009CCFFFDAAA
:00000001FF
