:040000008031AE2875
:10000800803120007F08F300931DAA289311290846
:10001800F0002A08F100F2017008DE077108DF3DE0
:100028007208E03D3A306002031D202898305F02D4
:10003800031D202800305E02031C4A280030F0000F
:100048009830F1003A30F2007008DE027108DF3BA8
:100058007208E03B2C08F0007008E6002B08F0005E
:10006800F101F035F10D0130F2007208E307710873
:10007800803A803C031D422870086302031C46280E
:100088002000E3012000690803196B163F3078054A
:10009800F00000307905F10070087104031D67282D
:1000A800660803195F280130E602031D5F28690806
:1000B800031D5F286B176908031967280130E902D7
:1000C800031D67286B170130F8070030F93D8030B1
:1000D8007806023003197906031DAA28F801F901E8
:1000E8006D0803197F280130ED02031DAA286B143F
:1000F800EB15EA01EA0A0C09E039F0007008EC0097
:10010800EC1B6C1B95280130F0007008F607403096
:100118007606031D96283C30F0007008F600671636
:100128009628F6016C1BEC1BA7280130F00070081C
:10013800F70740307706031DA8283C30F000700808
:10014800F700E716A828F7019319010073082000A3
:10015800FF0009008031B028F601F701F801F90124
:100168005E3084000030850011308D31D425803117
:10017800DC3084008730850020308600003087001E
:1001880023308D31CE258031E23084008E308500D9
:10019800A0308600003087003E308D31CE2520000B
:1001A8008031D62887317527803120000C09CA0094
:1001B800E0304A05C03A031DE6280F30CA004A0855
:1001C800EA00E728EA01EB177C309B001B36260083
:1001D80098002800171520001814DA010E305A026A
:1001E8000318AA29640020009601970186291C1586
:1001F8009E291C119E29F401F40A00308D31FA253C
:1002080080312000CA004A08DC005C08CA000430BB
:10021800CA36890B0C294A083038CB004B08210014
:10022800A70020005C080F393038CA004A082100AE
:10023800A800F401F40A01308D31FA25803120003C
:10024800CA004A08DC005C08CA000430CA36890BB8
:100258002A294A083038CB004B082100AA00200080
:100268005C080F393038CA004A082100AB009E29C3
:100278008E311E2680310030840088308500003F92
:100288002000C300013FC40080308E31AC2680318D
:1002980020002008C3002108C400C0308E31AC26DD
:1002A8008031A6302000C5000030C600CA308E312B
:1002B8006226803141302000C3008830C4003530C8
:1002C80084008830850000088E31822680314930CC
:1002D8002000C3008830C400363084008830850090
:1002E80000088E318226803139302000C3008830E2
:1002F800C400343084008830850000088E3182269E
:1003080080319E2920005A08003A0319FB28013A37
:100318000319FD28033A0319FB28013A0319FF289A
:10032800073A03193C29023A03195E290A3A0319C4
:10033800FD289E292000111C9E2911100130CA0099
:100348004A08DA070E305A02031CF6280B17280051
:100358001E1521009315640020006C086E066C05BC
:10036800CA004A08D9006C08CA004A08EE00D91A1F
:100378006715D91FC4296C1FC329E715C429671439
:10038800591FCB29EC1FCA29E715CB29E714671E8B
:10039800CF2967126714E71ED329E712E714670805
:1003A800031DE329EB292030CA004A08E9007C3004
:1003B8009B001B362600980020001C15EB296A08B4
:1003C800073A0319EB290F3A0319EB29D729EB1F31
:1003D800842AEB138B13DB01032AEA01EA0A6B1464
:1003E80028308F3120278031FE296B1428308F3137
:1003F800722780312000CA004A08DB00112A6A08E7
:10040800003A0319F1290B3A0319FA29063A031994
:10041800F429023A0319F929112AEB158D31C92556
:1004280080312000CA004A08D7005708CA000430A3
:10043800CA36890B1C2A4A08243E840088300318CF
:10044800013E85000008CB004B082100B0002000C9
:1004580057080F39243E840088300318013E850070
:100468000008CA004A082100B10020002808CA0074
:100478000430CA36890B3D2A4A08243E8400883055
:100488000318013E85000008CB004B082100B70087
:10049800200028080F39243E840088300318013EC4
:1004A80085000008CA004A082100B80020005B083F
:1004B800CA000430CA36890B5E2A4A08243E8400E2
:1004C80088300318013E85000008CB004B08210046
:1004D800BE0020005B080F39243E840088300318D2
:1004E800013E85000008CA004A082100BF0020001C
:1004F8005B080319832A1130CA004A08EA008B17DF
:10050800E71D922AE7116A03031D922A6808031956
:100518008F2AE801912AE801E80AEB14671DF22AFC
:1005280067116B14E52AEA01EA0AF22A0430DD2A87
:100538000330CA004A08EA00BF01C001F22A0530A8
:10054800DD2A0630DD2A0830DD2A0C30DD2A0A30A3
:10055800DD2A0930DD2A0E30DD2A3B0884000A3006
:1005680004020318F22A89310435D83E8200F22A9F
:100578003F080319D92A0730DD2A33080319D92A75
:100588000D30DD2A33080319D92A0B30DD2A330848
:100598000319D92A1030DD2A0230CA004A08EA00B5
:1005A800BB01BC01F22AD92A6B170230DD2A6B176E
:1005B8000330CA004A08EA00F22AEA01EA0AEB15FF
:1005C800F22A6A08FF3E031CF22A84001130040252
:1005D8000318F22A89310435583E82006B1CDE2B41
:1005E8006B10EB144D2B3B30382B3F30382BB301BD
:1005F800B4013330382B6B152B30CA004A08E5009C
:100608004030132B6B152C30CA004A08E500FF3028
:10061800132B6B152D30CA004A08E5000730CA00B5
:100628004A08E100E201DE2B6B153130CA004A08A6
:10063800E5001E30CA004A08E100E230CA004A0854
:10064800E200EB16DE2B6B153F08FF3E2E3ECA007C
:100658004A08E500FF30CA004A08E100E2011C151B
:10066800DE2BB701B8013730CA004A08E400DE2B98
:10067800EB15EB17FF30CA004A08ED00DE2B80307F
:100688008E3148268031C0308E31482680310100B5
:10069800DE2B20006A08FF3E031CDE2B840010308E
:1006A80004020318DE2B893104359C3E8200DE2BC0
:1006B800E71C7F2BE7106408023E86008701640868
:1006C800840085010008010603197F2B0130CA0048
:1006D8006408860087014A088107640A8600870142
:1006E8000108031D7E2B0130CA00640A86008701B9
:1006F8004A088107EB14671CEC2B67106408860016
:10070800870101080319EC2B640886008701013072
:100718008102640A8600870101080319982B640A7C
:100728008600870101308102EB14EC2B671CAA2B91
:10073800671003302A02E730031929020318A92B8E
:100748000130A9070030AA3D6B15EB15E71CEC2B0F
:10075800E71000302A02023003192902031CB92BC2
:100768000130A9020030AA3B6B15EB15EC2B671C76
:10077800CD2B6710650886008701010861060319FB
:10078800CD2B0130CA006508860087014A08810719
:100798006B15E71CEC2BE7106508860087016208DB
:1007A80001060319EC2B65088600870101308102D8
:1007B8006B15EC2B20006A08FF3E031CEC2B840011
:1007C8000E3004020318EC2B89310435BC3E82003C
:1007D800EB1D2D2CEB118B130030DE000030DF00F9
:1007E8000030E000E3012C08CA004A08E6006B1656
:1007F8008B172D2CEB1E4B2CEB12650886008701FE
:1008080001080A2CEB1E4B2CEB128D309B001B367B
:10081800282C6B1E4B2C6B126808031D4B2C63088D
:10082800031D182C2F081F2C2B086306031D1E2CD4
:1008380030081F2C2E089B001B08CA002D0A252CE7
:10084800CA36890B242C4A082600980020001C155B
:100858004B2C6A08003A03194B2C073A0319FE2B54
:100868000F3A0319062C033A03194B2C063A0319BD
:100878004B2C023A03194B2C1E3A03194B2C0D2C06
:100888004B2C492C6B1F622C6B131C11622C6A08B1
:10089800003A0319452C073A0319622C0F3A031939
:1008A800622C033A0319452C063A0319452C023ADF
:1008B8000319452C1E3A0319452C462CEB1CB12E66
:1008C800EB10A32E6408033E8600870164088400A9
:1008D80085010008CA00640A840085010003FF3A04
:1008E8004A0709070107CB004B0886008701403FEC
:1008F800C300413FC40081308E31AC2680312000D6
:100908006408033E860087016408840085010008A6
:10091800CA00640A840085010003FF3A4A070907F0
:10092800023E0107CB004B0886008701403FC30009
:10093800413FC400C1308E31AC2680312000640AAA
:1009480086008701640884008501000801060319F0
:10095800B92C35308400883085000008CA004A0860
:10096800C3008F308D31DA2580312000640A86007B
:1009780087016408023E8400850100080107CA0057
:10098800CB01CB0D4A08FF3ECC00FF304B3DCD00DC
:1009980064088600870101084C064D040319E02C01
:1009A80036308400883085000008CA004A08C30031
:1009B800CF308D31DA25803134308400883085009D
:1009C80000082000CA004A08C300640A860087019C
:1009D8000108373E840088300318013E850000086E
:1009E8008D31DA258031B12E1830840088308500A9
:1009F800003F2000C300013FC4008D308E31AC267B
:100A080080311A30840088308500003F2000C30000
:100A1800013FC400CD308E31AC2680313D2D1230DF
:100A2800840088308500003F2000C500013FC600D3
:100A380080308E3162268031492D14308400883010
:100A48008500003F2000C500013FC60080308E3180
:100A580062268031492D1630840088308500003F99
:100A68002000C500013FC60080308E3162268031EB
:100A7800492D20006A080A3A0319212D063A03195C
:100A8800132D023A03192F2D492D34308400883054
:100A9800850000082000CA004A08C300640A8600CE
:100AA80087010108373E840088300318013E85001D
:100AB80000080C388D31DA258031B12E00308400E1
:100AC80088308500003F2000C300013FC40080300B
:100AD8008E31AC2680310430840088308500003F98
:100AE8002000C300013FC400C0308E31AC268031E5
:100AF800200068080319182E023084008830850009
:100B0800003FC500013FC6008A308E316226803121
:100B1800182E0630840088308500003FC300013F4E
:100B2800C40080308E31AC26803108308400883093
:100B38008500003F2000C300013FC400C0308E3153
:100B4800AC268031182E0630840088308500003F9E
:100B5800C300013FC40080308E31AC2680310C3098
:100B6800840088308500003F2000C300013FC40096
:100B7800C0308E31AC268031182E06308400883083
:100B88008500003FC300013FC40080308E31AC2691
:100B980080310E30840088308500003F2000C3007B
:100BA800013FC400C0308E31AC268031182E06308B
:100BB800840088308500003FC300013FC4008030B6
:100BC8008E31AC2680311030840088308500003F9B
:100BD8002000C300013FC400C0308E31AC268031F4
:100BE800182E0630840088308500003FC300013F7E
:100BF800C40080308E31AC2680310A3084008830C1
:100C08008500003F2000C300013FC400C0308E3182
:100C1800AC26803120003F082F3ECA004A08C30096
:100C2800C5308D31DA25803120006B15B12E37356E
:100C3800203E86008701403FC300413FC40080300A
:100C48008E31AC26803107302000CA004A08F400F3
:100C580037088D31E8258031A63E2000C5000030D8
:100C6800C6008A308E316226803120003735023E38
:100C7800203E86008701403FC300413FC400C0308A
:100C88008E31AC26803107302000CA004A08F400B3
:100C98003708013E8D31E8258031A63E2000C50089
:100CA8000030C600CA308E3162268031B12E1C3029
:100CB800840088308500003F2000C300013FC40045
:100CC80080308E31AC268031C0308E31482680315C
:100CD800B12E1E30840088308500003F2000C300FC
:100CE800013FC40080308E31AC268031C0308E3157
:100CF80048268031B12E2030840088308500003F9E
:100D08002000C300013FC40080308E31AC26803102
:100D1800C0308E3148268031B12E22308400883090
:100D28008500003F2000C300013FC40080308E31A1
:100D3800AC268031C0308E3148268031B12E20005B
:100D48006A08FF3E031CB12E840011300402031808
:100D5800B12E893104357A3E820020006B1DAF29FF
:100D68006B11A0308600003087004E3084000030C0
:100D780085000630CA0016001A00CA0BBF2EEF2ED7
:100D88002A08D6002908D500F72EB11FDE2E310813
:100D9800CA00CB01CA1BCB03CA09CB09CA0A03196B
:100DA800CB0A4A08D5004B08D6002D30CA004A089D
:100DB800CF00F72E3108D500D601D51BD603F72E64
:100DC8006508860087010108CA00CB014A08D500DA
:100DD8004B08D600F72E6A08013A0319C42E093ABF
:100DE8000319C92EE42ED4010230CA004A08DD00D6
:100DF800502F6430002F0A30CA004A08D800122F3A
:100E0800D801D80A122F5D08023A0319FD2E013ABB
:100E18000319FF2E073A0319042F122F5808CA0086
:100E2800CB014B085602031D1B2F4A085502031C11
:100E38002F2F5808CA00CB014A08D5024B08D63BC9
:100E48000130CA005D084E3E860087014A088107C6
:100E5800D401D40A122F04305D060319542F540804
:100E6800031D4C2F5D08FF3E4E3E8600870101089A
:100E7800CA005D084E3E860087014A08810020307E
:100E8800CA005D08FF3E4E3E860087014A08810081
:100E98000130CA004A08DD0705305D06031D072F2B
:100EA8004E30C5000030C600CB308E31622680310E
:100EB8006B2F200031082100692F2000650886006B
:100EC800870101089B001B3626009800AF292000E7
:100ED8006A08073A0319612F0F3A03195D2FAF29E2
:100EE800AF2921001908873970389900FC30990515
:100EF8009917C03098051708C1391E3897008B1309
:100F08000B13951595121516200095018B120B11D0
:100F180018103F3098053030980418119601970141
:100F280011102100111020001C1187309C0503307E
:100F38009C047C309B009A0191102100911028009C
:100F48001711873097051708FC39013897004F307B
:100F580096009501200093102100931028001E117F
:100F680087309E05FC309E057C309D009C0120004A
:100F780093112100931125009E01F0309305F03064
:100F88009A05F030260093051A08F0390C389A00B3
:100F9800CF309A053F3025009E052600980199011B
:100FA80023008C018D01E03021008C008D010800A8
:100FB800F23488348F3488349A34883484348834CA
:100FC800003478340034043420340134F9343E34A5
:100FD8005234003400340034003401340034003416
:100FE800003402340034003400340934C23400348C
:060FF80000340334D6347E
:10100000B0348834FA348834353489341634893429
:10101000A5348834BF3488345634883478348834DE
:10102000C43488340134893408348934EA34883447
:1010300050348934543489340F3489342F3489340A
:101040006C348834D83488343034313432343334E6
:101050003434353436343734383439344134423426
:10106000433444344534463400340134023480344B
:10107000C034103418341C341E341C34183410346A
:101080000034003404340E341F340034003400348F
:10109000003400340034003400341F340E3404347F
:1010A0000034413464346A342E342034443475348A
:1010B00072346134743469346F346E3400344134C2
:1010C00064346A342E34203450342D345734693427
:1010D000643474346834003449346E34693474349C
:1010E000693461346C3469347A346534643400347E
:1010F000503475346C347334653420345734693467
:1011000064347434683400344534723472346F3467
:101110007234203443346F346434653400345234D0
:101120004F344D3420344F34663466347334653470
:1011300074340034533461347634653420344334A9
:101140006F3475346E347434003442346534613431
:101150007434203443346F3475346E347434003452
:101160004D346534743472346F346E346F346D348E
:1011700065340034413464346A342E3420345434B9
:101180006F346E34653400344F34733463342E342A
:101190002034543475346E3465340034413464344E
:1011A0006A342E342034543475346E34653400344B
:1011B0004534523452344F345234203421342134A3
:1011C00000343C3420345234653474347534723411
:1011D0006E340034523465347334653474342034DE
:1011E0003F340034563465347234733469346F34A8
:1011F0006E34003423344D34753474346534233400
:1012000000344C346F346134643420343F3400345F
:10121000533461347634653420343F3400344C34F4
:101220006F346134643465346434003443346F346F
:101230006E34663469346734003454346F346E3439
:1012400065343034003454346F346E3465343134A2
:10125000003454346F346E346534323400345334D3
:1012600061347634653464340034543465346D3418
:1012700070346F34003452346534733465347434EC
:1012800000344C346F34613464340034533461348A
:1012900076346534003449346E3466346F34003447
:1012A0004E346F3420340034593465347334003490
:1012B0008231D02A8231B12A8231BC2A8231D72AA6
:1012C0008231D72A8231D72A8231DB2A8231D82A49
:1012D0008231D72A8231C62A8231F22A8231C12A4A
:1012E0008231F22A8231CB2A8231E12A8231F22AFA
:1012F0008231E12A8531622D8431662C8431662C5D
:1013000085318D2D8531A72D8531C12D8531F52D67
:101310008531DB2D86311B2E8431F82C86316D2EE4
:101320008431F82C86315B2E8431F82C86317F2E67
:101330008631B12E8631912E8331DE2B8231F72A10
:101340008231F92A8231FF2A8331062B83310D2B1A
:101350008331272B8331182B8331352B8231FB2AA4
:1013600083313D2B8231FB2A83313C2B8231FB2A96
:101370008331DE2B8331432B83319A2B83315C2BDA
:1013800083315C2B8331BB2B8331BB2B8331BB2B54
:101390008331BB2B8331BB2B83315C2B83315C2BA3
:1013A0008331EC2B83315C2B8331EC2B83315C2B31
:1013B0008231972A82319A2A82319C2A8231A32A49
:1013C0008231A52A8231A72A8231A92A8231AB2A09
:0813D0008231AD2A8231AF2AFF
:101B9200F40100308D31FA250800FE0012001E000B
:101BA200FE0BCF2D0034640080010131890BD52D4D
:101BB20000342000C400F40144088E3132268D31F5
:101BC200F401F40A200043088E3132260800200076
:101BD200C400C301441CF12D7408F5007508C30745
:101BE2000310F40D0310C40C4408031DEB2D43082D
:101BF2000800F500230092017508910095137408FE
:101C02000319052E1517062E1513151400000000D2
:101C1200230013080800F5002300920175089100C3
:101C220094017408930055309600AA3096009514DA
:101C32002000121E192E12120800F40138308E31C3
:101C420032268E31F4010C308E3132268E31F4017F
:101C520010308E3132268E31F40106308E3132262A
:101C62000800F5002000931C332E750822008D0019
:101C7200740803193E2E8C143F2E8C100C14000095
:101C820022000C102800950120009310080020006B
:101C9200C400F4014408F0398E3132268E3120001E
:101CA200C5011030450603190800F401F40A20307A
:101CB2008E3132268E3101302000C3004308C50721
:101CC200522E2000C800F40148088E3132268E318F
:101CD2002000450884004608850012000319080008
:101CE200F401F40A20004508840046088500000833
:101CF2008E3132268E3101302000C5070030C63DBC
:101D0200692E2000C600F4014608C5000230C53520
:101D1200FF3E031D882E45353F3940388E3132262D
:101D22008E312000C7010830470603190800F4016C
:101D3200F40A430884004408850000088E313226E4
:101D42008E3101302000C5004508C7070130C307A6
:101D52000030C43D942E2000C600F4014608F0393C
:101D62008E3132268E312000C7011030470603190A
:101D7200080046080F394702031CD62E4308840088
:101D82004408850012000319D62EF401F40A430810
:101D920084004408850000088E3132268E310130DD
:101DA2002000C3070030C43DDC2EF401F40A2030C9
:101DB2008E3132268E3101302000C5004508C7071A
:101DC200B62E3D34203430343034303400342034B4
:101DD2002D342D342E342D342D340034203420343F
:101DE20020342D342D34683400342034203420340F
:101DF2002D342D34683400342034203420343034EF
:101E0200303468340034E1348834A5348834BA3448
:101E12008834513488345F348834CE348834413441
:101E22008934463489344B3489343B348934E1343F
:101E320088341D3489342334893429348934200088
:101E4200C7004708C3004308C5008B13F4010030E4
:101E52008D31FA258F312000C3004308C600F530CA
:101E62004602031C362F3030080047080A3E86001F
:101E720087018101C8010B3048060319662FF4015E
:101E8200460848078D31FA258F312000C3004808E3
:101E92004507C400440886008701430881004808BA
:101EA2004507C3004308860087010108C4004708AC
:101EB2000A3E86008701440881060130C3004308B8
:101EC200C8070B304806031D402F8B1747080A3EF0
:101ED2008600870101080319702F203008000030A6
:101EE20008002000C9004908C3004308C600C50114
:101EF2008B13F40100308D31FA258F312000C3009D
:101F02004308C700F40147088D31FA258F312000BC
:101F1200C300490886008701430881000130C300DD
:101F2200490886008701430881070103031DA22F88
:101F32000B30C3004308C7074908860087018101A7
:101F4200810AF5304702031CA82FC701C70A2300E4
:101F52001515200049080A3E860087018101C80143
:101F6200B72F01302000C3004308C8070B304806D2
:101F72000319E12F48084607C3004308860087017A
:101F82000108C4004408F400470848078E310C26B3
:101F92008F31200048084607C300430886008701A6
:101FA2000108C40049080A3E8600870144088106E8
:101FB2002300951DB22F10302000C3004308C50036
:101FC2004908860087010103031DFB2F2300951991
:101FD200FB2F20004708C3004308F40000308E3175
:101FE2000C268F312300951DFB2F10302000C300DB
:0E1FF2004308C500230015118B1700300800AE
:020000040001F9
:080000000100010000000000F6
:04000E009CCFFFDAAA
:00000001FF
