:040000008031A8287B
:10000800803120007F08F300931DA4289311210854
:10001800F0002208F100F2017008E1077108E23DE2
:100028007208E33D3A306302031D202898306202CB
:10003800031D202800306102031C44280030F00012
:100048009830F1003A30F2007008E1027108E23BA2
:100058007208E33B2308F000F101F035F10D01309F
:10006800F2007208E6077108803A803C031D3E28BA
:1000780070086602031C42282000E6012000EB15E8
:100088003F307805F00000307905F1007008710400
:10009800031D61286408031959280130E402031D6F
:1000A80059286508031D5928EB16650803196128A6
:1000B8000130E502031D6128EB160130F807003016
:1000C800F93D80307806023003197906031DA4280B
:1000D800F801F9016D08031979280130ED02031DB3
:1000E80079286B146B17EA01EA0A0C09E039F00069
:1000F8007008EC00EC1B6C1B8F280130F0007008B6
:10010800F60740307606031D90283C30F000700852
:10011800F60068169028F6016C1BEC1BA12801302C
:10012800F0007008F70740307706031DA2283C301E
:10013800F0007008F700E816A228F70193190100EB
:1001480073082000FF0009008031AA28F601F70192
:10015800F801F9015A3084000030850015308A31E1
:10016800DC228031DF308400873085002030860033
:100178000030870020308A31E2228031FB30840051
:100188008E308500A0308600003087004C308A31E0
:10019800E22220008031D0288F3199278031200039
:1001A8000C09C700E0304705C03A031DE0281130AC
:1001B800C7004708EA00E128EA016B147C309B007D
:1001C8001B36260098002800171520001814D601A1
:1001D8000E3056020318A7296400200096019701E3
:1001E80083291C159B291C119B29F401F40A003052
:1001F8008A31AA2280312000C7004708D800580851
:10020800C7000430C736890B062947083038C800AC
:1002180048082100AF00200058080F393038C700BF
:1002280047082100B000F401F40A01308A31AA22FB
:1002380080312000C7004708D8005808C70004309C
:10024800C736890B242947083038C80048082100D8
:10025800B200200058080F393038C700470821007D
:10026800B3009B298A318422803100308400883091
:100278008500003F2000C000013FC10080308E3162
:10028800C5268031210020082000C0002100210857
:100298002000C100C0308E31C5268031AE3020002C
:1002A800C2000030C300CA308A31202280314A306F
:1002B8002000C0008830C1003B30840088308500B1
:1002C80000088E319B26803152302000C0008830D3
:1002D800C1003C3084008830850000088E319B26A0
:1002E800803142302000C0008830C1003A3084009C
:1002F8008830850000088E319B2680319B2920009C
:100308005608003A0319F528013A0319F728033A61
:100318000319F528013A0319F928073A0319362968
:10032800023A03195B290A3A0319F7289B29200086
:10033800111C9B2911100130C7004708D6070E3041
:100348005602031CF0280B1728001E1521009315D0
:10035800640020006C086E066C05C7004708D500CD
:100368006C08C7004708EE00D51A6815D51FC129C3
:100378006C1FC029E815C1296814551FC829EC1F2E
:10038800C729E815C829E814681ECC29681268141A
:10039800E81ED029E812E8146808031D6B16EB1F45
:1003A8006D2AEB138B13D701EB29EA01EA0A6B14C8
:1003B8006B1720308F3147278031E629203087316D
:1003C800512780312000C7004708D700F9296A085B
:1003D800003A0319D9290D3A0319E229023A0319F7
:1003E800DD291E3A0319E229F9298A31E8228031E8
:1003F8002000C7004708D4005408C7000430C73697
:10040800890B032A47082A3E840088300318013ED6
:1004180085000008C80048082100B80020005408DA
:100428000F392A3E840088300318013E85000008F1
:10043800C70047082100B90020002008C700043081
:10044800C736890B242A47082A3E840088300318B7
:10045800013E85000008C80048082100BF002000B0
:1004680020080F392A3E840088300318013E850091
:100478000008C70047082100C00020005708C7002F
:100488000430C736890B452A47082A3E840088303D
:100498000318013E85000008C80048082100C6006E
:1004A800200057080F392A3E840088300318013E7F
:1004B80085000008C70047082100C700200057082A
:1004C80003196C2A1330C7004708EA00EB016B14C4
:1004D8008B17E81D7B2AE8116A03031D7B2A69082C
:1004E8000319782AE9017A2AE901E90AEB14681D57
:1004F800152B68116B14082B0530002B0330C7002F
:100508004708EA00BC01BD01152B0430C7004708A5
:10051800EA00B001B101152B0830002B0A30002B7E
:100528000E30C7004708EA0018308400883085007C
:10053800003FDD00013FB92A0C30C7004708EA0038
:100548001A30840088308500003FDD00013FB92A59
:100558000B30002B1030C7004708EA001C3084001D
:1005680088308500003FDD00013FDE00152BEA01E1
:10057800EA0A152B380884000A3004020318BB2A3B
:100588008A310435703E8200152B3C080319FC2A79
:100598000930002B0630002B0730002BFC2A670897
:1005A800860087010108003A0319D22A013A031983
:1005B800CE2A033A0319D02AD22A152B2C0803195C
:1005C800FC2A0F30002B2C080319FC2A0D30002BB5
:1005D8002C080319FC2A1230002B0230C7004708E8
:1005E800EA00B801B901152BFC2A0430002BEB16E0
:1005F8000230002BEB160330C7004708EA00152B22
:10060800EA01EA0A6B17152B6A08FF3E031C152B33
:100618008400133004020318152B89310435A93ED0
:1006280082006B1CAB2C6B10EB141C2C003084006C
:1006380088308500003FDD00013FDE000430840083
:1006480088308500003FDF00013F9B2B3830E22BCC
:100658003C30E22B3030E22BAC01AD012C30E22BE8
:100668006B152330C7004708DA004030C700470839
:10067800DB00DC010630840088308500003FDD00A7
:10068800013FDE000C30840088308500003FDF0029
:10069800013F9B2B6B152430C7004708DA00FF3059
:1006A800C7004708DB00DC010A3084008830850079
:1006B800003FDD00013FDE001030840088308500F7
:1006C800003FDF00013F9B2B6B152530C700470813
:1006D800DA00FF30C7004708DB00DC010A3084007D
:1006E80088308500003FDD00013FDE0012308400C5
:1006F80088308500003FDF00013F9B2B6B152630BB
:10070800C7004708DA000730C7004708DB00DC01EC
:100718000630840088308500003FDD00013FDE00A0
:100728001430840088308500003FDF00013FE0007E
:10073800AB2C6B152A30C7004708DA001E30C700FB
:100748004708DB001E30C7004708DC00063084007D
:1007580088308500003FDD00013FDE001630840050
:1007680088308500003FDF00013FE0008D309B00AE
:100778001B36260098002000DD2B6B153C08FF3E39
:10078800273EC7004708DA00FF30C7004708DB00EC
:10079800DC010830840088308500003FDD00013F1F
:1007A800DE000E30840088308500003FDF00013F06
:1007B800E0001C15AB2CB401B5013430C700470864
:1007C800E700AB2C6B17EB172230840088308500CC
:1007D800003FDD00013FF82BEB1724308400883000
:1007E8008500003FDD00013FDE004030C7004708BC
:1007F800ED00AB2CEB17AB2CEB17263084008830C0
:100808008500003FDD00013F1A2C80308A314022EC
:100818008031C0308A314022803101002830840084
:1008280088308500003F2000DD00013FDE00AB2C52
:100838006A088400143004020318AB2C893104358B
:10084800813E8200AB2CE81C4A2CE8106708023E67
:1008580086008701670884008501000801060319DE
:100868004A2C0130C70067088600870147088107BE
:10087800670A860087010108031D492C0130C7005B
:10088800670A8600870147088107EB14681CB82CA3
:10089800681067088600870101080319B82C6708E3
:1008A8008600870101308102670A860087010108F6
:1008B8000319632C670A8600870101308102EB1453
:1008C800B82C681C752C681003302202E730031915
:1008D80021020318742C0130A1070030A23D6B15CA
:1008E8006B17E81CB82CE8100030220202300319FC
:1008F8002102031C842C0130A1020030A23B6B159D
:100908006B17B82C681C982C68105A088600870149
:100918005B0801060319982C0130C7005A088600A5
:100928008701470881076B15E81CB82CE8105A089E
:10093800860087015C0801060319B82C0130C7003E
:100948005A0886008701470881076B15B82C6A0882
:10095800FF3E031CB82C8400103004020318B82C86
:100968008A310435003E82006B1FFB2C6B138B13FE
:100978000030E1000030E2000030E300E601EB1552
:100988008B17FB2C6B1ED42C6B122508C70047084D
:10099800E5007C309B001B362600980020001C15C3
:1009A800EB1D192DEB116908031D192D6508031D91
:1009B800192D2408C7004708E4006608031DE62C23
:1009C8002808ED2C23086606031DEC2C2908ED2CBD
:1009D80027089B001B08C700260AF32CC736890B7B
:1009E800F22C47082600980020001C15192D6A08CB
:1009F800003A0319192D093A0319192D033A031955
:100A0800192D073A0319192D023A0319192D1E3AFF
:100A18000319192D023A0319192DC62C192D172D52
:100A2800EB1E302DEB121C11302D6A08003A031909
:100A3800132D093A0319302D033A0319302D073ABB
:100A48000319132D023A0319132D1E3A0319132DF6
:100A5800023A0319132D142DEB1C952EEB10872E3B
:100A68006708033E8600870167088400850100083F
:100A7800C700670A840085010003FF3A4707090792
:100A88000107C800480886008701403FC000413F71
:100A9800C10081308E31C526803120006708033EB1
:100AA800860087016708840085010008C700670A77
:100AB800840085010003FF3A47070907023E010742
:100AC800C800480886008701403FC000413FC10078
:100AD800C1308E31C52680312000670A8600870123
:100AE800670884008501000801060319872D3B303B
:100AF8008400883085000008C7004708C0008F3090
:100B08008A31CE2280312000670A86008701670873
:100B1800023E8400850100080107C700C801C80D0E
:100B28004708FF3EC900FF30483DCA0067088600F5
:100B38008701010849064A040319AE2D3C30840098
:100B4800883085000008C7004708C000CF308A31C8
:100B5800CE2280313A308400883085000008200099
:100B6800C7004708C000670A860087010108403EA1
:100B7800840088300318013E850000088A31CE229F
:100B88008031952E1E30840088308500003F20007B
:100B9800C000013FC1008D308E31C5268031203024
:100BA800840088308500003F2000C000013FC1005C
:100BB800CD308E31C526803120005D08C2005E0828
:100BC800C30080308A31202280313A308400883056
:100BD800850000082000C7004708C000670A860093
:100BE80087010108403E840088300318013E8500D3
:100BF80000080C388A31CE228031952E20005D08FD
:100C0800C0005E08C10080308E31C52680312000CA
:100C18005F08C0006008C100C0308E31C526803131
:100C280020006A03031D282E69080319282E0230A4
:100C3800840088308500003FC200013FC3008A302D
:100C48008A3120228031362E093020006A06031DA1
:100C5800362E3C082F3EC7004708C000C5308A31F1
:100C6800CE22803120006B15952E3435A03E8600AB
:100C78008701403FC000413FC10080308E31C5260A
:100C8800803107302000C7004708F40034088A3153
:100C9800BC228031AE3E2000C2000030C3008A3042
:100CA8008A312022803120003435023EA03E860061
:100CB8008701403FC000413FC100C0308E31C5268A
:100CC800803107302000C7004708F4003408013E8F
:100CD8008A31BC228031AE3E2000C2000030C30001
:100CE800CA308A3120228031952E20005D08C0004C
:100CF8005E08C10080308E31C5268031C0308A310F
:100D080040228031952E20006A08FF3E031C952E54
:100D18008400133004020318952E89310435CF3E20
:100D2800820020006B1DAC296B11A83086000030B2
:100D380087004B308400003085000630C70016005D
:100D48001A00C70BA32ED32E2208D3002108D200E5
:100D5800DB2EAA1FC22E2A08C700C801C71BC8035A
:100D6800C709C809C70A0319C80A4708D2004808AA
:100D7800D3002D30C7004708CC00DB2E2A08D2004C
:100D8800D301D21BD303DB2E5A0886008701010842
:100D9800C700C8014708D2004808D300DB2E6A08FC
:100DA800013A0319A82E0B3A0319AD2EC82ED1010A
:100DB800D9012C2F59083D3E840088300318013E84
:100DC80085000008C700C80148085302031DEE2E1D
:100DD80047085202031C0A2F59083D3E84008830F8
:100DE8000318013E85000008C700C8014708D20261
:100DF8004808D33B0130C7005908023E4B3E8600E5
:100E0800870147088107D101D10ADE2E0230590631
:100E18000319302F5108031D282F5908013E4B3E56
:100E2800860087010108C7005908023E4B3E86002C
:100E38008701470881002030C7005908013E4B3E12
:100E480086008701470881000130C7004708D90795
:100E580003305902031CDE2E4B30C2000030C300A1
:100E6800CB308A3120228031472F20002A082100E8
:100E7800452F20005A088600870101089B001B3671
:100E880026009800AC2920006A08093A03193D2F6A
:100E9800033A0319392FAC29AC292000C6004608AB
:100EA800C0004008C300C2018B13F40100308A312E
:100EB800AA2287312000C0004008C400F401440879
:100EC8008A31AA2287312000C0004608860087019F
:100ED800400881000130C0004608860087014008AC
:100EE80081070103031D812F0C30C0004008C4078F
:100EF8004608860087018101810AF4304402031CF8
:100F0800872FC401C40A23001515200046080B3E8C
:100F1800860087018101C501962F01302000C0009D
:100F28004008C5070C3045060319C02F450843077C
:100F3800C0004008860087010108C1004108F4008C
:100F4800440845078A31982287312000450843071D
:100F5800C0004008860087010108C10046080B3E12
:100F680086008701410881062300951D912F1030C6
:100F78002000C0004008C20046088600870101031F
:100F8800031DDA2F23009519DA2F20004408C0002A
:100F98004008F40000308A31982287312300951DDB
:100FA800DA2F10302000C0004008C20023001511BD
:100FB8008B170030080000347834003404342034AF
:100FC80020340134F9343E345234003400340034CF
:100FD800003401340034003400340234E634003480
:100FE800003402340034003400340934CA34003484
:060FF80000340334DE3476
:10100000CF348834193489345A34893435348934A6
:10101000DE3488345F348834BA348834DE3488343B
:10102000543489347D3489348D348834E3348834BD
:101030002034893427348934093489347534893427
:10104000793489342E3489344E3489347534883473
:10105000F734883430343134323433343434353442
:1010600036343734383439344134423443344434F8
:101070004534463400340134023464340A340134D3
:101080008034C034103418341C341E341C341834EA
:1010900010340034003404340E341F34003400346F
:1010A0000034003400340034003400341F340E3473
:1010B00004340034413464346A342E3420344434EB
:1010C000753472346134743469346F346E3400347E
:1010D000413464346A342E34203450342D3457343F
:1010E0006934643474346834003449346E34693497
:1010F0007434693461346C3469347A3465346434FA
:10110000003443346C34693463346B3420345334E6
:101110006F3475346E3464340034503475346C3448
:101120007334653420345734693464347434683427
:1011300000344534723472346F34723420344334A2
:101140006F3464346534003452344F344D342034B9
:101150004F34663466347334653474340034533435
:10116000613476346534203443346F3475346E34EE
:10117000743400344234653461347434203443347C
:101180006F3475346E34743400344B3465347934D0
:10119000203453346F3475346E34643400344D3439
:1011A0006534743472346F346E346F346D34653436
:1011B0000034413464346A342E34203454346F346F
:1011C0006E34653400344F34733463342E34203439
:1011D000543475346E3465340034413464346A34C4
:1011E0002E342034543475346E3465340034453430
:1011F000523452344F3452342034213421340034A8
:101200003C342034523465347434753472346E3462
:1012100000345234653473346534743420343F34CC
:101220000034563465347234733469346F346E3438
:10123000003423344D34753474346534233400342D
:101240004C346F346134643420343F3400345334CC
:1012500061347634653420343F3400344C346F3498
:101260006134643465346434003443346F346E3430
:10127000663469346734003454346F346E34653402
:101280003034003454346F346E34653431340034C7
:1012900054346F346E346534323400345334613432
:1012A000763465346434003443346C3469346334E4
:1012B0006B340034543465346D3470346F3400341E
:1012C0005234653473346534743400344C346F34C0
:1012D000613464340034533461347634653400341A
:1012E00049346E3466346F3400344E346F342034F5
:1012F000003459346534733400344B3465347934F4
:1013000000348331FE2B83311A2B83312A2B833116
:101310002C2B83312E2B8331342B83314E2B833175
:10132000682B8331822B8331C12B83319D2B8331F9
:10133000DF2B8331302B8331F02B8331302B833102
:10134000E62B8331302B8431002C8431092C8431FD
:10135000122C8231F12A8231BE2A8231C92A82318D
:10136000D32A8231F82A8231F92A8231F92A82314C
:10137000F82A8231FE2A8231FB2A8231F82A823110
:10138000E72A8331152B8231E22A8331152B8231F2
:10139000EC2A8331042B8331152B8331042B8631C6
:1013A000022E8531342D8531342D8531342D863111
:1013B000022E8631022E8631022E8631022E863191
:1013C000022E8631022E8631392E8531C62D863188
:1013D000792E8531C62D8631792E8531C62D8631FF
:0A13E000792E8631952E8631792E84
:101400008431652C8431272C8431272C8431272C7E
:101410008431862C8431862C8431862C8431862C30
:101420008431862C8431862C8431272C8431272CDE
:101430008431B82C8431272C8431B82C8431272C6A
:101440002000C500F40145088A315A228A31200063
:101450004208840043088500120003190800F401C3
:10146000F40A2000420884004308850000088A31FD
:101470005A228A3101302000C2070030C33D272A9A
:101480002000C100F4014108F0398A315A228A3122
:101490002000C2011030420603190800F401F40ACA
:1014A00020308A315A228A3101302000C0004008A1
:1014B000C2074A2AF5002000931C5B2A7508220007
:1014C0008D0074080319662A8C14672A8C100C147A
:1014D000000022000C102800950120009310080045
:1014E0008231BB2A8231802A8231822A8231892A42
:1014F0008231902A8231922A8231942A8231A02A22
:101500008231AC2A8231AE2AF40138308A315A2233
:101510008A31F4010C308A315A228A31F4011030B8
:101520008A315A228A31F40106308A315A2208005F
:10153000F50023009201750891009401740893004E
:1015400055309600AA30960095142000121EA52A48
:1015500012120800F50023009201750891009513FE
:1015600074080319B52A1517B62A151315140000A7
:1015700000002300130808002000C100C001411C26
:10158000C52A7408F5007508C0070310F40D031090
:10159000C10C4108031DBF2A400808002000C100FB
:1015A000F40141088A315A228A31F401F40A2000F8
:1015B00040088A315A220800640080010131890BF9
:1015C000DD2A0034FE0012001E00FE0BE32A003468
:0A15D000F40100308A31AA2208005D
:101D36002000C300F4014308C2000230C235FF3E52
:101D4600031DA12E42353F3940388A315A228E3141
:101D56002000C4010830440603190800F401F40AFF
:101D6600400884004108850000088A315A228E31D5
:101D760001302000C2004208C4070130C00700300D
:101D8600C13DAD2E2000C300F4014308F0398A316D
:101D96005A228E312000C40110304406031908006F
:101DA60043080F394402031CEF2E40088400410803
:101DB600850012000319EF2EF401F40A400884008E
:101DC6004108850000088A315A228E3101302000F0
:101DD600C0070030C13DF52EF401F40A20308A31E7
:101DE6005A228E3101302000C2004208C407CF2E8D
:101DF60011348934A4348834AF348834993488341F
:101E06003D342034303430343034003420342D34F2
:101E16002D342E342D342D34003420342034203407
:101E26002D342D34683400342034203420342D34BD
:101E36002D346834003420342034203430343034A7
:101E46006834003400348934BA348834D934883458
:101E56005A34883468348834ED34883466348934A6
:101E66006B3489347034893460348934003489346D
:101E76003C348934423489344834893400348934D2
:101E860081348834C53488342000C4004408C00036
:101E96004008C2008B13F40100308A31AA228F3128
:101EA6002000C0004008C300F4304302031C5D2F2D
:101EB6003030080044080B3E860087018101C501C9
:101EC6000C30450603198D2FF401430845078A3166
:101ED600AA228F312000C00045084207C1004108F0
:101EE600860087014008810045084207C000400877
:101EF600860087010108C10044080B3E8600870161
:101F0600410881060130C0004008C5070C3045066F
:101F1600031D672F8B1744080B3E860087010108B7
:101F26000319972F203008000030080021001908F7
:101F3600873970389900FC3099059917C030980593
:101F46001708C1391E3897008B130B139515951278
:101F56001516200095018B120B1118103F309805AD
:101F660030309804181196019701111021001110B4
:101F760020001C1187309C0503309C047C309B009C
:101F86009A019110210091102800171187309705AA
:101F96001708FC39013897004F309600950120004C
:101FA60093102100931028001E1187309E05FC30E7
:101FB6009E057C309D009C01200093112100931109
:101FC60025009E01F0309305F0309A05F03026008A
:101FD60093051A08F0390C389A00CF309A053F302D
:101FE60025009E0526009801990123008C018D018C
:0A1FF600E03021008C008D0108008E
:020000040001F9
:080000000100010000000000F6
:04000E009CCFFFDAAA
:00000001FF
