:0400000080317428AF
:10000800803120007F08F300931D71289311220886
:10001800F0002308F100F2017008C9077108CA3D11
:100028007208CB3D0130F802031D71285030F000F2
:100038007008F8005008031929280130D002031D60
:1000480029285108031D2928481451080319312863
:100058000130D102031D312848140130F902031D73
:1000680071280A30F0007008F9005908031944286B
:100078000130D902031D44284714C715D601D60AF2
:100088000C09E039F0007008D700D71B571B562819
:100098000130F602031D5A280430F0007008F600FB
:1000A80046165A284030F0007008F600571BD71B38
:1000B80067280130F702031D6B280430F000700830
:1000C800F700C6166B284030F0007008F700931D43
:1000D80071280230F0007008D5007308FF0009008D
:1000E80080317628F601F701F801F90146308400DD
:1000F8000030850015308C31D22480317F30840067
:100108008D308500203086000030870026308C3105
:10011800CC2480314D3084008E308500A03086009C
:100128000030870050308C31CC2480310530840079
:100138008E308500203086000130870048308C31B1
:10014800CC2420008031A8288E31F8268031200068
:100158000C09E100E0306105C03A031DB8280B30F6
:10016800E1006108D600B928D60147147C309B000D
:100178001B362600980028001715200018142300A5
:10018800AC010E302C020318C82964002000960127
:100198009701A02920001C15BB2920001C11BB2990
:1001A800F401F40A00308C31EE2480312000E100A3
:1001B80061082300AE002E082000E1000430E1367B
:1001C800890BE32861083038E20062082200A100A8
:1001D80023002E080F3930382000E1006108220082
:1001E800A200F401F40A01308C31EE2480312000A1
:1001F800E10061082300AE002E082000E100043071
:10020800E136890B042961083038E20062082200CF
:10021800A40023002E080F3930382000E1006108BF
:100228002200A500BB2904302000E1006108DB00A2
:10023800DC010230E2006208DD0018308D315E25F5
:1002480080310030840088308500003F2000DB00CA
:10025800013FDC0080308D31CF258031210020081E
:100268002000DB00210021082000DC00C0308D3197
:10027800CF25803120302000DD000130DE00CA307B
:100288008D313E25803124302000E10061082100B5
:10029800B00027302000E10061082200BC002830AF
:1002A8002000E10061082200C40029302000E1009C
:1002B80061082200CC0025302000E10061082100FF
:1002C800B80026302000E10061082100C0002A3073
:1002D8002000E10061082100D0002B302000E1005F
:1002E80061082100C800BB2934302000DB008830B9
:1002F800DC00253084008830850000088D31A52574
:1003080080313C302000DB008830DC00263084005F
:100318008830850000088D31A52580312C302000DB
:10032800DB008830DC002430840088308500000839
:100338008D31A5258031BB2923002C08003A0319EB
:10034800CE28013A0319D128033A0319CE28013AD5
:100358000319D428073A03191729013A0319472919
:10036800033A031978290A3A0319D128BB2920002E
:10037800111CBB2911100130E10061082300AC07F2
:100388000E302C02031CC9280B17200093112100E2
:10039800931528001E15640020005708E100610825
:1003A8002300AF002F0820005A0623002F05200045
:1003B800E10061082300AB002F082000E10061087C
:1003C800DA002300AB1EEA29200046152300AB1FE4
:1003D800F4292F1FF2292000C615F42920004614FD
:1003E80023002B1FFE29AF1FFC292000C615FE295C
:1003F8002000C6142000461E032A46124614C61EB4
:10040800072AC612C6144608031D4815C61D162A13
:10041800C6115603031D162A581C142A5810152AEB
:100428005814C714461DEF2A46114714CF2A023024
:10043800E1006108D600BC01BD01EF2A0530E100EA
:100448006108D600B030CE000030912A0330E100B8
:100458006108D600C101C201EF2A0430E100610839
:10046800D600B201B301EF2AD030CE000030CF0061
:100478000530BF2A0630BF2A0730BF2A0830E100FE
:100488006108D600AD012D30592A0830E100610815
:10049800D6002100E601E630582A0830E10061085C
:1004A800D6002100EB01EB302000E1006108D30009
:1004B800EF2AD601D60AEF2A3C0884000A30040243
:1004C80003185D2A89310435C23E8200EF2A4108AB
:1004D8000319932A0530E1006108D6004108E100BC
:1004E8000330E135890B752AF8306107E2003C30AA
:1004F8006207E3006308CE000130912A0530E1006D
:100508006108D600B830CE000030912A0530E100ED
:100518006108D600C030CE000030CF00EF2A02308C
:10052800BF2A5408860087010108003A0319932A54
:10053800013A0319822A033A03198A2A932AEF2ACD
:1005480053088600870101080319AF2A530886005B
:100558008701413FC12A530886008701423FC12ACB
:100568000230E1006108D500EF2A4E0886004F08E6
:10057800870041310108E1006108D600EF2A023006
:10058800E1006108D60058114814EF2AD501D601B8
:10059800D60AC715EF2A5608013A03191B2A033A47
:1005A8000319602A013A03196B2A073A0319952A95
:1005B800013A0319B92A033A0319C32A013A03195C
:1005C800B42A0F3A0319A42A033A0319CB2A063A84
:1005D8000319CA2AEF2A55080319FC2A0D305606B2
:1005E8000319FC2A0D30E1006108D600C701471441
:1005F800471C4B2B4710C714412BD830CE00003076
:10060800CF00D8104B2B3C30172B4130172B3230F2
:10061800172BC830CE000030CF005815C8154B2B0B
:10062800B701B8013730E1006108D4004B2BD8146A
:10063800481447164B2B8C31D824803101002000F8
:10064800D8144814382B1030840088308500003FB7
:10065800CC00013F362B1230840088308500003FE3
:10066800CC00013FCD004B2B5508013A0319272B2D
:10067800033A03192F2B4B2B4B2B560884000E30B3
:10068800040203184B2B893104358C3E82008B13EE
:10069800C71D572BC7110030C9000030CA000030F1
:1006A800CB00D201842B49304B02031D612B3E3015
:1006B8004A02031D612B00304902031C852B0030C0
:1006C800E1003E30E2004930E3006108C9026208F7
:1006D800CA3B6308CB3B2408E100E201E135E20DA7
:1006E8000130E3006308D2076208803A803C031DAA
:1006F8007F2B61085202031C832B2000D2012000AB
:10070800C8148B17481D972B48115808031D972BA1
:100718002608E1006108D1007C309B001B362600CA
:10072800980020001C15C81CBD2BC8105808031DB4
:10073800BD2B5108031DBD2B2508E1006108D00021
:100748005208031DA92B2808B02B24085206031DA4
:10075800AF2B2908B02B27089B001B08E1002A0AA9
:10076800B62BE136890BB52B6108260098002000CE
:100778001C15C81DC72BC8118D309B001B362600C1
:10078800980020001C15481CCD2B4810D001D10121
:100798001C11471E992C47128B132300AD01200012
:1007A800C715C7146430E1006108D9001F2C203038
:1007B8008E319D2680312000E10061082300AD00C4
:1007C8002000D901D90A2D2C20308E319D26803168
:1007D8002000E10061082300AD0008308400883063
:1007E8008500003F2000CC00013F1D2C20308F31B8
:1007F8005F2780312000E10061082300AD000C3044
:10080800840088308500003F2000CC00013F1D2C6B
:1008180020308F315F2780312000E10061082300FC
:10082800AD000A30840088308500003F2000CC00ED
:10083800013FCD002D2C5608003A0319DB2B093A4D
:1008480003190C2C033A0319E82B013A0319FA2B64
:100858002D2C2108E1000430E136890B302C610889
:10086800143E840088300318013E85000008E20029
:1008780062082200AB00200021080F39143E8400D2
:1008880088300318013E85000008E1006108220055
:10089800AC0020002008E1000430E136890B512C1F
:1008A8006108143E840088300318013E8500000862
:1008B800E20062082200B200200020080F39143E2E
:1008C800840088300318013E85000008E1006108B3
:1008D8002200B30023002D082000E1000430E13697
:1008E800890B732C6108143E840088300318013E7C
:1008F80085000008E20062082200B90023002D08E4
:100908000F39143E840088300318013E8500000822
:100918002000E10061082200BA0023002D08031915
:10092800982C2000D501D50A8B172000461CF92CDD
:100938004610EC2C54088600870101080319F92C8D
:1009480054088600870101308102540A8600870115
:1009580001080319BF2C540A86008701013081025F
:10096800BF2C53088600870101080319F92C530886
:10097800860087018101C714F92C4E0886004F08AC
:1009880087000108860087014E0884004F0885000B
:100998000231000801060319F92C0130E1004E0864
:1009A80086004F08870001088600870161088107D3
:1009B8004715F92CE73022060330031923060319DB
:1009C800EA2C0130A2070030A33D4715C715F92CC2
:1009D8005608FF3E031CF92C840008300402031853
:1009E800F92C89310435D63E8200C61C5D2DC6100F
:1009F800502D5408023E8600870154088400850162
:100A08000008010603195D2D0130E1005408860035
:100A1800870161088107540A860087010108031DC0
:100A2800282D0130E100540A8600870161088107FA
:100A3800282D5308860087010108031D5D2D5308E2
:100A4800860087018101810AC7145D2D4E08860042
:100A58004F0887000108860087014E0884004F0868
:100A6800850003310008010603195D2D4E08860034
:100A78004F08870001088600870101308102471569
:100A88005D2D2203230403194E2D0130A2020030EC
:100A9800A33B4715C7155D2D5608FF3E031C5D2D6A
:100AA80084000830040203185D2D89310435E63EC0
:100AB8008200C71CFB2EC710ED2E540A8600870142
:100AC8000108E100E201E109E209E10A0319E20A89
:100AD80054088600870101086107E30062080318CB
:100AE800620AE400E335E40D5408033E86008701FA
:100AF800403FE500413FE60063086507860064085B
:100B0800663D8700403FDB00413FDC0081308D318E
:100B1800CF2580312000540A860087010108E100B2
:100B2800E201E109E209E10A0319E20A5408860030
:100B3800870101086107E30062080318620AE400FC
:100B4800E335E40D6308023EE5000030643DE6004D
:100B58005408033E86008701403FE700413FE80014
:100B68006508670786006608683D8700403FDB0028
:100B7800413FDC00C1308D31CF2580312000540A3F
:100B880086008701540884008501000801060319BE
:100B9800D92D25308400883085000008E1006108DF
:100BA800DB008F308C31E02480312000540A86002D
:100BB80087015408023E8400850100080107E1000E
:100BC800E201E20D6108FF3EE300FF30623DE40010
:100BD8005408860087010108630664040319002E7F
:100BE80026308400883085000008E1006108DB00B9
:100BF800CF308C31E0248031243084008830850067
:100C080000082000E1006108DB00540A8600870123
:100C180001082A3E840088300318013E8500000838
:100C28008C31E0248031FB2E20004E0886004F08CE
:100C380087004431403FDB00413FDC0080308D318C
:100C4800CF25803120004E0886004F0887004631A6
:100C5800403FDB00413FDC00C0308D31CF25803183
:100C6800200056030319581C452E02308400883092
:100C78008500003FDD00013FDE008A308D313E25D2
:100C8800803120004715FB2E3735A03E86008701AE
:100C9800403FDB00413FDC0080308D31CF25803183
:100CA80007302000E1006108F40037088D31122573
:100CB8008031203E2000DD000130DE008A308D3199
:100CC8003E25803120003735023EA03E8600870150
:100CD800403FDB00413FDC00C0308D31CF25803103
:100CE80007302000E1006108F4003708013E8D312B
:100CF80012258031203E2000DD000130DE00CA30A0
:100D08008D313E258031FB2E0430840088308500EB
:100D1800003F2000DB00013FDC008D308D31CF2506
:100D280080310630840088308500003F2000DB00D9
:100D3800013FDC00CD308D31CF25803120005308B4
:100D4800033E86008701403FDD00413FDE008030E2
:100D58008D313E258031243084008830850000089C
:100D68002000E1006108DB005308860087010108C4
:100D78002A3E840088300318013E850000080C389C
:100D88008C31E0248031FB2E20004C08DB004D081C
:100D9800DC0080308D31CF258031C0308D31242565
:100DA8008031FB2E0E30840088308500003F200003
:100DB800DB00013FDC0080308D31CF258031200001
:100DC8004C08DB004D08DC00C0308D31CF25803168
:100DD800FB2E20005608FF3E031CFB2E84000D301E
:100DE80004020318FB2E89310435A83E8200200036
:100DF800471DCF2947113D30E10061082300A000BD
:100E080020302000E10061082300A100492F2000C4
:100E180023082300A800200022082300A700522F3F
:100E2800AB1F2E2F2B08E100E201E11BE203E109D1
:100E3800E209E10A0319E20A61082300A700200079
:100E480062082300A8002D302000E100610823007B
:100E5800A100522F20002B082300A700A801A71BE0
:100E6800A803522F20004E0886004F08870001086B
:100E7800860087010108E100E20161082300A7005C
:100E8800200062082300A800522F20005608013ACB
:100E980003190B2F073A0319142F362F2300A60125
:100EA800B001033030020318D22F30302000E100A7
:100EB80061082300AA003008273E84008830031800
:100EC800013E850000082000E10061082300A90018
:100ED80029082000E100E201620823002802031D1E
:100EE800792F2000610823002702031C8D2F290871
:100EF8002000E100E20161082300A7022000620847
:100F08002300A83B01302000E10061082300AA0764
:100F18006C2F2608031D982F31302A020318982FAA
:100F280002303006031DA92F2A082000E100230003
:100F38003008023EA03E860001308700200061088C
:100F480081002300A601A60AC82F3008013EA03E52
:100F580086000130870001082000E10023003008E6
:100F6800023EA03E86000130870020006108810013
:100F78002030E10023003008013EA03E8600013009
:100F8800870020006108810001302000E10061082D
:100F98002300B00703303002031C592FA030200073
:100FA800DD000130DE00CB308D313E258031E12F70
:100FB80020002B0821009800CF2920005608063A67
:100FC8000319DC2FCF29CF29F5002000931CE92F26
:100FD800750822008D0074080319F42F8C14F52F5E
:100FE8008C100C14000022000C1028009501200021
:040FF800931008004A
:10100000D434883428348934843489348834893415
:10101000443489345D3489347A3488346034883493
:101020003D348934FC348834303431343234333410
:101030003434353436343734383439344134423446
:101040004334443445344634003401340234643487
:101050000A3401348034C034103418341C341E3443
:101060001C34183410340034003404340E341F346B
:1010700000340034003400340034003400340034D0
:101080001F340E3404340034413464346A342E3452
:1010900020344434753472346134743469346F34B8
:1010A0006E34003443346F346E34663469346734DC
:1010B000753472346134743469346F346E3400348E
:1010C0004534723472346F34723420346F346E3479
:1010D00020342E342E342E340034413464346A34B7
:1010E0002E34203450342D345734693464347434FD
:1010F0006834003449346E3469347434693461348A
:101100006C3469347A3465346434003443346C3478
:10111000693463346B34203453346F3475346E3433
:1011200064340034503475346C3473346534203492
:101130005734693464347434683400344534723458
:1011400072346F347234203443346F346434653411
:10115000003452344F344D3420344F3466346634C6
:101160007334653474340034533461347634653404
:10117000203443346F3475346E3474340034423464
:10118000653461347434203443346F3475346E34D0
:10119000743400344B3465347934203453346F3430
:1011A00075346E34643400344D34653474347234C0
:1011B0006F346E346F346D346534003441346434CC
:1011C0006A342E34203454346F346E346534003431
:1011D0004F34733463342E342034543475346E34C5
:1011E00065340034413464346A342E342034543449
:1011F00075346E346534003449346E347434653477
:101200007234723475347034743400343C342034A5
:10121000523465347434753472346E3400344B3463
:1012200065347934203442346534653470340034A4
:101230005234653473346534743420343F340034AC
:10124000563465347234733469346F346E34003418
:1012500023344D34753474346534233400344C34C1
:101260006F346134643420343F3400345334613497
:101270007634653420343F340034453445345034BA
:1012800052344F344D3400344C346F346134643450
:1012900065346434003454346F346E34653430341F
:1012A000003454346F346E34653431340034543483
:1012B0006F346E34653432340034533461347634F0
:1012C00065346434003443346C34693463346B34CF
:1012D0000034543465346D3470346F340034523417
:1012E000653473346534743400344C346F34613491
:1012F0006434003453346134763465340034493412
:101300006E3466346F3400344E346F34203400341D
:10131000593465347334003483311B2B8331012BF2
:101320008331072B8331092B83310B2B83314B2BDB
:1013300083310D2B8331142B83314B2B83311B2BAA
:1013400083311B2B83311B2B83311F2B8331232BA9
:101350008631182E8531612D8531612D8531612DC4
:101360008631182E8631182E8631482E8631882EE9
:101370008631C82E8631C82E8631C82E8631FB2E86
:101380008631D62E82315D2A8231222A82312A2A62
:101390008231312A8231382A82313E2A8231422AF0
:1013A0008231492A8231402A8231512A8431DE2C0D
:1013B00084319E2C84319E2C84319E2C8431C12C0E
:1013C0008431C12C84319E2C8431B52C8531452D3E
:1013D0008431FD2C8431FD2C8431FD2C85312A2D66
:0C13E00085312A2D8431FD2C85311D2D16
:10199800FE0012001E00FE0BCD2C003464008001F6
:1019A8000131890BD32C003480308D3124258C31C2
:1019B800C0308D31242508002000DC00F4015C08CB
:1019C8008731E8278C31F401F40A20005B0887315D
:1019D800E8270800F5002300920175089100951387
:1019E80074080319F92C1517FA2C1513151400008F
:1019F8000000230013080800F50023009201750871
:101A0800910094017408930055309600AA3096000E
:101A180095142000121E0D2D121208002000DC0063
:101A2800DB015C1C1B2D7408F5007508DB0703102F
:101A3800F40D0310DC0C5C08031D152D5B08080071
:101A48002000DC00F4015C08F0398731E8278D318B
:101A58002000DD0110305D0603190800F401F40AC6
:101A680020308731E8278D3101302000DB005B080A
:101A7800DD072E2D2000E000F40160088731E827FB
:101A88008D3120005D0884005E088500120003196E
:101A98000800F401F40A20005D0884005E0885004F
:101AA80000088731E8278D3101302000DD0700303C
:101AB800DE3D452D2000DE00F4015E081C3920388B
:101AC8008731E8278D31F40120005B080C3908388C
:101AD8008731E8278D31F40120005C080739103878
:101AE8008731E8278D31F40120005D080339043877
:101AF8008731E8270800003400347834003404348F
:101B08001E341E34F9343E34523401340034003467
:101B180000340A3402342F34893400340034023457
:101B2800E03400340034003402340034003400342B
:101B38000034093454340134003400340334A834F4
:101B480000342000DE00F4015E08DD000230DD35DF
:101B5800FF3E031DAB2D5D353F3940388731E827FF
:101B68008D312000DF0108305F0603190800F401F9
:101B7800F40A5B0884005C08850000088731E827C0
:101B88008D3101302000DD005D08DF070130DB0703
:101B98000030DC3DB72D2000DE00F4015E08F0398E
:101BA8008731E8278D312000DF0110305F060319E7
:101BB80008005E080F395F02031CF92D5B088400DA
:101BC8005C08850012000319F92DF401F40A5B087A
:101BD80084005C08850000088731E8278D310130D2
:101BE8002000DB070030DC3DFF2DF401F40A203033
:101BF8008731E8278D3101302000DD005D08DF07DF
:101C0800D92D20342D342D342E342D342D34003458
:101C180020342034303478342D342D3400342034BA
:101C28002034303478342D342D34003420342034AA
:101C38003034783430343034003400340334FF34F2
:101C48000034E33488344B34893400340334FF34AB
:101C58000034E33488345134893400340334FF3495
:101C68000034E33488345734893406348934BF3433
:101C78008834DE348834443488346D348834F2341B
:101C88008834753489347A3489347F3489346F34AC
:101C9800893420348934A9348834B43488349E345F
:101CA8008834063489344B34893451348934573470
:101CB8008934003402344034003452348834BF3418
:101CC800883400340434FF340034493488346334AD
:101CD800893400340434FF340034493488340F34F0
:101CE8008934003402341E34E23452348834E834FF
:101CF800883400340234073401345234883492343E
:101D080088340034013400340034D43488346934DD
:101D180089340634893486348834CA3488340034A3
:101D2800093402343634893400340C34023418341B
:101D380089342000DF005F08DB005B08DD008B13BF
:101D4800F40100308C31EE248E312000DB005F0A74
:101D5800860087015B0881005F0A86008701F330EF
:101D68000102031CB92E303008005F080C3E8600C3
:101D780087018101DE010D305E020318EC2EF401AB
:101D88005F0A8600870101085E078C31EE248E31D8
:101D98002000DB005E085D07DC005C088600870128
:101DA8005B0881005E085D07DB005B088600870131
:101DB8000108DC005F080C3E860087015C0881068C
:101DC8000130DB005B08DE070D305E02031CC32E0A
:101DD8008B175F080C3E8600870101080319F62E51
:101DE80020300800003008002100190887397038B1
:101DF8009900FC3099059917C03098051708C13922
:101E08001E3897008B130B13951595121516200085
:101E180095018B120B1118103F309805303098043B
:101E280018119601970111102100111020001C11A2
:101E380087309C0503309C047C309B009A019110EC
:101E48002100911028001711873097051708FC39D1
:101E5800013897004F30960095012000931021001B
:101E6800931028001E1187309E05FC309E056330B4
:101E78009D009C01200093112100931125009E01D3
:101E8800F0309305F0309A05F030260093051A08D3
:101E9800F0390C389A00CF309A053F3025009E055E
:101EA80026009801990123008C018D01E030210062
:101EB8008C008D0108002000E0006008DB005B0852
:101EC800DE00DD018B13F40100308C31EE248F31FC
:101ED8002000DB00600A860087015B088100F401AE
:101EE800600A8600870101088C31EE248F312000BA
:101EF800DB006008860087015B0881000130DB0099
:101F08006008860087015B0881070103031D982F7D
:101F18000D30DB00600A860087015B0881076008D6
:101F2800860087018101810A600A86008701F330F3
:101F38000102031CA42F600A860087018101810A1F
:101F480023001515200060080C3E860087018101DA
:101F5800DF01B32F01302000DB005B08DF070D3005
:101F68005F020318E02F5F085E07DB005B0886004E
:101F780087010108DC005C08F400600A860087011C
:101F880001085F078D3100258F3120005F085E074B
:101F9800DB005B08860087010108DC0060080C3E56
:101FA800860087015C0881062300951DAE2F10303E
:101FB8002000DB005B08DD00600886008701010364
:101FC800031DFB2F23009519FB2F200060088600B6
:101FD8008701413FF40000308D3100258F31230007
:101FE800951DFB2F10302000DB005B08DD0023006F
:081FF80015118B1700300800E1
:020000040001F9
:080000000100010000000000F6
:04000E009CCFFFDAAA
:00000001FF
