:040000008031AE2875
:10000800803120007F08F300931DAA28931142082D
:10001800F0004308F100F2017008DC077108DD3DCB
:100028007208DE3D3A305E02031D202898305D02DA
:10003800031D202800305C02031C4A280030F00011
:100048009830F1003A30F2007008DC027108DD3BAC
:100058007208DE3B4508F0007008E4004408F00030
:10006800F101F035F10D0130F2007208E107710875
:10007800803A803C031D422870086102031C462810
:100088002000E10120006708031969163F30780550
:10009800F00000307905F10070087104031D67282D
:1000A800640803195F280130E402031D5F2867080C
:1000B800031D5F2869176708031967280130E702DD
:1000C800031D672869170130F8070030F93D8030B3
:1000D8007806023003197906031DAA28F801F901E8
:1000E8006B0803197F280130EB02031DAA28691445
:1000F800E915E801E80A0C09E039F0007008EA009F
:10010800EA1B6A1B95280130F0007008D8074030B8
:100118005806031D96283C30F0007008D800651674
:100128009628D8016A1BEA1BA7280130F00070083E
:10013800DA0740305A06031DA8283C30F000700842
:10014800DA00E516A828DA019319010073082000DF
:10015800FF0009008031B028F801F9015830840007
:100168000030850015308D31CC258031E930840090
:1001780087308500413086000030870017308D3188
:10018800C6258031D63084008E308500A0308600A8
:10019800003087004A308D31C62520008031D428B0
:1001A80087318227803120000C09A500E030250521
:1001B800C03A031DE4280F30A5002508E800E5280B
:1001C800E801E9177C309B001B36260098002800C0
:1001D800171520001814BD010E303D020318A4297C
:1001E800640020009601970180291C1598291C118C
:1001F8009829F401F40A00308D31EF258031200070
:10020800A5002508BF003F08A5000430A536890BC6
:100218000A2925083038A60026082100AF0020004A
:100228003F080F393038A50025082100B000F40137
:10023800F40A01308D31EF2580312000A500250812
:10024800BF003F08A5000430A536890B28292508DA
:100258003038A60026082100B20020003F080F39D8
:100268003038A50025082100B30098298E311326BF
:1002780080310030840088308500003FF600013F5F
:10028800F70080308E31A126803121002008F60049
:100298002108F700C0308E31A1268031AE30200011
:1002A800A0000030A100CA308E315726803141307D
:1002B800F6008830F7003530840088308500000863
:1002C8008E31772680314930F6008830F700363095
:1002D80084008830850000088E31772680313930D7
:1002E800F6008830F7003430840088308500000834
:1002F8008E3177268031982920003D08003A03196D
:10030800F928013A0319FB28033A0319F928013A95
:100318000319FD28073A03193A29023A03195B29F8
:100328000A3A0319FB2898292000111C9829111052
:100338000130A5002508BD070E303D02031CF42836
:100348000B1728001E1521009315640020006A0869
:100358006C066A05A5002508BC006A08A5002508E2
:10036800EC00BC1A6515BC1FBE296A1FBD29E5151E
:10037800BE2965143C1FC529EA1FC429E515C529EE
:10038800E514651EC92965126514E51ECD29E51217
:10039800E5146508031DDD29E5292030A500250899
:1003A800E7007C309B001B362600980020001C15B7
:1003B800E5296808073A0319E5290F3A0319E529D9
:1003C800D129E91F7E2AE9138B13BE01FD29E80113
:1003D800E80A691441308F3120278031F8296914DF
:1003E80041308F31722780312000A5002508BE00DA
:1003F8000B2A6808003A0319EB290B3A0319F42968
:10040800063A0319EE29023A0319F3290B2AE915CA
:100418008D31C12580312000A5002508BA003A0891
:10042800A5000430A536890B162A2508243E840029
:1004380088300318013E85000008A6002608210020
:10044800B80020003A080F39243E84008830031889
:10045800013E85000008A50025082100B9002000FC
:100468004108A5000430A536890B372A2508243E03
:10047800840088300318013E85000008A60026087D
:100488002100BF00200041080F39243E8400883035
:100498000318013E85000008A50025082100C000BA
:1004A80020003E08A5000430A536890B582A2508E7
:1004B800243E840088300318013E85000008A60009
:1004C80026082100C60020003E080F39243E84007B
:1004D80088300318013E85000008A5002508210082
:1004E800C70020003E0803197D2A1130A500250801
:1004F800E8008B17E51D8C2AE5116803031D8C2A7B
:1005080066080319892AE6018B2AE601E60AE91436
:10051800651D0B2B65116914FE2A2000E801E80A05
:100528000B2B0430EF2A03302000A5002508E80033
:10053800D401D5010B2B0530EF2A0630EF2A0830FD
:10054800EF2A0C30EF2A0A30EF2A0930EF2A0E3052
:10055800EF2A2100660884000A30040203180B2BD6
:1005680089310435D83E82000B2B2000540803192A
:10057800BF2A0730C02A0230AF000030B0002F0871
:10058800F62A4C08031DCA2A0230CB2A0D30B100C6
:100598000030B2003108F62A4C08031DD52A023073
:1005A800D62A0B30B3000030B4003308F62A4C08C2
:1005B800031DE02A0230E12A1030B5000030B600F1
:1005C8003508F62A0230A5002508E8002100E601D2
:1005D800E7010B2B02302000F62A69170230F62AB1
:1005E80069170330A5002508E8000B2BE801E80A85
:1005F800E9150B2B6808FF3E031C0B2B84001130F8
:10060800040203180B2B89310435583E8200200060
:10061800691CF82B6910E914672BE630522B54300B
:10062800522BCC01CD014C30522B69154430A5001A
:100638002508E30040302D2B69154530A500250815
:10064800E300FF302D2B69154630A5002508E3008F
:100658000730A5002508DF00E001F82B69154A30AE
:10066800A5002508E3001E30A5002508DF00E230BC
:10067800A5002508E000E916F82B69155408FF3E87
:10068800473EA5002508E300FF30A5002508DF0048
:10069800E0011C15F82BD001D1015030A500250828
:1006A800E200F82BE915E917FF30A5002508EB0053
:1006B800F82B80308E313D268031C0308E313D267A
:1006C80080310100F82B20006808FF3E031CF82B3E
:1006D8008400103004020318F82B893104359C3E3D
:1006E8008200F82BE51C992BE5106208023E860073
:1006F8008701620884008501000801060319992B07
:100708000130A50062088600870125088107620A72
:10071800860087010108031D982B0130A500620A95
:100728008600870125088107E914651C062C6510D9
:1007380062088600870101080319062C62088600F2
:10074800870101308102620A8600870101080319C6
:10075800B22B620A8600870101308102E914062C57
:10076800651CC42B651003304302E73003194202AD
:100778000318C32B0130C2070030C33D6915E915C2
:10078800E51C062CE5100030430202300319420232
:10079800031CD32B0130C2020030C33B6915E91595
:1007A800062C651CE72B6510630886008701010885
:1007B8005F060319E72B0130A5006308860087014F
:1007C800250881076915E51C062CE51063088600D5
:1007D8008701600801060319062C63088600870153
:1007E800013081026915062C20006808FF3E031CB1
:1007F800062C84000E3004020318062C89310435B7
:10080800BC3E8200E91D472CE9118B130030DC0047
:100818000030DD000030DE00E1014508A5002508B4
:10082800E40069168B17472CE91E652CE91263084A
:10083800860087010108242CE91E652CE9128D30F9
:100848009B001B36422C691E652C69126608031D25
:10085800652C6108031D322C4808392C44086106B0
:10086800031D382C4908392C47089B001B08A50094
:10087800460A3F2CA536890B3E2C250826009800F1
:1008880020001C15652C6808003A0319652C073AE6
:100898000319182C0F3A0319202C033A0319652C55
:1008A800063A0319652C023A0319652C1E3A0319F6
:1008B800652C272C652C632C691F7C2C69131C1153
:1008C8007C2C6808003A03195F2C073A03197C2C22
:1008D8000F3A03197C2C033A03195F2C063A0319C3
:1008E8005F2C023A03195F2C1E3A03195F2C602C07
:1008F800E91CBE2EE910B02E6208033E860087016F
:100908006208840085010008A500620A8400850148
:100918000003FF3A250709070107A60026088600F5
:100928008701403FF600413FF70081308E31A12614
:10093800803120006208033E860087016208840037
:1009480085010008A500620A840085010003FF3ABA
:1009580025070907023E0107A60026088600870129
:10096800403FF600413FF700C1308E31A12680316B
:100978002000620A86008701620884008501000859
:1009880001060319D32C353084008830850000080F
:10099800A5002508F6008F308D31D2258031200042
:1009A800620A860087016208023E84008501000809
:1009B8000107A500A601A60D2508FF3EA700FF30E8
:1009C800263DA8006208860087010108270628043A
:1009D8000319FA2C36308400883085000008A500F9
:1009E8002508F600CF308D31D2258031343084008F
:1009F8008830850000082000A5002508F600620A56
:100A0800860087010108373E840088300318013EBC
:100A1800850000088D31D2258031BE2E1830840023
:100A280088308500003FF600013FF7008D308E3199
:100A3800A12680311A30840088308500003FF600F6
:100A4800013FF700CD308E31A1268031552D12306F
:100A5800840088308500003F2000A000013FA100ED
:100A680080308E3157268031612D143084008830D3
:100A78008500003F2000A000013FA10080308E319A
:100A880057268031612D1630840088308500003F5C
:100A98002000A000013FA10080308E315726803110
:100AA800612D200068080A3A0319392D063A0319FE
:100AB8002B2D023A0319472D612D343084008830DC
:100AC800850000082000A5002508F600620A8600B7
:100AD80087010108373E840088300318013E8500ED
:100AE80000080C388D31D2258031BE2E00308400AC
:100AF80088308500003FF600013FF70080308E31D6
:100B0800A12680310430840088308500003FF6003B
:100B1800013FF700C0308E31A126803120006608E1
:100B28000319292E0230840088308500003FA00078
:100B3800013FA1008A308E3157268031292E063098
:100B4800840088308500003FF600013FF7008030C0
:100B58008E31A12680310830840088308500003F1E
:100B6800F600013FF700C0308E31A1268031292ED2
:100B78000630840088308500003FF600013FF7000A
:100B880080308E31A12680310C3084008830850079
:100B9800003FF600013FF700C0308E31A1268031BA
:100BA800292E0630840088308500003FF600013F7A
:100BB800F70080308E31A12680310E3084008830D5
:100BC8008500003FF600013FF700C0308E31A126B6
:100BD8008031292E0630840088308500003FF600D9
:100BE800013FF70080308E31A1268031103084001B
:100BF80088308500003FF600013FF700C0308E3195
:100C0800A1268031292E0630840088308500003FD7
:100C1800F600013FF70080308E31A12680310A307E
:100C2800840088308500003FF600013FF700C0309F
:100C38008E31A1268031200054082F3EA5002508BA
:100C4800F600C5308D31D225803120006915BE2EC1
:100C58005035A03E86008701403FF600413FF7002F
:100C680080308E31A126803107302000A50025086C
:100C7800F40050088D31DE258031AE3E2000A00002
:100C88000030A1008A308E3157268031200050353F
:100C9800023EA03E86008701403FF600413FF70034
:100CA800C0308E31A126803107302000A5002508EC
:100CB800F4005008013E8D31DE258031AE3E200023
:100CC800A0000030A100CA308E3157268031BE2ED8
:100CD8001C30840088308500003FF600013FF70093
:100CE80080308E31A1268031C0308E313D26803152
:100CF800BE2E1E30840088308500003FF600013F7C
:100D0800F70080308E31A1268031C0308E313D26EB
:100D18008031BE2E2030840088308500003FF600E8
:100D2800013FF70080308E31A1268031C0308E31EE
:100D38003D268031BE2E2230840088308500003F59
:100D4800F600013FF70080308E31A1268031C03097
:100D58008E313D268031BE2E20006808FF3E031CE0
:100D6800BE2E8400113004020318BE2E89310435CA
:100D78007A3E82002000691DA9296911A8308600E1
:100D88000030870029308400003085000630A50037
:100D980016001A00A50BCC2EFC2E4308B9004208F9
:100DA800B800042FCA1FEB2E4A08A500A601A51BF0
:100DB800A603A509A609A50A0319A60A2508B800C5
:100DC8002608B9002D30A5002508AA00042F4A08D6
:100DD800B800B901B81BB903042F6308860087015E
:100DE8000108A500A6012508B8002608B900042FA7
:100DF8006808013A0319D12E093A0319D62EF12EA3
:100E0800B7010230A5002508C0005D2F64300D2F02
:100E18000A30A5002508BB001F2FBB01BB0A1F2FE6
:100E28004008023A03190A2F013A03190C2F073A0E
:100E38000319112F1F2F3B08A500A6012608390208
:100E4800031D282F25083802031C3C2F3B08A5004A
:100E5800A6012508B8022608B93B0130A5004008BC
:100E6800293E8600870125088107B701B70A1F2F89
:100E7800043040060319612F3708031D592F400815
:100E8800FF3E293E860087010108A5004008293E4B
:100E980086008701250881002030A5004008FF3E14
:100EA800293E86008701250881000130A500250814
:100EB800C00705304006031D142F2930A00000305C
:100EC800A100CB308E3157268031782F20004A0878
:100ED8002100762F200063088600870101089B0007
:100EE8001B3626009800A92920006808073A03192C
:100EF8006E2F0F3A03196A2FA929A9292100190869
:100F0800873970389900FC3099059917C0309805D1
:100F18001708C1391E3897008B130B1395159512B6
:100F28001516200095018B120B1118103F309805EB
:100F380030309804181196019701111021001110F2
:100F480020001C1187309C0503309C047C309B00DA
:100F58009A019110210091102800171187309705E8
:100F68001708FC39013897004F309600950120008A
:100F780093102100931028001E1187309E05FC3025
:100F88009E057C309D009C01200093112100931147
:100F980025009E01F0309305F0309A05F0302600C8
:100FA80093051A08F0390C389A00CF309A053F306B
:100FB80025009E0526009801990123008C018D01CA
:100FC800E03021008C008D010800003478340034B2
:100FD800043420340134F9343E34523400340034BB
:100FE8000034003401340034003400340234003456
:100FF800003400340334DE34B0348834FA348834AE
:101008003534893416348934A5348834BF34883467
:101018005634883478348834C43488340134893474
:1010280008348934EA34883450348934543489345F
:101038000F3489342F3489346C348834D834883464
:10104800303431343234333434343534363437345C
:1010580038343934413442344334443445344634E2
:101068000034013402348034C034103418341C3451
:101078001E341C34183410340034003404340E3454
:101088001F34003400340034003400340034003499
:1010980000341F340E3404340034413464346A3468
:1010A8002E342034443475347234613474346934E1
:1010B8006F346E340034413464346A342E3420344E
:1010C80050342D34573469346434743468340034FB
:1010D80049346E3469347434693461346C34693435
:1010E8007A34653464340034503475346C34733471
:1010F80065342034573469346434743468340034C3
:101108004534723472346F347234203443346F345B
:1011180064346534003452344F344D3420344F3401
:10112800663466347334653474340034533461344B
:1011380076346534203443346F3475346E34743403
:1011480000344234653461347434203443346F34A9
:1011580075346E34743400344D34653474347234F8
:101168006F346E346F346D34653400344134643414
:101178006A342E34203454346F346E346534003479
:101188004F34733463342E342034543475346E340D
:1011980065340034413464346A342E342034543491
:1011A80075346E34653400344534523452344F3417
:1011B800523420342134213400343C342034523425
:1011C80065347434753472346E3400345234653492
:1011D80073346534743420343F3400345634653401
:1011E8007234733469346F346E34003423344D34BC
:1011F800753474346534233400344C346F346134BA
:10120800643420343F3400345334613476346534E4
:1012180020343F3400344C346F34613464346534E2
:101228006434003443346F346E346634693467345C
:10123800003454346F346E346534303400345434EC
:101248006F346E3465343134003454346F346E3452
:10125800653432340034533461347634653464345C
:101268000034543465346D3470346F34003452347F
:10127800653473346534743400344C346F346134F9
:10128800643400345334613476346534003449347A
:101298006E3466346F3400344E346F342034003486
:1012A80059346534733400348231E62A8231AD2AE8
:1012B8008231B92A8231EE2A8231EE2A8231EE2A2F
:1012C8008231F42A8231F12A8231EE2A8231D02AFF
:1012D80083310B2B8231C52A83310B2B8231DB2AD8
:1012E8008231FA2A83310B2B8231FA2A85317A2D01
:1012F8008431802C8431802C8531A32D8531BC2DFF
:101308008531D52D8631072E8531EE2D86312C2E4F
:101318008531122D86317D2E8531122D86316C2E28
:101328008531122D86318E2E8631BE2E86319F2E26
:101338008331F82B8331112B8331132B8331192BF4
:101348008331202B8331272B8331412B8331322B5F
:1013580083314F2B8331152B8331572B8331152B39
:101368008331562B8331152B8331F82B83315D2B39
:101378008331B42B8331762B8331762B8331D52B74
:101388008331D52B8331D52B8331D52B8331D52B85
:101398008331762B8331762B8431062C8331762B5F
:1013A8008431062C8331762B8231912A8231952A19
:1013B8008231972A82319F2A8231A12A8231A32A37
:1013C8008231A52A8231A72A8231A92A8231AB2A01
:101B8200F40100308D31EF250800FE0012001E0026
:101B9200FE0BC72D0034640080010131890BCD2D6D
:101BA2000034F700F40177088E3127268D31F401D5
:101BB200F40A76088E3127260800F700F601771C12
:101BC200E62D7408F5007508F6070310F40D0310EE
:101BD200F70C7708031DE02D76080800F5002300B6
:101BE200920175089100951374080319FA2D1517BF
:101BF200FB2D151315140000000023001308080024
:101C0200F500230092017508910094017408930075
:101C120055309600AA30960095142000121E0E2E02
:101C220012120800F40138308E3127268E31F40169
:101C32000C308E3127268E31F40110308E3127265A
:101C42008E31F40106308E3127260800F50020007F
:101C5200931C282E750822008D0074080319332E58
:101C62008C14342E8C100C14000022000C1028004E
:101C720095012000931008002000A000F401200824
:101C8200F0398E3127268E312000A1011030210635
:101C920003190800F401F40A20308E3127268E3110
:101CA2000130F60076082000A107472E2000A3008D
:101CB200F40123088E3127268E312000200884006B
:101CC20021088500120003190800F401F40A20001B
:101CD200200884002108850000088E3127268E31D5
:101CE20001302000A0070030A13D5E2E2000A1009F
:101CF200F4012108A0000230A035FF3E031D7D2E15
:101D020020353F3940388E3127268E312000A201FE
:101D12000830220603190800F401F40A7608840048
:101D22007708850000088E3127268E310130200089
:101D3200A0002008A2070130F6070030F73D892EE7
:101D42002000A100F4012108F0398E3127268E31BE
:101D52002000A201103022060319080021080F39C1
:101D62002202031CCA2E760884007708850012001E
:101D72000319CA2EF401F40A760884007708850054
:101D820000088E3127268E310130F6070030F73DEC
:101D9200D02EF401F40A20308E3127268E31013004
:101DA2002000A0002008A207AB2EF23488348F3422
:101DB20088349A348834843488343D34203430343E
:101DC20030343034003420342D342D342E342D343C
:101DD2002D3400342034203420342D342D34683412
:101DE20000342034203420342D342D34683400342F
:101DF2002034203420343034303468340034E13438
:101E02008834A5348834BA348834513488345F3401
:101E12008834CE34883441348934463489344B345E
:101E220089343B348934E13488341D348934233491
:101E3200893429348934003400340934CA34200006
:101E4200A2002208F6007608A0008B13F4010030ED
:101E52008D31EF258F31F60076082000A100F53094
:101E62002102031C362F3030080022080A3E860069
:101E720087018101A3010B3023060319662FF401A8
:101E8200210823078D31EF258F31F600200023082A
:101E92002007F7007708860087017608810023086B
:101EA2002007F6007608860087010108F70022085D
:101EB2000A3E86008701770881060130F60076081F
:101EC200A3070B302306031D402F8B1722080A3E5F
:101ED2008600870101080319702F203008000030A6
:101EE20008002000A4002408F6007608A100A00142
:101EF2008B13F40100308D31EF258F31F600760817
:101F02002000A200F40122088D31EF258F31F60066
:101F12002000240886008701760881000130F6003F
:101F2200240886008701760881070103031DA22F7A
:101F32000B30F6007608A20724088600870181018B
:101F4200810AF5302202031CA82FA201A20A230053
:101F52001515200024080A3E860087018101A3018D
:101F6200B72F0130F60076082000A3070B302306B6
:101F72000319E12F23082107F6007608860087015E
:101F82000108F7007708F400220823078E310126A2
:101F92008F31200023082107F6007608860087018A
:101FA2000108F70024080A3E8600870177088106A7
:101FB2002300951DB22F1030F60076082000A000F5
:101FC2002408860087010103031DFB2F23009519B6
:101FD200FB2F20002208F6007608F40000308E3134
:101FE20001268F312300951DFB2F1030F600760855
:0E1FF2002000A000230015118B1700300800FE
:020000040001F9
:080000000100010000000000F6
:04000E009CCFFFDAAA
:00000001FF
