:1000000064002500030A070C2400130C19092209B7
:100010003300230934002409350025093600260958
:100020003700270938002809390029093A006400F7
:100030008C0B04006000A40284011F0E430600081C
:1000400084011A0A1C0810080808000800080008A3
:06005000000800086B0B24
:1002D6003B001B023F001F02F101770C3F001F028B
:1002E600710191030F0E3F00BF0211020F0E3C0079
:1002F600070CDC01240000023E00830B03043E03CE
:10030600FF02810B1E070008010C3F001F02F001CF
:1003160000081F0C0200000C0600000C050012026B
:10032600070E2500130CC501240000023F00070C30
:10033600C50124001F022000000226006505C00C2E
:10034600210001024306A90B0000A40B010C3F008B
:100356001F02F2014307920B650071007106920BB2
:1003660011020F0E3C00130CDC01240060006F002C
:10037600AF020F0C3F001F027101F106FA0B70006D
:10038600010C2A09160C2A09010C2A09010C2A0952
:10039600660C2A09010C2A09010C2A09160C2A09DD
:1003A600010C2A09030C90014306E90B0F023F00DA
:1003B60011020F0E3C00070CDC01240000025F0155
:1003C6004306F30B040C90014307F30B0F023F00A7
:1003D60011020F0E3C00130CDC0124001F02200149
:1003E60003046F03100C3F001F02F101C00B010C48
:0803F6003F001F02F101B10BF1
:021FFE00FAFFE8
:00000001FF
