:1000000064002500030A070C2400120C19092209B8
:10001000320023093300240934002509350026095C
:1000200036002709370028093800290939006400FB
:100030008C0B04006000A40284011F0E430600081C
:1000400084011A0A1C0810080808000800080008A3
:06005000000800086B0B24
:1002D6003A001A023F001F02EF01770C3F001F028F
:1002E6006F018F030F0E3F00BF020F020F0E3C007F
:1002F600070CDC01240000023E00830B03043E03CE
:10030600FF02810B1E070008010C3F001F02F101CE
:1003160000081F0C0200000C0600000C050010026D
:10032600070E2500120CC501240000023F00070C31
:10033600C50124001F022000000226006505C00C2E
:10034600210001024306A90B0000A40B010C3F008B
:100356001F02F0014307920B65006F006F06920BB8
:100366000F020F0E3C00120CDC012400600070002E
:10037600B0020F0C3F001F026F01EF06FA0B71006F
:10038600010C2A09160C2A09010C2A09010C2A0952
:10039600660C2A09010C2A09010C2A09160C2A09DD
:1003A600010C2A09030C91014306E90B10023F00D8
:1003B6000F020F0E3C00070CDC01240000025F0157
:1003C6004306F30B040C91014307F30B10023F00A5
:1003D6000F020F0E3C00120CDC0124001F0220014C
:1003E60003047003100C3F001F02EF01C00B010C49
:0803F6003F001F02EF01B10BF3
:021FFE00FAFFE8
:00000001FF
