:0400000080317128B2
:10000800803120007F08F7000B1D14280B110C0904
:100018003339F6007608DB000130F6007608D3079E
:100028000B1C6E280330580603196E2827009311FD
:1000380020005808031D2828D801D80A5D30F6008A
:100048007608EB005A142928DA14F0010730F60074
:100058007608F1005D308F31A6278031003A031908
:100068003A280830F600760820006D28F801F80ACA
:10007800F9010730790203185F2820006708031D7B
:10008800492803307906031957287908643E860001
:10009800870179085D3E840085010008010603197F
:1000A8005728F8015F280130F6007608F90707306D
:1000B8007902031C41287808031967280430F600E0
:1000C80076082000D8002000DD1F6E280830F600D2
:1000D8007608D8007708FF00090080317328FA01F4
:1000E8004B3084000030850021308E316E268031FF
:1000F800643084008E3085006C30860000308700C4
:1001080004308E3168268031EA30840086308500DC
:10011800A03086000030870016308E316826200017
:10012800803196288731BF2780310F302C00980006
:100138009701191307302000A9007D30A800A80BEB
:10014800A328A90BA3288E318226803131302000C4
:10015800A3008730A40000308F31082780316D302C
:100168002000A3008730A40080308F3132278031EF
:1001780010302000A8002808A0000730A90029088E
:10018800A10064308631892680318B168B1164007A
:1001980020005B085C06A8002808C30043085B052C
:1001A800A8002808C9005B094305A8002808C00062
:1001B8005B08A8002808DC00C91CE7285B1CE628A7
:1001C8005715E7285714491CEE28DB1CED2857154E
:1001D800EE28D714C91AD715491A5716401A5717AF
:1001E800D71E0929D7125A1401295D308F31682783
:1001F80080312000D801D80A09295808033A031980
:10020800F928063A0319FE280929D71D4329D711C9
:100218003229D801D80A30295608031D202906306A
:10022800A8002808D6002D30D1008730D2006B08EE
:10023800A8002808D4002A290130D6020430D102A7
:100248000030D23B0130A8002808D407D301432945
:100258000230A8002808D8005A1443295808023A3E
:1002680003190D29013A03191029063A031910290F
:10027800033A03192C29013A03192C294329571E3B
:10028800B12957129F290230A8002808D8005D30EC
:10029800A8002808EB00D901D5019A29063056068E
:1002A800031D6129D6011530D1008730D2006B08B3
:1002B800063EA8002808D4006B290130A8002808A9
:1002C800D6070430D1070030D23D0130D402D30123
:1002D800B1290330A8002808D8005D3078290530F6
:1002E800A8002808D8006430A8002808EB001530BA
:1002F800D1008730D2006B08063EA8002808D40039
:100308009A29063088290730A8002808D8009A2991
:100318005908003A03196D29013A03197329033A58
:1003280003198529013A031987299A295A14B129E9
:100338002C001917B12920005808013A0319472938
:10034800033A03198C29013A03195229063A031969
:100358005229033A03199C29B1292000571FBF29A4
:100368005713B9292C001913BF2920005808063A39
:100378000319B629BF292000571D7B2A5711C82900
:10038800D801D80A5A147B2A5808043A0319C429F0
:100398007B2A7B2A571CDC29571059080319D629B0
:1003A8000130D90255080319DB290130D5025A1446
:1003B800D71C892AD710033059060319E7290130B9
:1003C800A8002808D90755030319EE290130A80009
:1003D8002808D5075A14892A571C2C2A571054085C
:1003E800860087015208A9005108A8000230280792
:1003F800840029080318290A850000080106031D3E
:10040800182A5208A9005108A800033028078400B8
:1004180029080318290A85000008AA00540886003C
:1004280087012A0881002B2A5408860087010F308B
:100438000105A80009302806031D242A0730252AAB
:100448000130A80054088600870128088107DA14BB
:10045800D71C892AD7105408860087015208A9009A
:100468005108A80003302807840029080318290A1E
:10047800850000080106031D542A5208A9005108E6
:10048800A80002302807840029080318290A8500D3
:100498000008AA005408860087012A088100792AE2
:1004A80054088600870101080F39031D602A540883
:1004B800860087010730642A5408860087010130C6
:1004C8008102792A571C712A57101B0A0319702AAE
:1004D8000130A80028089B07DA14D71C892AD710EE
:1004E8001B080319792A01309B02DA14892A580853
:1004F800023A0319CE29013A0319F029063A0319D9
:10050800F029033A0319662A892A5A1C2D2B5A10F6
:100518001F2B80308E31B3268031AC2AC0308E310B
:10052800B3268031FC2A7F302000A3008730A40046
:10053800C930F92A96302000A3008730A400CA30B9
:10054800F92A9D302000A3008730A400CB30F92A77
:1005580020005808013A0319922A023A03199E2AE0
:10056800073A0319972A013A0319A52ABB2AFC2A34
:100578005503FF3A59070907AE3E86008701403FF9
:10058800A300413FA40081308F3132278031200001
:100598005503FF3A59070907023EAE3E8600870118
:1005A800403FA300413FA400C1308F313227803142
:1005B8002000A3015508133E840087300318013E2C
:1005C800850000088E31742680312D2B573020008D
:1005D800A3008730A40080308F31322780317630F5
:1005E8002000A3008730A400C0308F31322780312B
:1005F8002000DA142D2B8730A3008730A400803028
:100608008F31322780318F302000A3008730A4003B
:10061800C8308F31322780312D2B39302000A3008C
:100628008730A40080308F3132278031C0308E313E
:10063800B32680312D2B20005808FF3E031C2D2B9C
:1006480084000830040203182D2B88310435003E3D
:1006580082002000DA1CC22BDA10B02B2B30A80045
:100668002808A0006B088531252580312B30200013
:10067800A8002808A30080308E31EA2680312B306C
:100688002000A8002808A0006B08863114268031B5
:100698002B302000A8002808A300C0308E31EA269D
:1006A80080312000D301C22B6F08BF006E08BE0046
:1006B8006D08BD006C08BC001B08A8000230A836F5
:1006C800890B632B28082C00980020001B08A80021
:1006D8002808C100C201CA0103304A060319A72B22
:1006E8004A08103E840087300318013E8500000840
:1006F800A8002808C40044084102031C902B4408A1
:10070800C1020130A8004A083C3E8600870128083B
:100718008107C201C20A7F2B02304A060319A72BA0
:100728004208031D9F2B2030A8004A083C3E860043
:100738008701280881000130A8002808CA0703306B
:100748004A06031D742B3C30A8002808A300CD30AE
:100758008E31EA268031C22B20005808013A03194D
:10076800322B023A0319322B073A0319322B013A7A
:100778000319322B033A0319582BC22B03302000DC
:1007880058060319CB2B05305806031DCB285308F0
:10079800031DE72B4530A8002808A0005608A9002B
:1007A8002908A1006B0884310424803145302000D9
:1007B800A8002808A30051088400520885000008F2
:1007C8008E31EA268031C03020005306031DCB2825
:1007D8005208A9005108A8000130280784002908F8
:1007E8000318290A85000008AA002A08A30051084E
:1007F80084005208850000088E319A268031CB2863
:100808002000A5002008023E8600870181011A2DDC
:100818002508063E8600870101080F393038A200F6
:10082800200A86008701220881002508063E8600E6
:1008380087010108A2000430A236890B202C220867
:100848003038A300200886008701230881000800AB
:100858002508053E8600870101080F393038A200B7
:10086800200A86008701220881002508053E8600A7
:1008780087010108A2000430A236890B402C220807
:100888003038A3002008860087012308810008006B
:100898002508043E8600870101080F393038A20078
:1008A800200A86008701220881002508043E860068
:1008B80087010108A2000430A236890B602C2208A7
:1008C8003038A3002008860087012308810008002B
:1008D8002508033E860087010135A03E8600870172
:1008E800403FA200413FA30022088400230885005E
:1008F8000008A40020088600870124088100250834
:10090800033E860087010135A03E86008701403FEF
:10091800A200413FA30001302207840023080318E6
:10092800230A85000008A400200A860087012408FD
:1009380081002508033E860087010135A03E860018
:100948008701403FA200413FA300023022078400F4
:1009580023080318230A85000008A4002008023E83
:1009680086008701240881002008033E860087014D
:10097800810108002508023E8600870101080F3919
:100988003038A200200A8600870122088100250845
:10099800023E860087010108A2000430A236890BB6
:1009A800D22C22083038A3002008860087012308AB
:1009B80081000800250A8600870101080F393038B0
:1009C800A200200A8600870122088100250A8600E5
:1009D80087010108A2000430A236890BF02C2208F6
:1009E8003038A3002008860087012308810008000A
:1009F80025088600870101080F393038A200200A2F
:100A080086008701220881002508860087010108E1
:100A1800A2000430A236890B0E2D22083038A3001C
:100A28002008860087012308810008002108840027
:100A3800073004020318080088310435103E82008C
:100A480008002000A4002008103E860087018101CC
:100A58005D30A10020080F3E860087012108810033
:100A68005B30A10020080B3E860087012108810029
:100A78002030A10020080A3E860087012108810055
:100A88002D30A1002008073E86008701210881003B
:100A98002D30A1002008043E86008701210881002E
:100AA8002408033E860087010135A03E86008701A1
:100AB800403FA100413FA2000230210784002208E4
:100AC8000318220A85000008A30020080E3E8600AD
:100AD8008701230881002408033E86008701013529
:100AE800A03E86008701403FA100413FA20001309F
:100AF8002107840022080318220A85000008A300A1
:100B080020080D3E86008701230881002408033E43
:100B1800860087010135A03E86008701403FA1007D
:100B2800413FA20021088400220885000008A30094
:100B380020080C3E86008701230881002408043E13
:100B48008600870101080F393038A1002008093EC6
:100B580086008701210881002408043E8600870159
:100B68000108A1000430A136890BB72D21083038BF
:100B7800A2002008083E8600870122088100240878
:100B8800053E8600870101080F393038A10020088A
:100B9800063E86008701210881002408053E86005C
:100BA80087010108A1000430A136890BD82D21083E
:100BB8003038A2002008053E8600870122088100FF
:100BC8002408063E8600870101080F393038A10045
:100BD8002008033E86008701210881002408063E7C
:100BE800860087010108A1000430A136890BF92D80
:100BF80021083038A2002008023E8600870122081A
:100C080081003030A100200A860087012108810078
:100C18003230A100200886008701210881000800E1
:100C28002000A3002008083E8600870181013A3091
:100C3800A1002008053E86008701210881003A307E
:100C4800A1002008023E86008701210881002308B0
:100C58008600870101080F393038A1002008073EB7
:100C68008600870121088100230886008701010882
:100C7800A1000430A136890B3E2E21083038A2008D
:100C88002008063E8600870122088100230A860084
:100C9800870101080F393038A1002008043E86007A
:100CA800870121088100230A860087010108A10025
:100CB8000430A136890B5D2E21083038A2002008A7
:100CC800033E86008701220881002308023E860031
:100CD800870101080F393038A100200A86008701F2
:100CE800210881002308023E860087010108A1002F
:100CF8000430A136890B7D2E21083038A200200847
:100D0800860087012208810008002000A400240032
:100D1800161416188D2E20009111D0302400910041
:100D28002000911D942E91112400161F9D2E013034
:100D3800080020002008240091002000911DA12E09
:100D480091112400161FAA2E023008009614961836
:100D5800AB2ED13091002000911DAF2E91112400AF
:100D6800161FB82E033008002000A5012000210816
:100D780025020318E42EA630A200A20BC12E000003
:100D8800240096159619C62E141CC82E110820008A
:100D9800A20025082407A30023088600870122084B
:100DA80081000130A2002208A50725082106031D9D
:100DB800E02E24009616E22E240096121616BA2E5D
:100DC800240016151619E62E00300800B3348734AF
:100DD800AF348734A7348734A3348734BB3487349B
:100DE800AB348734B73487344A3487346334873430
:100DF8005734873487348734303431343234333499
:100E08003434353436343734383439344134423470
:100E1800433444344534463464340A340134803429
:100E2800C0348234023499340034853402341234A4
:100E3800013488340234313401348C3403340734B7
:100E48000134C034023423340034C33402345934F6
:100E58000034C634023459340034103418341C3485
:100E68001E341C341834103400345234653463345E
:100E780065346934763465342034453472347234D8
:100E88006F347234203421342134003441346434D2
:100E98006A34753473347434203443346C346F34A6
:100EA80063346B340034423475347A347A346534BC
:100EB8007234203454346534733474340034533405
:100EC800653474342034543469346D346534723480
:100ED800003442346F346F34743420342E342E345A
:100EE8002E34003450346534723469346F346434C9
:100EF80020343D34003441344C34453452344D347C
:100F080021342134003456346534723473346934EE
:100F18006F346E340034303430342E34313430345D
:100F280030340034613464346A347534733474345E
:100F38000034743469346D34653472340034573491
:100F4800453444340034543455344534003446343C
:100F58005234493400344D344F344E340034533411
:100F680055344E34003453344134543400345434FA
:100F78004834553400342100190887395838990005
:100F88001908FC39023899008B170B130B128B11B7
:100F98008B1127009215210095111508F839023890
:100FA800950095121516200095018B120B118030B3
:100FB800240094002830950009309200FC3020006D
:100FC8009C0587309C0521009110200091103C3031
:100FD8009B009A011C152C009801970119131912EE
:100FE800991723008C018D018E01333021008C006C
:100FF80050308D008E01080082318D2A8231BC2A42
:1010080082318D2A82318D2A82318D2A8231EA2AD3
:101018008231FF2A8331112B84310C2C84312C2C02
:1010280084314C2C84316C2C8431BE2C8431DE2CE0
:041038008431FC2CD7
:101CC8003034303430340034FE0012001E00FE0B75
:101CD800692E0034640080010131890B6F2E0034B5
:101CE8002000A400A00124088E31CD268E312000CA
:101CF800A001A00A23088E31CD2608002000A001EB
:101D080038308E31CD268E312000A0010C308E3136
:101D1800CD268E312000A00110308E31CD268E3197
:101D28002000A00106308E31CD2608002000A50035
:101D3800A00125088E31CD268E312000A601260867
:101D4800230603190800A001A00A20308E31CD26F1
:101D58008E3101302000A4002408A607A32E2000FD
:101D6800A400A0012408F0398E31CD268E31200040
:101D7800A5011030250603190800A001A00A20308B
:101D88008E31CD268E3101302000A3002308A5070F
:101D9800BD2E2000A2000330A100A10BD12E2000EF
:101DA800220822008E00200020080139A100A10C81
:101DB800A10C22000D08200021067F3921062200EF
:101DC8008D008D16000022008D1208002000A5004D
:101DD800A00125088E31CD268E31200023088600EB
:101DE80087010108031908002000A001A00A2308A0
:101DF8008600870101088E31CD268E310130200002
:101E0800A4002408A307F12E2000A600A00126089C
:101E1800A5000230A535FF3E031D0E2F25353F399D
:101E280040388E31CD268F312000A7010830270693
:101E380003190800A001A00A2308840024088500CB
:101E480000088E31CD268F3101302000A5002508ED
:101E5800A7070130A3070030A43D1A2F2000A600D1
:101E6800A0012608F0398E31CD268F312000A70138
:101E7800103027060319080026080F392702031C0B
:101E88005C2F2308840024088500120003195C2FA6
:101E9800A001A00A230884002408850000088E31C8
:101EA800CD268F3101302000A3070030A43D622FDA
:101EB800A001A00A20308E31CD268F3101302000BC
:101EC800A5002508A7073C2F2000A1002400161410
:101ED80016186C2F20009111D0302400910020009A
:101EE800911D732F91112400161B080091012000E9
:101EF800911D7B2F91112400161B08002000A201C0
:101F0800073022020318A12F22082107A000200869
:101F1800860087010108240091002000911D912F5F
:101F280091112400161B080001302000A000200891
:101F3800A20707302202031C882F24001615161D3D
:101F48000800A32FF400240016141618A92F200047
:101F58009111D030240091002000911DB02F9111D3
:101F68002400161FB92F01300800700891002000C6
:101F7800911DBB2F91112400161FC42F0230080099
:101F880096149618C52FD13091002000911DC92FA5
:101F980091112400161FD22F03300800F501710893
:101FA80075020318FB2FA630F200F20BD92F0000A0
:101FB800240096159619DE2F141CE02F1108F20044
:101FC80075087407F300730886008701720881009A
:101FD8000130F2007208F50775087106031DF72F26
:101FE80024009616F92F240096121616D32F1615CC
:081FF8001619FC2F003008004F
:020000040001F9
:04000E009CEFFFD391
:00000001FF
