:0400000080317128B2
:10000800803120007F08F7000B1D14280B110C0904
:100018003339F6007608DB000130F6007608D3079E
:100028000B1C6E280330580603196E2827009311FD
:1000380020005808031D2828D801D80A5D30F6008A
:100048007608EB005A142928DA14F0010730F60074
:100058007608F1005D308631A6268031003A031912
:100068003A280830F600760820006D28F801F80ACA
:10007800F9010730790203185F2820006708031D7B
:10008800492803307906031957287908643E860001
:10009800870179085D3E840085010008010603197F
:1000A8005728F8015F280130F6007608F90707306D
:1000B8007902031C41287808031967280430F600E0
:1000C80076082000D8002000DD1F6E280830F600D2
:1000D8007608D8007708FF00090080317328FA01F4
:1000E8004B3084000030850021308E314826803125
:1000F8003E3084008E3085006C30860000308700EA
:1001080004308E31422680315C3084008E30850088
:10011800A03086000030870016308E31422620003D
:10012800803196288731BF27803120001B08A8001E
:100138000230A836890B9D2828082C00980020003A
:100148001B080339A8000530A835FF3E031DA82861
:1001580028352C009700191307302000A9007D309E
:10016800A800A80BB528A90BB52804302000A800C2
:100178002808A300A4010230A9002908A500183006
:100188008E31E026803131302000A3008730A40072
:1001980000308F31012780316D302000A300873077
:1001A800A40080308F312B27803110302000A80028
:1001B8002808A0000730A9002908A10064308F3161
:1001C8009F2780318B168B11640020005B085C062A
:1001D800A8002808C30043085B05A8002808C90030
:1001E8005B094305A8002808C0005B08A800280888
:1001F800DC00C91C04295B1C032957150429571462
:10020800491C0B29DB1C0A2957150B29D714C91AB5
:10021800D715491A5716401A5717D71E2629D71225
:100228005A141E295D308F31612780312000D80192
:10023800D80A26295808033A03191629063A031931
:100248001B292629D71D6029D7114F29D801D80A7B
:100258004D295608031D3D290630A8002808D60058
:100268002D30D1008730D2006B08A8002808D400B0
:1002780047290130D6020430D1020030D23B013088
:10028800A8002808D407D30160290230A80028084C
:10029800D8005A1460295808023A03192A29013A41
:1002A80003192D29063A03192D29033A0319492957
:1002B800013A031949296029571ECE295712BC292A
:1002C8000230A8002808D8005D30A8002808EB00F4
:1002D800D901D501B72906305606031D7E29D60156
:1002E8001530D1008730D2006B08063EA8002808D8
:1002F800D40088290130A8002808D6070430D1077F
:100308000030D23D0130D402D301CE290330A800F9
:100318002808D8005D3095290530A8002808D8009D
:100328006430A8002808EB001530D1008730D200CF
:100338006B08063EA8002808D400B7290630A5296E
:100348000730A8002808D800B7295908003A031927
:100358008A29013A03199029033A0319A229013A73
:100368000319A429B7295A14CE292C001917CE2904
:1003780020005808013A03196429033A0319A929E6
:10038800013A03196F29063A03196F29033A031929
:10039800B929CE292000571FDC295713D6292C004C
:1003A8001913DC2920005808063A0319D329DC2937
:1003B8002000571D982A5711E529D801D80A5A1440
:1003C800982A5808043A0319E129982A982A571CA8
:1003D800F929571059080319F3290130D90255088A
:1003E8000319F8290130D5025A14D71CA62AD710A8
:1003F800033059060319042A0130A8002808D90730
:10040800550303190B2A0130A8002808D5075A14E8
:10041800A62A571C492A57105408860087015208F3
:10042800A9005108A80002302807840029080318E9
:10043800290A850000080106031D352A5208A9006B
:100448005108A80003302807840029080318290A3E
:1004580085000008AA005408860087012A08810040
:10046800482A5408860087010F300105A800093082
:100478002806031D412A0730422A0130A8005408E3
:100488008600870128088107DA14D71CA62AD71006
:100498005408860087015208A9005108A8000330B3
:1004A8002807840029080318290A8500000801067E
:1004B800031D712A5208A9005108A8000230280714
:1004C800840029080318290A85000008AA0054088E
:1004D800860087012A088100962A54088600870129
:1004E80001080F39031D7D2A54088600870107304B
:1004F800812A54088600870101308102962A571CF8
:100508008E2A57101B0A03198D2A0130A8002808C3
:100518009B07DA14D71CA62AD7101B080319962A9A
:1005280001309B02DA14A62A5808023A0319EB296B
:10053800013A03190D2A063A03190D2A033A031939
:10054800832AA62A5A1C4A2B5A103C2B80308E31FB
:100558008B268031C92AC0308E318B268031192BE9
:100568007F302000A3008730A400C930162B9630B6
:100578002000A3008730A400CA30162B9D3020002D
:10058800A3008730A400CB30162B20005808013A6E
:100598000319AF2A023A0319BB2A073A0319B42AE6
:1005A800013A0319C22AD82A192B5503FF3A5907C9
:1005B8000907AE3E86008701403FA300413FA400E3
:1005C80081308F312B27803120005503FF3A59079E
:1005D8000907023EAE3E86008701403FA300413F27
:1005E800A400C1308F312B2780312000A30155088A
:1005F800133E840087300318013E850000088E31C1
:100608004E2680314A2B57302000A3008730A400A3
:1006180080308F312B27803176302000A30087303F
:10062800A400C0308F312B2780312000DA144A2BE8
:100638008730A3008730A40080308F312B2780318A
:100648008F302000A3008730A400C8308F312B27BB
:1006580080314A2B39302000A3008730A400803035
:100668008F312B278031C0308E318B2680314A2B39
:1006780020005808FF3E031C4A2B8400083004025F
:1006880003184A2B88310435003E82002000DA1C0A
:10069800DF2BDA10CD2B2B30A8002808A0006B0820
:1006A8008531422580312B302000A8002808A3007E
:1006B80080308E31C22680312B302000A8002808D7
:1006C800A0006B088631312680312B302000A8002D
:1006D8002808A300C0308E31C22680312000D30103
:1006E800DF2B6F08BF006E08BE006D08BD006C08E8
:1006F800BC001B08A8000230A836890B802B2808EC
:100708002C00980020001B08A8002808C100C2017E
:10071800CA0103304A060319C42B4A08103E840054
:1007280087300318013E85000008A8002808C40087
:1007380044084102031CAD2B4408C1020130A80043
:100748004A083C3E8600870128088107C201C20A80
:100758009C2B02304A060319C42B4208031DBC2BEC
:100768002030A8004A083C3E8600870128088100FE
:100778000130A8002808CA0703304A06031D912B38
:100788003C30A8002808A300CD308E31C226803125
:10079800DF2B20005808013A03194F2B023A03199E
:1007A8004F2B073A03194F2B013A03194F2B033AE2
:1007B8000319752BDF2B0330200058060319E82B8B
:1007C80005305806031DE8285308031D042C45303E
:1007D800A8002808A0005608A9002908A1006B084D
:1007E80084312124803145302000A8002808A30046
:1007F800510884005208850000088E31C2268031D5
:10080800C03020005306031DE8285208A9005108EB
:10081800A80001302807840029080318290A850040
:100828000008AA002A08A30051088400520885007D
:1008380000088E3172268031E8282000A5002008A3
:10084800023E860087018101372D2508063E860075
:10085800870101080F393038A200200A8600870175
:10086800220881002508063E860087010108A200AB
:100878000430A236890B3D2C22083038A30020080A
:10088800860087012308810008002508053E8600A8
:10089800870101080F393038A200200A8600870135
:1008A800220881002508053E860087010108A2006C
:1008B8000430A236890B5D2C22083038A3002008AA
:1008C800860087012308810008002508043E860069
:1008D800870101080F393038A200200A86008701F5
:1008E800220881002508043E860087010108A2002D
:1008F8000430A236890B7D2C22083038A30020084A
:10090800860087012308810008002508033E860029
:1009180087010135A03E86008701403FA200413F84
:10092800A30022088400230885000008A4002008EA
:1009380086008701240881002508033E8600870178
:100948000135A03E86008701403FA200413FA30039
:1009580001302207840023080318230A85000008B1
:10096800A400200A86008701240881002508033E88
:10097800860087010135A03E86008701403FA2001E
:10098800413FA30002302207840023080318230AEA
:1009980085000008A4002008023E8600870124087C
:1009A80081002008033E8600870181010800250890
:1009B800023E8600870101080F393038A200200A5C
:1009C80086008701220881002508023E86008701EB
:1009D8000108A2000430A236890BEF2C2208303817
:1009E800A300200886008701230881000800250A43
:1009F8008600870101080F393038A200200A8600D6
:100A0800870122088100250A860087010108A200C3
:100A18000430A236890B0D2D22083038A300200897
:100A280086008701230881000800250886008701C1
:100A380001080F393038A200200A860087012208F1
:100A480081002508860087010108A2000430A2362B
:100A5800890B2B2D22083038A30020088600870137
:100A680023088100080021088400073004020318C5
:100A7800080088310435103E820008002000A400D8
:100A88002008103E8600870181015D30A100200802
:100A98000F3E86008701210881005B30A1002008F5
:100AA8000B3E86008701210881002030A100200824
:100AB8000A3E86008701210881002D30A100200808
:100AC800073E86008701210881002D30A1002008FB
:100AD800043E86008701210881002408033E860021
:100AE80087010135A03E86008701403FA100413FB4
:100AF800A20002302107840022080318220A850078
:100B08000008A30020080E3E860087012308810004
:100B18002408033E860087010135A03E8600870130
:100B2800403FA100413FA200013021078400220874
:100B38000318220A85000008A30020080D3E86003D
:100B48008701230881002408033E860087010135B8
:100B5800A03E86008701403FA100413FA200210836
:100B68008400220885000008A30020080C3E8600A7
:100B78008701230881002408043E860087010108B4
:100B88000F393038A1002008093E86008701210866
:100B980081002408043E860087010108A100043072
:100BA800A136890BD42D21083038A2002008083E30
:100BB80086008701220881002408053E86008701F7
:100BC80001080F393038A1002008063E8600870149
:100BD800210881002408053E860087010108A1003C
:100BE8000430A136890BF52D21083038A2002008E1
:100BF800053E86008701220881002408063E8600FB
:100C0800870101080F393038A1002008033E86000B
:100C18008701210881002408063E86008701010813
:100C2800A1000430A136890B162E21083038A20005
:100C38002008023E86008701220881003030A1008A
:100C4800200A86008701210881003230A10020088F
:100C5800860087012108810008002000A3002008E1
:100C6800083E8600870181013A30A1002008053E30
:100C780086008701210881003A30A1002008023E41
:100C88008600870121088100230886008701010862
:100C98000F393038A1002008073E86008701210857
:100CA80081002308860087010108A1000430A136CD
:100CB800890B5B2E21083038A2002008063E8600EA
:100CC800870122088100230A8600870101080F395D
:100CD8003038A1002008043E8600870121088100E1
:100CE800230A860087010108A1000430A136890B78
:100CF8007A2E21083038A2002008033E860087019A
:100D0800220881002308023E8600870101080F3966
:100D18003038A100200A86008701210881002308B5
:100D2800023E860087010108A1000430A136890B24
:100D38009A2E21083038A200200886008701220850
:100D480081000800F400240016141618A92E2000AB
:100D58009111D030240091002000911DB02E9111E6
:100D68002400161FB92E01300800700891002000D9
:100D7800911DBB2E91112400161FC42E02300800AD
:100D880096149618C52ED13091002000911DC92EB9
:100D980091112400161FD22E03300800F5017108A6
:100DA80075020318FB2EA630F200F20BD92E0000B4
:100DB800240096159619DE2E141CE02E1108F20058
:100DC80075087407F30073088600870172088100AC
:100DD8000130F2007208F50775087106031DF72E39
:100DE80024009616F92E240096121616D32E1615E0
:100DF8001619FC2E003008003034313432343334C4
:100E08003434353436343734383439344134423470
:100E1800433444344534463464340A340134803429
:100E2800C0348234023499340034853402341234A4
:100E3800013488340234313401348C3403340734B7
:100E48000134C034023423340034C33402345934F6
:100E58000034C634023459340034103418341C3485
:100E68001E341C341834103400345234653463345E
:100E780065346934763465342034453472347234D8
:100E88006F347234203421342134003441346434D2
:100E98006A34753473347434203443346C346F34A6
:100EA80063346B340034423475347A347A346534BC
:100EB8007234203454346534733474340034533405
:100EC800653474342034543469346D346534723480
:100ED800003442346F346F34743420342E342E345A
:100EE8002E34003450346534723469346F346434C9
:100EF80020343D34003441344C34453452344D347C
:100F080021342134003456346534723473346934EE
:100F18006F346E340034303430342E34313430345D
:100F280030340034613464346A347534733474345E
:100F38000034743469346D34653472340034573491
:100F4800453444340034543455344534003446343C
:100F58005234493400344D344F344E340034533411
:100F680055344E34003453344134543400345434FA
:100F78004834553400342100190887395838990005
:100F88001908FC39023899008B170B130B128B11B7
:100F98008B1127009215210095111508F839023890
:100FA800950095121516200095018B120B118030B3
:100FB800240094002830950009309200FC3020006D
:100FC8009C0587309C0521009110200091103C3031
:100FD8009B009A011C152C009801970119131912EE
:100FE800991723008C018D018E01333021008C006C
:100FF80050308D008E0108008231AA2A8231D92A08
:101008008231AA2A8231AA2A8231AA2A8331072B5D
:1010180083311C2B83312E2B8431292C8431492C8C
:101028008431692C8431892C8431DB2C8431FB2C6C
:041038008531192DB8
:101C7C003034303430340034FE0012001E00FE0BC1
:101C8C00432E0034640080010131890B492E00344D
:101C9C002000A400A00124088E31A5268E3120003E
:101CAC00A001A00A23088E31A5260800B33487347E
:101CBC00AF348734A7348734A3348734BB348734A8
:101CCC00AB348734B73487344A348734633487343D
:101CDC0057348734873487342000A500A0012508A9
:101CEC008E31A5268E312000A60126082306031965
:101CFC000800A001A00A20308E31A5268E310130BB
:101D0C002000A4002408A6077B2E2000A400A0011C
:101D1C002408F0398E31A5268E312000A501103013
:101D2C00250603190800A001A00A20308E31A52633
:101D3C008E3101302000A3002308A507952E20002A
:101D4C00A2000330A100A10BA92E20002208220022
:101D5C008E00200020080139A100A10CA10C22004A
:101D6C000D08200021067F39210622008D008D16DA
:101D7C00000022008D1208002000A500A0012508FB
:101D8C008E31A5268E31200023088600870101089C
:101D9C00031908002000A001A00A2308860087016F
:101DAC0001088E31A5268E3101302000A4002408B4
:101DBC00A307C92E2000A600A00126081C39203834
:101DCC008E31A5268E312000A00123080C3908384D
:101DDC008E31A5268E312000A00124080739103839
:101DEC008E31A5268E312000A00125080339043838
:101DFC008E31A52608002000A600A0012608A5000B
:101E0C000230A535FF3E031D072F25353F394038DD
:101E1C008E31A5268F312000A70108302706031923
:101E2C000800A001A00A23088400240885000008EB
:101E3C008E31A5268F3101302000A5002508A7077B
:101E4C000130A3070030A43D132F2000A600A001F1
:101E5C002608F0398E31A5268F312000A7011030CD
:101E6C0027060319080026080F392702031C552FD3
:101E7C00230884002408850012000319552FA001A3
:101E8C00A00A230884002408850000088E31A526AA
:101E9C008F3101302000A3070030A43D5B2FA0013F
:101EAC00A00A20308E31A5268F3101302000A500EC
:101EBC002508A707352F2000A1002400161416189A
:101ECC00652F20009111D030240091002000911D2D
:101EDC006C2F91112400161B080091012000911DFC
:101EEC00742F91112400161B08002000A20107304A
:101EFC00220203189A2F22082107A000200886002E
:101F0C0087010108240091002000911D8A2F911156
:101F1C002400161B080001302000A0002008A20796
:101F2C0007302202031C812F24001615161D0800F1
:101F3C009C2F2000A400240016141618A32F200098
:101F4C009111D030240091002000911DAA2F9111E5
:101F5C002400161FB32F0130080020002008240095
:101F6C0091002000911DB72F91112400161FC02F36
:101F7C000230080096149618C12FD1309100200021
:101F8C00911DC52F91112400161FCE2F0330080070
:101F9C002000A5012000210825020318FA2FA630E5
:101FAC00A200A20BD72F0000240096159619DC2F47
:101FBC00141CDE2F11082000A20025082407A30002
:101FCC00230886008701220881000130A200220824
:101FDC00A50725082106031DF62F24009616F82FB9
:101FEC00240096121616D02F240016151619FC2F45
:041FFC0000300800A9
:020000040001F9
:04000E009CEFFFD391
:00000001FF
