:0400000080315128D2
:10000800803120007F08F1000B1D44280B11540893
:10001800031913280130D402031D13284D1601308B
:10002800FA02031D44280A30F0007008FA000C098F
:100038003339F0007008D700D71857183128013025
:10004800F0007008C50740304506031D32283C30D3
:10005800F0007008C500CB143228C5015718D7180E
:1000680043280130F0007008C70740304706031DD9
:1000780044283C30F0007008C700CB154428C7015D
:100088000B1C4E280330550603194E2827009311E0
:1000980020004D147108FF00090080315328FA012F
:1000A800FB01453084000030850023308731F72775
:1000B8008031823084008E308500683086000030C0
:1000C800870004308E3186268031AE3084008E3031
:1000D8008500A03086000030870016308E318626D5
:1000E8002000803177288731B627803120001B080F
:1000F800A0000230A036890B7E2820082C0098002A
:1001080020001B080339A0000530A035FF3E031D61
:10011800892820352C009700191310302000A000E2
:100128002008F2000730A1002108F30060308F3169
:10013800A227803104302000A0002008F500F60135
:100148000230A1002108F70018308631E3268031FB
:100158003130F5008730F60000308F310C278031C0
:1001680020004D14D501D50A5930A0002008E70019
:100178000B118B168B11640020004D1C08294D10A3
:10018800F2010730A0002008F30059308F31A22770
:100198008031003A0319D3280830200005292000AF
:1001A800B9010430593E86008701403F6406031DAB
:1001B800E328413F6506031DE328423F6606031D09
:1001C800FA2862085B06031DEF2861085A06031D1A
:1001D800EF2860085906031DFA2863080319FA284E
:1001E8005C0863060319FA28B901B90ACD1439085D
:1001F800031902290430A0002008D500D91F0829B6
:100208000830A0002008D5005708A0002008C30027
:1002180043085806A0002008BC003C084305A0007D
:100228002008C20043093C05A0002008B800430884
:10023800A0002008D800C2182429CB1C2929CB10DB
:10024800431C28294B1629294B1442182E29CB1D4B
:100258003329CB11C31C32294B1633294B15C21A2B
:10026800CB16421A4B17381A4C144B08031941295C
:100278001430A0002008D400CD15CB1F5629CB136D
:10028800CD144E2959308F31652780312000D50192
:10029800D50A56295508033A03194629063A031977
:1002A8004B295629CB1E9029CB127F29D501D50A77
:1002B8007D295308031D6D290630A0002008D300AE
:1002C8002D30CE008730CF006708A0002008D1006D
:1002D80077290130D3020430CE020030CF3B013001
:1002E800A0002008D107D00190290230A0002008E2
:1002F800D500CD1490295508023A03195A29013A14
:1003080003195D29063A03195D29033A0319792966
:10031800013A0319792990294B1FFC294B13EB2922
:100328000230A0002008D5005930A0002008E700BE
:10033800D601D201E72906305306031DAE29D301A1
:100348001530CE008730CF006708063EA000200891
:10035800D100B8290130A0002008D3070430CE0707
:100368000030CF3D0130D102D001FC290330A0007C
:100378002008D5005930C5290530A0002008D5002F
:100388006030A0002008E7001530CE008730CF008D
:100398006708063EA0002008D100E7290630D529C5
:1003A8000730A0002008D500E7295608003A0319AD
:1003B800BA29013A0319C029033A0319D229013A83
:1003C8000319D429E729CD14FC29D401FC2955089F
:1003D800013A03199429033A0319D929013A03194F
:1003E8009F29063A03199F29033A0319E929FC2989
:1003F8004C1C072A4C10022A4D16072A5508063AA3
:100408000319002A072A4B1ED02A4B120F2AD5019E
:10041800D50ACD14D02A5508043A03190B2AD02A34
:10042800D02A4B1C242A4B10560803191E2A0130C7
:10043800D602CD1452080319242A0130D202CD1451
:100448004B1DE12A4B11033056060319302A01309F
:10045800A0002008D607CD1452030319E12A013061
:10046800A0002008D207CE2A4B1C742A4B10510832
:10047800860087014F08A1004E08A000023020071F
:10048800840021080318210A850000080106031DBD
:10049800602A4F08A1004E08A000033020078400FE
:1004A80021080318210A85000008A20051088600C7
:1004B800870122088100732A5108860087010F30BE
:1004C8000105A00009302006031D6C2A07306D2A9B
:1004D8000130A000510886008701200881074D15CA
:1004E8004B1DE12A4B115108860087014F08A100D6
:1004F8004E08A00003302007840021080318210AB1
:10050800850000080106031D9C2A4F08A1004E081B
:10051800A00002302007840021080318210A850062
:100528000008A20051088600870122088100C12A1C
:1005380051088600870101080F39031DA82A5108B0
:10054800860087010730AC2A5108860087010130F0
:100558008102C12A4B1CB92A4B101B0A0319B82A5D
:100568000130A00020089B074D154B1DE12A4B11B7
:100578001B080319C12A01309B024D15E12A4B1CA7
:10058800C72A4B10CA2A4B1DE12A4B110230A00082
:100598002008D500CD14E12A5508013A0319C32AC9
:1005A800033A0319152A013A0319382A063A031996
:1005B800382A033A0319AE2AE12ACD1DE62ACD11BD
:1005C8002C00191720004D1EEC2A4D122C0019136F
:1005D8002000CD1C8A2BCD107C2B80308E31DB2661
:1005E80080310D2BC0308E31DB2680315B2B76308D
:1005F800F5008730F600C930582B8D30F50087306C
:10060800F600CA30582B9430F5008730F600CB300E
:10061800582B20005508013A0319F62A023A031903
:10062800012B073A0319FB2A013A0319072B1C2B44
:100638005B2B5203FF3A56070907AE3E8600870137
:10064800403FF500413FF60081308F31332780313C
:1006580020005203FF3A56070907023EAE3E8600C5
:100668008701403FF500413FF600C1308F31332705
:100678008031F50120005208133E840087300318AA
:10068800013E850000088E318C2680318A2B573038
:10069800F5008730F60080308F31332780316D3098
:1006A800F5008730F600C0308F31332780312000C5
:1006B8004D158A2B7E30F5008730F60080308F315B
:1006C800332780318630F5008730F600C8308F3107
:1006D800332780318A2B3930F5008730F600803097
:1006E8008F3133278031C0308E31DB2680318A2B21
:1006F80020005508FF3E031C8A2B840008300402A2
:1007080003188A2B88310435003E820020004D1DD5
:100718001F2C4D110D2C2330A0002008F200670873
:1007280085318125803123302000A0002008F50084
:1007380080308E31F226803123302000A00020083E
:10074800F200670886316F26803123302000A00030
:100758002008F500C0308E31F22680312000D0010B
:100768001F2C6B08B7006A08B6006908B50068084E
:10077800B4001B08A0000230A036890BC02B20084B
:100788002C00980020001B08A0002008BA00BB011C
:10079800C401033044060319042C4408103E8400A5
:1007A80087300318013E85000008A0002008BD001E
:1007B8003D083A02031CED2B3D08BA020130A000A7
:1007C8004408343E8600870120088107BB01BB0A24
:1007D800DC2B023044060319042C3B08031DFC2BB8
:1007E8002030A0004408343E86008701200881009C
:1007F8000130A0002008C40703304406031DD12B94
:100808003430A0002008F500CD308E31F22680313A
:100818001F2C20005508013A03198F2B023A03199F
:100828008F2B073A03198F2B013A03198F2B033AA1
:100838000319B52B1F2C0330200055060319282C4B
:1008480005305506031DBF285008031D442C3E30B3
:10085800A0002008F2005308A1002108F30067084F
:100868008431612480313E302000A0002008F5004A
:100878004E0884004F08850000088E31F22680312A
:10088800C03020005006031DBF284F08A1004E08A5
:10089800A00001302007840021080318210A8500E0
:1008A8000008A2002208F5004E0884004F088500C1
:1008B80000088E3198268031BF28F7007208023E62
:1008C800860087018101762D7708063E860087011C
:1008D80001080F393038F400720A8600870174085D
:1008E80081007708063E860087010108F40004307D
:1008F800F436890B7C2C74083038F50072088600B1
:1009080087017508810008007708053E8600870181
:1009180001080F393038F400720A8600870174081C
:1009280081007708053E860087010108F40004303D
:10093800F436890B9C2C74083038F5007208860050
:1009480087017508810008007708043E8600870142
:1009580001080F393038F400720A860087017408DC
:1009680081007708043E860087010108F4000430FE
:10097800F436890BBC2C74083038F50072088600F0
:1009880087017508810008007708033E8600870103
:100998000135A03E86008701403FF400413FF50045
:1009A80074088400750885000008F600720886003F
:1009B8008701760881007708033E860087010135A4
:1009C800A03E86008701403FF400413FF50001301A
:1009D8007407840075080318750A85000008F60076
:1009E800720A86008701760881007708033E860030
:1009F80087010135A03E86008701403FF400413F52
:100A0800F50002307407840075080318750A85001C
:100A18000008F6007208023E860087017608810009
:100A28007208033E86008701810108007708023EAC
:100A38008600870101080F393038F400720A8600F1
:100A48008701740881007708023E86008701010843
:100A5800F4000430F436890B2E2D74083038F50074
:100A6800720886008701750881000800770A8600E9
:100A7800870101080F393038F400720A86008701AF
:100A880074088100770A860087010108F4000430A1
:100A9800F436890B4C2D74083038F500720886003E
:100AA800870175088100080077088600870101081A
:100AB8000F393038F400720A860087017408810003
:100AC8007708860087010108F4000430F436890BA2
:100AD8006A2D74083038F500720886008701750899
:100AE8008100080073088400073004020318080016
:100AF80088310435103E82000800F6007208103E66
:100B08008600870181015D30F30072080F3E860080
:100B18008701730881005B30F30072080B3E860082
:100B28008701730881002030F30072080A3E8600AE
:100B38008701730881002D30F3007208073E860094
:100B48008701730881002D30F3007208043E860087
:100B58008701730881007608033E86008701013506
:100B6800A03E86008701403FF300413FF400023079
:100B78007307840074080318740A85000008F500D8
:100B880072080E3E86008701750881007608033ECC
:100B9800860087010135A03E86008701403FF300AB
:100BA800413FF40001307307840074080318740A85
:100BB80085000008F50072080D3E8600870175085B
:100BC80081007608033E860087010135A03E860035
:100BD8008701403FF300413FF40073088400740824
:100BE80085000008F50072080C3E8600870175082C
:100BF80081007608043E8600870101080F393038E5
:100C0800F3007208093E86008701730881007608A0
:100C1800043E860087010108F3000430F336890B8F
:100C2800122E73083038F4007208083E86008701D7
:100C3800740881007608053E8600870101080F398F
:100C48003038F3007208063E860087017308810079
:100C58007608053E860087010108F3000430F33664
:100C6800890B332E73083038F4007208053E86006D
:100C78008701740881007608063E8600870101080E
:100C88000F393038F3007208033E86008701730875
:100C980081007608063E860087010108F3000430CB
:100CA800F336890B542E73083038F4007208023E6C
:100CB80086008701740881003030F300720A8600CC
:100CC8008701730881003230F300720886008701BB
:100CD800730881000800F5007208083E8600870145
:100CE80081013A30F3007208053E860087017308D7
:100CF80081003A30F3007208023E860087017308CB
:100D0800810075088600870101080F393038F30023
:100D18007208073E860087017308810075088600FF
:100D280087010108F3000430F336890B982E730805
:100D38003038F4007208063E860087017408810086
:100D4800750A8600870101080F393038F3007208E8
:100D5800043E8600870173088100750A86008701B2
:100D68000108F3000430F336890BB72E73083038C6
:100D7800F4007208033E8600870174088100750834
:100D8800023E8600870101080F393038F300720AE5
:100D980086008701730881007508023E8600870176
:100DA8000108F3000430F336890BD72E7308303866
:100DB800F400720886008701740881000800F800B2
:100DC800F20178081C3920388E31C4268631F201A8
:100DD80075080C3908388E31C4268631F201760838
:100DE800073910388E31C4268631F2017708033965
:100DF80004388E31C4260800303431343234333468
:100E08003434353436343734383439344134423470
:100E1800433444344534463464340A340134803429
:100E2800C0348234023499340034853402341234A4
:100E3800013488340234313401348C3403340734B7
:100E48000134C034023423340034C33402345934F6
:100E58000034C634023459340034103418341C3485
:100E68001E341C341834103400345234653463345E
:100E780065346934763465342034453472347234D8
:100E88006F347234203421342134003441346434D2
:100E98006A34753473347434203443346C346F34A6
:100EA80063346B340034423475347A347A346534BC
:100EB8007234203454346534733474340034533405
:100EC800653474342034543469346D346534723480
:100ED800003450346534723469346F3464342034E7
:100EE8003D34003441344C34453452344D3421348B
:100EF80021340034563465347234733469346F34B1
:100F08006E340034303430342E34313430343034AC
:100F18000034613464346A3475347334743400349E
:100F2800743469346D34653472340034573445345C
:100F3800443400345434553445340034463452343F
:100F4800493400344D344F344E340034533455341E
:100F58004E34003453344134543400345434483417
:100F68005534003421001908873958389900190870
:100F7800FC39023899008B170B130B128B118B114C
:100F880027009215210095151508F83902389500A3
:100F980095121516200095018B120B118030240034
:100FA80094002830950009309200FC3020009C0500
:100FB80087309C0521009110200091103C309B0047
:100FC8009A011C152C0098019701191319129917E9
:100FD80023008C018D018E01333021008C005030AC
:100FE8008D008E010800640080010131890BF82F03
:020FF8000034C3
:101000008231F12A83311D2B8231F12A8231F12A7A
:101010008231F12A83314B2B83315E2B83316F2B4D
:101020008431682C8431882C8431A82C8431C82CDC
:0C10300085311A2D85313A2D8531582D5F
:101D04003034303430340034FE0012001E00FE0B38
:101D1400872E0034F600F20176088E31C4268E3107
:101D2400F201F20A75088E31C4260800F700F201A8
:101D340077088E31C4268E31F801780875060319A8
:101D44000800F201F20A20308E31C4268E310130AF
:101D5400F6007608F8079F2EAA348734A634873411
:101D64009E3487349A348734B2348734A234873427
:101D7400AE3487344A3487346334873457348734F1
:101D84007E348734F4000330F300F30BC72E740859
:101D940022008E0072080139F300F30CF30C0D08D5
:101DA40073067F3973068D008D16000022008D1294
:101DB4000800F600F2017608F0398E31C4268E311F
:101DC400F7011030770603190800F201F20A2030F7
:101DD4008E31C4268E310130F5007508F707E32EE5
:101DE400F700F20177088E31C4268E31750886001B
:101DF4008701010803190800F201F20A7508860038
:101E0400870101088E31C4268E310130F600760830
:101E1400F507F82EF800F2017808F7000230F735DC
:101E2400FF3E031D112F77353F3940388E31C426CC
:101E34008F31F9010830790603190800F201F20A1A
:101E4400750884007608850000088E31C4268F3119
:101E54000130F7007708F9070130F5070030F63D47
:101E64001C2FF800F2017808F0398E31C4268F3126
:101E7400F901103079060319080078080F3979023E
:101E8400031C5A2F75088400760885001200031974
:101E94005A2FF201F20A75088400760885000008BA
:101EA4008E31C4268F310130F5070030F63D602FA6
:101EB400F201F20A20308E31C4268F310130F7004E
:101EC4007708F9073B2FF400240016141618682F1E
:101ED40020009111D030240091002000911D6F2F1B
:101EE40091112400161B080091012000911D772FE9
:101EF40091112400161B08007408F2007208F30004
:101F0400F5010730750203189E2F75087307F20058
:101F1400720886008701010891002000911D8F2F0F
:101F240091112400161B08000130F2007208F50715
:101F340007307502031C872F1615161D08009F2FE6
:101F4400F700240016141618A52F20009111D03084
:101F5400240091002000911DAC2F91112400161F24
:101F6400B52F01300800720891002000911DB72F91
:101F740091112400161FC02F0230080096149618E1
:101F8400C12FD13091002000911DC52F9111240043
:101F9400161FCE2F03300800F8017708F4007408E8
:101FA400F600730878020318FB2FA630F400F40B34
:101FB400D92F0000240096159619DE2F141CE02F4B
:101FC4001108F40078087607F50075088600870183
:101FD400740881000130F4007408F8077808730667
:101FE400031DF72F24009616F92F240096121616B7
:0C1FF400D32F16151619FC2F0030080022
:020000040001F9
:04000E009CEFFFD391
:00000001FF
