:020000004D2889
:10000800803120007F08F2000B1D49280B110130B8
:10001800F802031D18280A30F0007008F8000C09CF
:100028002939F0007008D80021009D1845281C08BF
:10003800F4001B08F3009D1420005508031D4428F4
:100048007735A03E86008701403FF000413FF10030
:100058007008D2027108D33B7308D2077408D33DE5
:100068007735A03E860087017308C03F7408C13FFA
:100078000130F0007008F707103077060319F70110
:1000880054160B1D49282000541772082000FF0041
:1000980009004E28F701F80150308400003085002F
:1000A8000A30C624A0308400003085002030C624E1
:1000B800A4308400843085003E30860000308700FC
:1000C8001230CC2420006828532320001C15911CD2
:1000D8006B2887309C0507309B009A0191109B2361
:1000E8000030840083308500003F2000A000013FDD
:1000F800A1008030D7231F302000AA002A08B400AE
:10010800F5010030432405302000AA002A08B80071
:10011800380A0319C3283808AA000230AA35FF3E56
:10012800031D92282A354038AB002B08F500003013
:1001380043242000BC0108303C060319BC283C08B5
:100148000319AA2807303C06031DAC281F30AE2827
:1001580020003408AA002A08F50040304324013062
:100168002000AA002A08BC0708303C06031DA32863
:100178000310B40C0130B802380A031D8F28D601C9
:10018800D60AD4168B162000580859065805AA0016
:100198002A08B7005808AA002A08D900B719541421
:1001A800B71EDB28581CDA28D415DB28D414371CD2
:1001B800E228D81EE128D415E2285415541FEA284D
:1001C80054130430AA002A08D600D416D41DFC28DB
:1001D800D411F72855080319F328D501F528D501B6
:1001E800D50AD416FC285608013A0319EE28FC282B
:1001F800541C53295410D41625292029D601D60A6F
:100208001129D70153290230AA002A08D7005329F7
:10021800D701D70A5329033021295008013A031975
:100228000529033A03190729013A03190C29073A42
:1002380003190F29532953290230AA002A08D60086
:1002480053295608013A03190129033A03190229C7
:10025800013A0319202953295329D41C3F29D410C2
:10026800500803193F290130D002510803193E29CB
:100278000130D102D416541D5829541104305006A7
:10028800031958290130AA002A08D0075103031975
:1002980051290130AA002A08D107D416582956082E
:1002A800023A031931295829D41EF529D412E6290E
:1002B8000230840083308500003FA000013FA10088
:1002C8008030D7238B290430840083308500003F99
:1002D8002000A000013FA1008030D7238B290630E1
:1002E800840083308500003F2000A000013FA1006A
:1002F8008030D7238B2920005708003A03195C293E
:10030800013A03197329033A031967298B29C03065
:10031800892420005508031997294830AA002A087B
:10032800A700C030B62420005416F5295103FF3A1F
:10033800500709073E3E86008701403FA000413F25
:10034800A1008130D72320005103FF3A5007090745
:10035800023E3E3E86008701403FA000413FA1008B
:10036800C130D72307302000AA002A08A700510867
:10037800163E840083300318013E85000008B62429
:10038800F5290830840083308500003F2000A00054
:10039800013FA1008030D72318302000A00083300F
:1003A800A100C030D723F5290A30840083308500A6
:1003B800003F2000A000013FA1008030D723C030BB
:1003C8008924F52920005608013A03197F29033AA0
:1003D80003199A29013A0319C529073A0319D82993
:1003E800F529200056030319541EC7285412483013
:1003F8008600003087002C308400003085000830EB
:10040800AA0016001A00AA0B052A5308BB005208B6
:10041800BA008A2AB9010530390203183D2A390879
:10042800AA00AB01AA35AB0D0C302A078400833033
:100438002B3D8500003FB500013FB60036083B0262
:10044800031D282A35083A02031C382A0130AA005D
:100458003908023E2C3E860087012A0881073508A4
:10046800BA023608BB3B222A0130AA002A08B9077B
:100478000F2A5708031D502A2E08AA002A08AD0083
:100488002F08AA002A08AE002E30AA002A08AF00BA
:100498005630AA002A08B2002C30AA002A08A00068
:1004A800C1306A24C72807302000AA002A08BD00E6
:1004B8003D030319C72803303B02E83003193A0209
:1004C800031C732A0530AA002A08A7003D08C03873
:1004D800B624E8302000BA020330BB3B872AC83074
:1004E800A0000030A1003B08A3003A08A2000E2497
:1004F80020002008AA002A08A7003D08C038B62412
:100508002000BA01BB010130BD025C2A5708003A3D
:1005180003190E2A013A03190E2A033A0319572A16
:04052800C728C728F1
:1006000021348334293483344F3483343134833474
:10061000393483344934833410342734E834033490
:10062000643400340A340034013400348034C0347B
:100630002034303430342E343134313432342034B8
:10064000003442346F346F3474342E342E342E34EC
:10065000003456346F346C34743461346734653428
:10066000003441342F3444342034563461346C34F3
:100670000034563465347234733469346F346E34F4
:1006800000343C34523465347434753472346E340E
:1006900000344534723472346F347234003442346E
:1006A000613472340034210099131908873958389D
:1006B00099001908FC39023899008B170B1315168D
:1006C000951295151508F839023895002000950106
:1006D0000B118B1218101C11FC309C051C0887395B
:1006E00048389C00F9309B009A019110210091102C
:1006F000240094019513151395161508F039083840
:100700009500920122001708FC39023897009717CC
:1007100021001D0883390C389D001D149E178F3051
:100720009E0503309E04103023008C000C082F38E7
:1007300021008C00080039302000A0002008F500BE
:100740000030432414302000A0002008F5000030C1
:10075000432470302000A0002008F500003043241E
:1007600056302000A0002008F500003043246C30F3
:100770002000A0002008F500003043244130200074
:10078000A100EE30A000A00BC32BA10BC32B0000D7
:1007900038302000A0002008F500003043240C3041
:1007A0002000A0002008F5000030432408002000AD
:1007B000A400A5012408F039A2002208F5000030A9
:1007C0004324103020002506031908000F302000B4
:1007D0002405A2002508A50AA30022082302031C61
:1007E000082C200884002108850012000319082C19
:1007F00020088400210885000008A2002208F500D6
:100800004030432401302000A0070030A13DE12BFF
:100810002030A2002208F5004030E02B2000A50186
:10082000A6012008210403193E2CA401A40AA11B3F
:10083000232C0130A035A10D890B1A2C0130F500B5
:100840007508A407172C0130A535A60D890B242C9B
:1008500021082302031D2E2C20082202031C352C04
:100860002008A2022108A33B25140130A136A00CC8
:10087000890B362C0130A402031D232C2608A1006D
:100880002508A0000800F6002000911C442C24003C
:1008900016141618492C200091117C302400910068
:1008A0002000911D502C9111760824009100200009
:1008B000911D572C91117508240091002000911D65
:1008C0005E2C9111240016151619642C20009A0133
:1008D000911008002000A2002208A1002108F500C4
:1008E00000304324200020088600870101080319F6
:1008F000080020002008860087010108A1002108C7
:10090000F5004030432401302000A1002108A00759
:10091000722C2000A1002108F039A0002008F50069
:10092000003043242000A20101302000A000200854
:10093000A20711302206031908002030A000200869
:10094000F50040304324942C4134833429348334DB
:100950004F34833431348334393483342034203475
:100960003034303430343034303400342000A90096
:100970002908A8002808F500003043242000270893
:10098000A8002808F50040304324080064008001D6
:100990000131890BC72C0034FE0012001E00FE0B33
:0409A000CD2C003426
:020000040001F9
:04000E00A4FFFFDF6D
:00000001FF
