:02000000922844
:10000800803120007F08F2002700931D11289311EA
:10001800210017140B118B168B110B1D8E280B1139
:100028000130F802031D60280A30F0007008F8005B
:1000380020000C092939F0007008CB00CB1E3228AB
:100048000130F0007008F50740307506031D3328AD
:100058003C30F0007008F500C2143328F5014B1C41
:1000680043280130F0007008F60740307606031D7B
:1000780044283C30F0007008F60042154428F60188
:1000880005304806031D5328CB1D5F280130C402E4
:100098000030C53B44084504031D602856284B081A
:1000A80003195828431760280130C4020030C53BA3
:1000B800440845040319C31621009D188A281C0802
:1000C800F4001B08F3009D147735A03E86008701D5
:1000D800403FF000413FF10070082000C60271085F
:1000E800C73B7308C6077408C73D7735A03E86002E
:1000F80087017308C03F7408C13F0130F0007008E1
:10010800F707103077060319F701C3150B1D8E2862
:100118002000C31772082000FF0009009328F5018A
:10012800F601F701F80140308400003085000D30F9
:100138003E26A03084000030850020303E26313035
:100148008400863085004D308600003087000D30F1
:1001580044262000AF28722420001C15911CB228C8
:1001680087309C0507309B009A019110C32400300A
:10017800840084308500003F2000A200013FA300D6
:100188008030FF242000A00100305D254030200091
:10019800A8002808A00000305D2540302000A800F5
:1001A8002808AF00BA0130303A020318F2283A089A
:1001B8000739031DE3282F36A8002808AF042F08A5
:1001C800A8002808A00040305D2501302000A800C4
:1001D8002808BA0730303A02031CDB285930842536
:1001E8002000C801C80A0230840084308500003F1E
:1001F800C000013FC10043160B118B1621001714D4
:1002080064002000C31E2029C312053048060319C4
:1002180011298030DF25C030DF25210017108B120F
:100228000B108B1564302000C4000030C500053069
:10023800A8002808C80063002000431F3C29431376
:1002480005304806031D2B29C801C80A431659085A
:10025800A800A9012808A0002908A1006430A2006C
:100268000030A300C32520002108C5002008C400D1
:100278004B084C064B05A8002808B9004B08A800F5
:100288002808CC00B9194214B91AC21439184215F1
:10029800C31F5429C3130630A8002808C8004316F2
:1002A800421C042A421043169D2902309929C8018C
:1002B800C80A8229C9010230840084308500003FC1
:1002C800C000013F7C290230A8002808C90004307A
:1002D800840084308500003FC000013F7C29C901AB
:1002E800C90A0630840084308500003FC000013F01
:1002F800C100042A04309929033099294A087F3912
:10030800013A03195E29033A03196729013A0319C7
:100318007329073A03197E29013A03198029042A07
:10032800042A5930362502302000A8002808C800C1
:10033800042A4808013A03195929033A03195B2981
:10034800013A03199729073A03199529042A042A17
:10035800C21CCD29C2104A087F39003A0319CD2999
:100368004A087F39A800A8034A08280680392806C1
:10037800CA00CA1FCC294A0D4A0D0139A80001300C
:10038800A806A80CA80C4A0828067F392806CA001F
:100398004316421D0C2A42114A087F39053A0319AF
:1003A8000C2A4A087F39A800A80A4A082806803972
:1003B8002806CA00CA1BED294A0D4A0D0139A800B2
:1003C8000130A806A80CA80C4A0828067F39280678
:1003D800CA0043160C2AC21CFA29C210590A03196A
:1003E800FA290130A8002808D907C315421D0C2A8C
:1003F8004211590303190C2A0130D902C3150C2ADA
:100408004808023A0319AC29063A0319EF290C2ABD
:10041800431E9D2A43128B2A4008A2004108A300CC
:100428008030FF24C030DF25682A4A087F39A800B9
:100438004A0D4A0D0139FF3A013E280709074D3E8A
:1004480086008701403FA200413FA3008130FF247E
:1004580020004A087F39A8004A0D4A0D0139FF3AA1
:10046800013E28070907023E4D3E86008701403FAE
:10047800A200413FA300C130FF2407302000A8009C
:100488002808A2004A0D4A0D01391D3E8400843017
:100498000318013E8500000821269D2A08308400A3
:1004A80084308500003F2000A200013FA300803077
:1004B800FF240A30840084308500003F2000A20019
:1004C800013FA300C030FF242000C3159D2A0C3033
:1004D800840084308500003FA200013FA3008030E3
:1004E800FF241F302000A2008430A300C030FF2466
:1004F8009D2A0E30840084308500003F2000A20031
:10050800013FA3008030FF24C030DF259D2A200052
:100518004808013A0319102A033A0319192A013A1B
:1005280003196B2A073A0319522A023A03197D2A3A
:100538009D2A2000C31D0429C311AE2B4708BC0007
:100548004608BB004B2BBD0105303D020318E22ACB
:100558003030A8003D08013E303E8600870128085B
:1005680081003D08A800A901A835A90D1030280769
:1005780084008430293D8500003FAC00013FAD0078
:100588002D083C02031DCA2A2C083B02031CDA2A48
:100598000130A8003D08013E303E8600870128084A
:1005A80081072C08BB022D08BC3BC42A0130A800D7
:1005B8002808BD0705303D02031CAC2A2030A800DE
:1005C8002808B0004908031DF92A3108A80028089E
:1005D800B0003208A8002808B1002E30A80028086A
:1005E800B2005630A8002808B500B6013030A8007F
:1005F8002808A200C230A42504292000BE01083022
:100608003E020318432B03303C02E83003193B0237
:10061800031C1B2B0530A8003E08303E86008701CE
:1006280028088100E830BB020330BC3B3B2B3E0866
:10063800303E86008701810100303C02C830031932
:100648003B02031C342B0130A8003E08303E8600D4
:10065800870128088107C830BB020030BC3B202B2B
:100668003E08013E303E860087018101432B013060
:10067800A8002808BE0708303E02031C072BB80153
:100688003030A2000030A300C030FF24042920002D
:100698004908003A0319A72A013A0319A72A033A75
:1006A8000319012B042904295908A8002808AA00BD
:1006B800AB01BF0103303F020318A62B3030A8005E
:1006C8003F08303E86008701280881003F081A3E0F
:1006D800840084300318013E85000008A80028081B
:1006E800AE002E082A02031C842B0130A8003F0804
:1006F800303E86008701280881072E08AA02752B3C
:100708002B08031D932B3F08303E860087013030AD
:100718000106031D932B02303F06031D962BAB01E8
:10072800AB0A9E2B2030A8003F08303E8600870188
:10073800280881000130A8002808BF0703303F02BD
:10074800031C622BB3013030A8002808A200C23075
:10075800A425042920004808013A0319A22A053AC9
:080768000319582B0429042990
:100800003A34843442348434283484344A3484344A
:1008100062348434313484345234843468348434DB
:1008200010342734E8340334643400340A34003498
:100830000134003464340A3401348034C034203448
:10084000303430342E3431343134323420340034C6
:1008500020343234203434342034363420343834A4
:100860000034203420342034203420347334653470
:100870006334003442346F346F3474342E342E3485
:100880002E34003456346F346C347434613467342D
:100890006534003441342F344434203456346134C8
:1008A0006C340034563465347234733469346F34C4
:1008B0006E3400343C3452346534743475347234DC
:1008C0006E34003453346C34653465347034003421
:1008D0004534723472346F347234003442346134CB
:1008E0007234003421009913190887395838990057
:1008F0001908FC390238990017101708C139163841
:1009000097008B170B138B112700921521001516DA
:10091000951295151508F8390238950020009501B3
:100920000B118B1218101C11FC309C051C08873908
:1009300048389C00F9309B009A01911021009110D9
:10094000240094019513151395161508F0390838ED
:100950009500920122001708FC390238970097177A
:1009600021001D0883390C389D001D149E178F30FF
:100970009E0503309E04103023008C000C082F3895
:1009800021008C00080039302000A2002208A000BD
:1009900000305D2514302000A2002208A0000030A5
:1009A0005D2570302000A2002208A00000305D25E7
:1009B00056302000A2002208A00000305D256C30D7
:1009C0002000A2002208A00000305D254130200058
:1009D000A300EE30A200A20BEB2CA30BEB2C00002B
:1009E00038302000A2002208A00000305D250C3025
:1009F0002000A2002208A00000305D250800200091
:100A0000A600A7012608F039A4002408A0000030A1
:100A10005D25103020002706031908000F30200044
:100A20002605A4002708A70AA50024082502031C00
:100A3000302D220884002308850012000319302D70
:100A400022088400230885000008A4002408A000D0
:100A500040305D2501302000A2070030A33D092D64
:100A60002030A4002408A0004030082D2000A5005C
:100A70002508A2002208A4008B13230015152000CE
:100A8000A601472D01302000A2002208A607260853
:100A9000031D592D26082407A2002208860087017D
:100AA0000108A3002308A0002608FA252300951DAD
:100AB000422D230015118B1708002000A100911C66
:100AC0005F2D240016141618632D200091117C3020
:100AD000240091002000911D6A2D9111210824000D
:100AE00091002000911D712D91112008240091008A
:100AF0002000911D782D91112400161516197E2DB8
:100B000020009A01911008002000A4002408A100F0
:100B10002108A3008B13A5012508031DA22D25087C
:100B200011262000A10025082307A2002208860024
:100B30008701210881000130A1002108A5072508AF
:100B400003198F2D8B1708002000A4002408A30090
:100B50002308A00000305D252000220886008701C0
:100B600001080319080020002208860087010108F7
:100B7000A3002308A00040305D2501302000A30021
:100B80002308A207AC2D2000A401A501201CCC2D18
:100B90002208A4072308A53D0130A235A30D890B27
:100BA000CD2D0130A136A00C890BD22D20082104B7
:100BB000031DC62D2508A1002408A0000800200060
:100BC000A3002308F039A2002208A00000305D2510
:100BD0002000A40101302000A2002208A407113047
:100BE0002406031908002030A2002208A00040308B
:100BF0005D25EA2D2000A10023009201200021089C
:100C00002300910094012000200823009300553018
:100C10009600AA30960095142000121E0C2E121277
:100C200008002000A00023009201200020082300DB
:100C300091009513151315140000000023001308EC
:100C400008002000A4002408A3002308A00000300E
:100C50005D2520002208A3002308A00040305D2568
:100C600008005A348434423484346E3484344A3430
:100C7000843462348434523484343C3464008001DB
:100C80000131890B3F2E0034FE0012001E00FE0BC6
:040C9000452E0034B9
:020000040001F9
:04000E008CFFFFDE86
:00000001FF
