:020000007D2859
:10000800803120007F08F2002700931D11289311EA
:10001800210017140B118B168B110B1D79280B114E
:100028000130F802031D48280A30F0007008F80073
:1000380020000C092939F0007008E00004305E0641
:10004800031D3728E01D47280130F5070030F63D2D
:10005800643075067604031D4828F501F601DE01B3
:10006800DE0ADC164828600803193D28F501F60168
:1000780048280130F5070030F63D70307506173016
:100088000319760603195C1721009D1875281C08AA
:10009800F4001B08F3009D1420005D08031D74285C
:1000A8007735A03E86008701403FF000413FF100D0
:1000B8007008DA027108DB3B7308DA077408DB3D65
:1000C8007735A03E860087017308C03F7408C13F9A
:1000D8000130F0007008F707103077060319F701B0
:1000E8005C160B1D79282000DC1772082000FF0021
:1000F80009007E28F501F601F701F8015630840061
:10010800003085000C30D824A030840000308500F1
:100118002030D824B63084008430850044308600EE
:10012800003087001230DE2420009A285C2320004B
:100138001C15911C9D2887309C0507309B009A014F
:100148009110AD230030840083308500003F2000EB
:10015800A200013FA3008030E9232000A001003065
:10016800552440302000A8002808A000003055245D
:1001780040302000A8002808BD00BF0130303F02F1
:100188000318DD283F080739031DCE283D36A8008F
:100198002808BD043D08A8002808A00040305524C0
:1001A80001302000A8002808BF0730303F02031C98
:1001B800C628DE01DE0A0230840083308500003F55
:1001C800D600013FD700DC160B118B16210017143F
:1001D80064002000600861066005A8002808BE00C9
:1001E8006008A8002808E100BE195C14BE1E012999
:1001F800601C0029DC150129DC143E1C0829E01EBE
:100208000729DC1508295C15DC1F1029DC130530CB
:10021800A8002808DE00DC16DC1D2229DC111D29B7
:100228005D0803191929DD011B29DD01DD0ADC162A
:1002380022295E08013A0319142922295C1C8F29F6
:100248005C10DC1661295C29DE01DE0A4D29DF011C
:100258000230840083308500003FD600013F4929E1
:100268000230A8002808DF000430840083308500AD
:10027800003FD600013F4929DF01DF0A063084002C
:1002880083308500003FD600013FD7008F29033017
:100298005D295808013A03192B29033A031934290F
:1002A800013A03194029073A03194B298F298F2945
:1002B8000230A8002808DE008F295E08013A0319D9
:1002C8002729033A03192829013A03195C298F2998
:1002D8008F29DC1C7B29DC10580803197B29013085
:1002E800D802590803197A290130D902DC165C1D95
:1002F80094295C1104305806031994290130A80088
:100308002808D807590303198D290130A80028089F
:10031800D907DC1694295E08023A03196D29942935
:10032800DC1EFE29DC12EF295608A2005708A3009C
:100338008030E923C0309B2420005C16FE29590335
:10034800FF3A58070907443E86008701403FA2004C
:10035800413FA3008130E92320005903FF3A5807A1
:100368000907023E443E86008701403FA200413F04
:10037800A300C130E92307302000A8002808A20004
:100388005908163E840083300318013E8500000892
:10039800C824FE290830840083308500003F2000EF
:1003A800A200013FA3008030E92318302000A200FA
:1003B8008330A300C030E923FE290A30840083304B
:1003C8008500003F2000A200013FA3008030E92300
:1003D800C0309B24FE2920005E08013A03199829A1
:1003E800033A0319A329013A0319CE29063A031936
:1003F800E129FE2920005E0303195C1EAE2A5C1267
:100408004E3086000030870033308400003085008D
:100418000830A80016001A00A80B0E2A5B08C200B4
:100428005A08C100A22AC001053040020318462A12
:100438004008A800A901A835A90D0C302807840098
:100448008330293D8500003FBB00013FBC003C08CC
:100458004202031D312A3B084102031C412A013094
:10046800A8004008023E333E86008701280881071D
:100478003B08C1023C08C23B2B2A0130A8002808CF
:10048800C007182A5F08031D592A3508A80028083C
:10049800B4003608A8002808B5002E30A80028089F
:1004A800B6005630A8002808B9003330A80028083C
:1004B800A200C1307C24AE2A2000C30108304302C8
:1004C80003189B2A03304202E83003194102031C37
:1004D8007A2A0530A80043082A3E860087012808A2
:1004E8008100E830C1020330C23B932AC830A00023
:1004F8000030A1004208A3004108A20020242000E7
:100508002008A80043082A3E8600870128088100A1
:100518004308013E2A3E8600870181019B2A01305B
:10052800A8002808C30708304302031C662A2A309B
:10053800A2000030A300C030E923AE2A20005F08E3
:10054800003A0319172A013A0319172A033A03191B
:10055800602AAE2A20005C1FEC285C1380309B24A4
:10056800C0309B24210017108B120B108B15F5013E
:10057800F60104302000A8002808DE006300EC28FB
:100600002A34833432348334213483343A34833487
:10061000423483345234833410342734E83403347E
:10062000643400340A340034013400348034C0347B
:100630002034303430342E343134313432342034B8
:1006400000342034323420343434203436342034EE
:100650003834003442346F346F3474342E342E34D2
:100660002E34003456346F346C347434613467344F
:100670006534003441342F344434203456346134EA
:100680006C340034563465347234733469346F34E6
:100690006E3400343C3452346534743475347234FE
:1006A0006E3400344534723472346F347234003432
:1006B00042346134723400342100991319088739A7
:1006C000583899001908FC39023899001710170892
:1006D000C139163897008B170B138B112700921511
:1006E00021001516951295151508F8390238950050
:1006F000200095010B118B1218101C11FC309C0569
:100700001C08873948389C00F9309B009A019110E9
:1007100021009110240094019513151395161508C6
:10072000F03908389500920122001708FC39023888
:100730009700971721001D0883390C389D001D1460
:100740009E178F309E0503309E04103023008C00CE
:100750000C082F3821008C00080039302000A2003E
:100760002208A0000030552414302000A2002208E6
:10077000A0000030552470302000A2002208A00004
:100780000030552456302000A2002208A00000307E
:1007900055246C302000A2002208A000003055240F
:1007A00041302000A300EE30A200A20BD52BA30BFA
:1007B000D52B000038302000A2002208A000003015
:1007C00055240C302000A2002208A000003055243F
:1007D00008002000A600A7012608F039A40024087C
:1007E000A00000305524103020002706031908000F
:1007F0000F3020002605A4002708A70AA50024081A
:100800002502031C1A2C22088400230885001200EC
:1008100003191A2C22088400230885000008A4006C
:100820002408A0004030552401302000A2070030E9
:10083000A33DF32B2030A4002408A0004030F22B6D
:100840002000A601A701200821040319502CA501AE
:10085000A50AA11B352C0130A035A10D890B2C2C2C
:100860000130A4002408A507292C0130A635A70DC6
:10087000890B362C21082302031D402C200822025C
:10088000031C472C2008A2022108A33B2614013098
:10089000A136A00C890B482C0130A502031D352C74
:1008A0002708A1002608A00008002000A100911C34
:1008B000572C2400161416185B2C200091117C3044
:1008C000240091002000911D622C91112108240028
:1008D00091002000911D692C9111200824009100A5
:1008E0002000911D702C9111240016151619762CDC
:1008F00020009A01911008002000A4002408A30001
:100900002308A0000030552420002208860087011B
:100910000108031908002000220886008701010849
:10092000A3002308A0004030552401302000A3007C
:100930002308A207842C2000A3002308F039A2007A
:100940002208A000003055242000A401013020001E
:10095000A2002208A4071130240603190800203041
:10096000A2002208A00040305524A62C4A3483342B
:1009700032348334583483343A34833442348334C5
:100980002034203430343034303430343034003497
:100990002000A4002408A3002308A0000030552450
:1009A00020002208A3002308A0004030552408009E
:1009B000640080010131890BD92C0034FE00120043
:0809C0001E00FE0BDF2C0034C9
:020000040001F9
:04000E008CFFFFDE86
:00000001FF
