:0400000082310E2A11
:10000800803120007F08FC00931D0A2A93114008C4
:10001800F9004108FA00FB017908B3077A08B43DF2
:100028007B08B53D0130B307003003180130B40731
:10003800003003180130B50701303502031D2A28A6
:10004800D4303402031D2A28C0303302031C3C2854
:10005800C030F900D430FA000130FB007908B3024F
:100068007A08B43B7B08B53B0130F9007908B6073C
:100078000130F9007908BB073B083F39031D0A2AFC
:10008800640020000C09F9007908BA00BA1E5D283E
:100098000130F9007908B207320A031D5728F030F9
:1000A800F9007908B20010303206031D5E283815B1
:1000B8005E28B2013A1F792830083104031D7928D7
:1000C8000130F9007908AF072F0A031D6F28F030B7
:1000D800F9007908AF0010302F0603197728F0309F
:1000E8002F06031D7A2838147A28AF013A1E95285E
:1000F8002F083004031D95280130F9007908B1074D
:10010800310A031D8B28F030F9007908B10010304E
:10011800310603199328F0303106031D9628B814C8
:100128009628B1013A1A3A1FA628300A0319A028BE
:100138000130F9007908B007F0303006031DAA280D
:100148003816AA283A1EA9283A1FB001381DBE2819
:100158003811B8150130F9007908B90703303906A4
:10016800031DBE28B9010030B3000030B4000030D0
:10017800B500B601381EC628381240308231262212
:1001880080310100200038080339003A0319242976
:10019800FC30B805B8151929381CDE283810E730A6
:1001A80040060330031941060319DE280130C00751
:1001B8000030C13DB81CE928B810400841040319B3
:1001C800E9280130C0020030C13B0030B3000030E4
:1001D800B4000030B500B6012429381CFC283810BA
:1001E800103042060319FC280130F9007908C207CB
:1001F800B81C2429B8104208031924290130C20266
:100208002429381C102938103F30430603191029B7
:100218000130F9007908C307B81C2429B81043082D
:10022800031924290130C30224293908003A031983
:10023800D028013A0319F128033A0319052924297A
:10024800B81DEE29B811BC01BD01BE010A30F90084
:100258007908BF003E294108A2004008A1004929A9
:10026800420837294308F900FA017908A1007A08F9
:10027800A20049293908003A03192F29013A03191C
:100288003429033A031936294929A0010230F90013
:100298007908A700270A0319892927080F3E84002F
:1002A80084300318013E85000008F900FA01790836
:1002B800A3007A08A40024082202031D6529230844
:1002C8002102031C76292308A1022408A23B01303D
:1002D800F90027083C3E8600870179088107A001BC
:1002E800A00A5F292708031989292008031D8429E2
:1002F8000A30F90027083C3E86008701790881000A
:100308000130A702270A031D5129A6010430260639
:100318000319EE2926083C3E860087010108003EA5
:10032800840084300318013E85000008F90026087F
:100338003C3E86008701790881000130F900790880
:10034800A6078A294308E03E210098008D30200046
:100358009B00A501043025060319F329FE30F90096
:1003680025083C3E86008701790881050130F9009F
:100378007908A507AE29360E0339013EF900003089
:1003880003180130FA0000307907840084307A3D80
:1003980085000008FB007B08BF0036080F39F9000C
:1003A800420879020318EC29360E0339003A031D76
:1003B800E829360E890C890C033901390319E62915
:1003C800A730E9297D30E929FB309B003F14F32948
:1003D8009B01F3293908023A0319A629BF291B36BC
:1003E8002500980020003B087F39031D0A2A37089A
:1003F800013E0339F9007908B7003F0822008D0053
:100408000E3084008430850000088C007C082000B1
:10041800FF0009008231102A2F3084000030850047
:100428000D3084314A248231413084008430850083
:100438003C30860000308700093084315024200089
:100448008231FC2AF6007608F2007208F400FF30C8
:10045800F2007208F800F5010B08F2007208F300C8
:100468008B13FF30843134248231F039F200720862
:10047800F800F03078060319F8012300151501304B
:10048800F2007608043E8600870172088107031D82
:10049800592AF501F50A7608043E8600870181018C
:1004A8001030F2007208F807F801F701632A0130EA
:1004B800F2007208F7070130F2007208F4070530FD
:1004C80077020318762A7408860087010108F2006B
:1004D8007208F000780877078431122482312300EB
:1004E800951D5B2A7508031D9519812A7808F20065
:1004F8007208F000FF3084311224230015117308AC
:100508008B0008002100991719088739703899005D
:10051800FC30990598018B170B1795159512151630
:10052800200095010B118B1203309C007C309B003E
:100538009A0191102100911420001C150230280006
:1005480097007C30960095012000931021009314A9
:10055800280017119E01F9309D009C01200093117D
:100568002100931528001E150C3025009A00220042
:100578009D15013025009D009E01980199012300D9
:100588008C018D01703021008C008D010800200045
:10059800AA002A08A9002908AB00FF30A9002908E9
:1005A800AC00FF30843124248231F0392000A900C6
:1005B8002908AC00F0302C0603190800AD010530FD
:1005C8002D02031808002D082C07843124248231B9
:1005D8002000A9002B088600870129088100013026
:1005E800A9002908AD070130A9002908AB07E32AAB
:1005F80082318622823120000C09AE002E08BA0012
:1006080040308231CB2282312000B9010030B30062
:100618000030B4000030B500B601B81521009315BC
:02062800142B91
:10080000FC346034DA34F2346634B634BE34E43462
:10081000FE34F634003407340B340D340E34013416
:100820000A346434F10023009201940171089100AC
:100830007008930055309600AA3096009514200059
:10084000121E1F2C121208002000A8002300920183
:10085000200028082300910095131513151400009B
:100860000000230013080800F00023009201700824
:1008700091009513151315140000000023001308B0
:1008800008000A340A340A340A3478340034023452
:1008900020340034640080010131890B4B2C00347A
:0C08A000FE0012001E00FE0B512C003464
:020000040001F9
:04000E009CEFFFDB89
:00000001FF
