:040000008031E9283A
:10000800803120007F08F300931DE52893114608EE
:10001800F0004708F100F2017008B5077108B63D15
:100028007208B73D3A303702031D2028983036024F
:10003800031D202800303502031C33280030F0004F
:100048009830F1003A30F2007008B5027108B63BFA
:100058007208B73B0130F0007008BC073D1501304D
:10006800F7070030F83D803077060230031978062C
:10007800031D4028F701F8010F307705F000003024
:100088007805F10070087104031D652838083904E3
:10009800031952280130B8020030B93B3A08031955
:1000A8005D280130BA02031D5D283B08031D5D2849
:1000B8003D163B08031965280130BB02031D65285E
:1000C8003D1677087804031DA1280C097039F00043
:1000D8007008C000401F7E280130F0007008B20789
:1000E80040303206031D7F283C30F0007008B20013
:1000F800BE147F28B201401E8F280130F00070081E
:10010800B30740303306031D90283C30F0007008D8
:10011800B300BE159028B301C01EA0280130F0001E
:100128007008B40740303406031DA1283C30F000A5
:100138007008B400BE16A128B4011F307705F0007E
:1001480000307805F10070087104031DE52879086E
:10015800013E0339F0007008F90038083904031922
:10016800C7280F3022008C007908423E860087019C
:1001780001088D007908133E840084300318013E7D
:1001880085000008E42820003C080339013EF000FF
:10019800003003180130F10000307007840084300B
:1001A800713D8500000822008D0020003C080339BD
:1001B800133E840084300318013E850000082200A5
:1001C8008C0073082000FF0009008031EB28F7013C
:1001D800F801F90132308400003085001030843194
:1001E8003E248031363084008430850042308600D9
:1001F80000308700083084314424200081310429EC
:100208008231C02281314630833108238131200078
:10021800BF01BD14210093152000931128001E155D
:100228000B178B1764002000400841064005A60004
:100238002608AF004008A6002608C100AF1A3E16DF
:100248002F1B2929BE1C2A29BE103E142F1A2F291C
:10025800BE1D3029BE113E153E08031DBD153E1AB0
:100268003E12BE1E7129BE128B13463082315722B0
:100278008131010071293E1C4F293E100F3046067E
:1002880027300319470603194F290130C6070030E4
:10029800C73D3D14BD143E1D7A293E11460847044A
:1002A80003197A290130C6020030C73B3D14BD143A
:1002B8007A293E1C68293E103F30480603196829F0
:1002C8000130A6002608C8073E1D7A293E114808B5
:1002D80003197A290130C8027A2920003F08003A18
:1002E80003193F29013A03195D297A29BD1C86297A
:1002F800BD100030B5000030B6000030B700BC01BA
:100308003D153D143D1C492A3D100030B800103001
:10031800B9009B294708AB004608AA00A32948084A
:10032800A600A7012608AA002708AB00A3293F08B2
:10033800003A03198E29013A03199329A329AC011C
:10034800A901B101043031020318492AAC0131086E
:10035800A600A701A635A70D0B3026078400843018
:10036800273D8500003FAD00013FAE002E082B025F
:10037800031DC0292D082A02031CCD292D08AA0215
:100388002E08AB3B0130A6002608AC07A901A90A34
:10039800BA2929080319E0292C08003E8400843072
:1003A8000318013E85000008A6003108423E860079
:1003B800870126088100E5293108423E8600870129
:1003C80081010130A6002608B107A6294808E03EA9
:1003D800210098008D3020009B00B00104303006C9
:1003E80003194E2AFE30A6003008423E86008701D7
:1003F800260881050130A6002608B007F229BD1D90
:10040800112ABD114030A6002608BB007D309B0094
:100418001B362500980020001C153D1D4E2A3D1155
:100428003B08031D4E2A8030A6002608BA0038086B
:100438003904031D322A3C080339013EA600003066
:1004480003180130A7000030260784008430273DB8
:10045800850000080138A8002808C5003C080339B1
:10046800003A031D412A3C0C890C03390139031950
:100478003F2AA730422A7D30422AFB309B001B3698
:100488002500980020001C154E2A3F08013A031940
:10049800EA29032A3D1E16293D121C11FE30A6002A
:1004A8002608C50516292000A3002308F6007608AB
:1004B800A100FF30F6007608A500A2010B08F6009F
:1004C8007608A0008B13FF30843129248231F0395B
:1004D800F60076082000A500F03025060319A501CE
:1004E800230015150130F60020002308033E86007E
:1004F800870176088107031D8D2AA201A20A230815
:10050800033E8600870181011030F6007608A507B2
:10051800A501A401982A0130F60076082000A40756
:100528000130F6007608A107043024020318AB2A2C
:100538002108860087010108F6007608F4002508DE
:1005480024078431172482312300951D8F2A200027
:1005580022080319BA2A23009519BA2A2000250867
:10056800F6007608F400FF308431172423001511B3
:10057800200020088B0008002100991719088739E6
:1005880070389900FC30990598018B130B13951559
:1005980095121516200095010B118B121C150330AE
:1005A8009C0487309C057C309B009A0191102100A7
:1005B800911028001711023097007C3096009501A1
:1005C800200093102100931028001E11FC309E0576
:1005D80087309E057C309D009C01200093112100EE
:1005E80093110C3025009A0022009D15013025003A
:1005F8009D009E019801990123008C018D017030A6
:1006080021008C008D0108002000A0002008F500C2
:100618007508A100FF30F5007508A200FF3084318D
:1006280029248331F039F50075082000A200F03044
:10063800220603190800A301043023020318080046
:1006480023082207843129248331F500200021085A
:1006580086008701750881000130F5007508A30739
:0A0668000130F5007508A107202BF2
:10080000FC346034DA34F2346634B634BE34E43462
:10081000FE34F6340034E8340334643400340A34EB
:100820000034013400340E340D340B340734F50039
:1008300023009201940175089100740893005530CB
:100840009600AA30960095142000121E242C121235
:100850000800F40023009201740891009513151309
:100860001514000000002300130808000A340A349D
:100870000A340A34783400342034003464008001AF
:100880000131890B3F2C0034FE0012001E00FE0BCC
:04089000452C0034BF
:020000040001F9
:04000E009CEFFFDB89
:00000001FF
