:020000001028C6
:10000800FE00030E83120313BF000408C0000A0891
:10001800C1007F08C200442C1128FA01FB01FC0131
:10002800831320308400303062255825B0005925CC
:10003800B1005A25B2005B25B3005C25B4005D25EC
:10004800B5005E25B6005F25B7006025B8006125BC
:06005800B9008301102D28
:10020000FF1B0A2983137F1883170008840A031928
:10021000FF0A08007F087F398A000408840A03194E
:10022000FF0A82000034003400340034003400340B
:100230000034003400346F34673400340034003448
:100240000034003403340034033400340034003408
:1002500014347F3414347F341434003400340434C0
:100260002A346B342A3410340034003422341534E8
:100270002A3454342234003400342E345134593466
:100280002634503400340034003400340334003455
:10029000003400340034003400343E34413400343F
:1002A00000340034003441343E340034003400342F
:1002B0000034223414347F341434223400340034B3
:1002C000083408343E340834083400340034003430
:1002D0006034E0340034003400340034083408342E
:1002E0000834083408340034003400346034603496
:1002F0000034003400340034003460341C340334DF
:100300000034003400343E345134493445343E34F2
:1003100000340034003442347F344034003400343C
:10032000003466345134493449344634003400349E
:1003300022344134493449343634003400341C34D6
:10034000123411347F341034003400342F344934E3
:10035000493449343034003400343C344A3449346C
:1003600049343034003400340334013471340934F6
:10037000073400340034363449344934493436348F
:100380000034003406344934493429341E340034EE
:100390000034003436343634003400340034003451
:1003A00000343634763400340034003400340834F9
:1003B00014342234413400340034003414341434FE
:1003C00014341434143400340034413422341434DA
:1003D0000834003400340034023401345934093410
:1003E0000E34003400347F3441345D3451345F3492
:1003F000003400347C341234113412347C34003430
:1004000000347F34493449344934363400340034BC
:100410003E344134413441342234003400347F349A
:100420004134413441343E34003400347F34493463
:10043000493449344934003400347F3409340934B0
:1004400009340934003400343E34413449344934E9
:100450007A34003400347F340834083408347F346C
:1004600000340034003441347F34413400340034EB
:10047000003420344034413441343F3400340034BB
:100480007F340834143422344134003400347F344F
:100490004034403440344034003400347F3402343B
:1004A000043402347F34003400347F3402340434A2
:1004B00008347F34003400343E3441344134413414
:1004C0003E34003400347F340934093409340634AE
:1004D000003400343E344134513461347E340034CD
:1004E00000347F340934193429344634003400345C
:1004F0002634493449344934323400340034013428
:1005000001347F3401340134003400343F3440344A
:10051000403440343F34003400341F3420344034FD
:1005200020341F34003400347F342034103420341D
:100530007F340034003463341434083414346334A6
:100540000034003403340434783404340334003485
:100550000034633451344934453463340034003456
:10056000003400347F344134003400340034153416
:1005700016347C34163415340034003400344134DD
:100580007F34003400340034003400340234013449
:1005900002340034003400344034403440344034B9
:1005A0004034003400340034013402340034003468
:1005B0000034003420345434543454347834003407
:1005C00000347F3444344434443438340034003408
:1005D0003834443444344434283400340034383417
:1005E0004434443444347F34003400343834543494
:1005F00054345434183400340034003444347E34D9
:1006000045340034003400341834A434A434A43401
:100610007C34003400347F340434043404347834BB
:1006200000340034003444347D3440340034003429
:100630000034003484347D34003400340034003419
:100640007F341034103428344434003400340034FF
:1006500041347F3440340034003400347C3404347A
:10066000783404347834003400347C340434043472
:10067000043478340034003438344434443444345A
:10068000383400340034F834243424342434183416
:10069000003400341834243424342434F83400343E
:1006A000003444347834443404340834003400349E
:1006B0000834543454345434203400340034043472
:1006C0003F34443444342034003400343C34403427
:1006D000403440343C34003400341C342034403442
:1006E00020341C34003400343C3440343C34403436
:1006F0003C34003400344434283410342834443436
:10070000003400341C34A034A034A0347C340034D1
:1007100000344434643454344C34443400340034AD
:1007200000340834363441340034003400340034AA
:1007300000347F3400340034003400340034413459
:1007400036340834003400340034083404340834B7
:1007500010340834003433343A342034733465347C
:1007600066346B3461346C34683473346C3466349E
:10077000613467346C347A347934673464346B347C
:1007800066346A3468347334763464346E3468346E
:100790006134673466346C345A344B3476346C3498
:1007A00061347734683465347634703427346F3488
:1007B0006334273471346C346334203461346F34DF
:1007C00064347734693477346B3464346A34203475
:1007D0003B346F346934713478346C346834763433
:1007E00070347734693461346A346C347A34623406
:1007F0006434003431343A342034413442344334A4
:100800004434453446344734483449344A344B340C
:100810004C344D344E344F345034513452345334BC
:100820005434553456345734583459345A340034C7
:1008300032343A342034613462346334643465349D
:1008400066346734683469346A346B346C346D34BC
:100850006E346F347034713472347334743475346C
:1008600076347734783479347A34003430343A3426
:100870002034303431343234333434343534363453
:1008800037343834393400340B1D052D0B117B0EF1
:100890000F39003A031DD52C0F307B06031DC72CE2
:1008A0007B080F39203E8400831380017A08031DE2
:1008B000D52C7B080F393807F80039080318390A96
:1008C000F900F91BD52CF6017908803AFF00803039
:1008D0007F02031D6D2C07307802031C7C2CF9303D
:1008E000F8070318F90AFF30F907013083120313E0
:1008F000BA003A08F607642C7C0883120313BA0086
:100900003A07303E840083130008BB00840A0008C5
:10091000BC0076083B0784003C0803183C0AFF0033
:100920000021BD003D08F70077080319C22C7708A5
:10093000E03EF000FF3003180030F1000730F20015
:100940000030F3003725123083120313BA008130D0
:10095000BB0070083A07BC0071080318710A3B0716
:10096000BD0078083C07840079080318790A3D0720
:10097000FF000021BE007B080F39203E84003E08A6
:100980008313D42C0130BA003A08FA07D52C7B081F
:100990000F39013E203E840083130008BA007B0813
:1009A0000F39203E84003A088000103085007B0813
:1009B0000F39203E84008313000886007B080F391E
:1009C00085000130BA003A08FB07031D052D7A089F
:1009D0000319FF2C0130BA003A08FA077A1EFF2CDF
:1009E000FA01F030B800FF30B9000130BA003A081F
:1009F000FC0704307C06031D052DFC01052D01308C
:100A0000B8070318B90A0030B9074208FF004108C7
:100A10008A00400884003F0E8300FE0E7E0E09000F
:100A20008316031381128111F83081058312031399
:100A300081018B120B11121503309204873092053D
:100A4000FF308316031392008312031391018C105D
:100A5000831603138C102030850086018312031344
:100A6000850186018B168B170B138B11362DF40124
:100A7000F501701C412D7208F4070318F50A73087C
:100A8000F50701300310F20DF30DFF3E031D422D5B
:100A900001300310F10CF00CFF3E031D492D7008CE
:100AA0007104031D392D7508F1007408F000080069
:100AB00036348434FA34833418348434AB34833495
:100AC000F034FF3464008001840A04060319003402
:040AD0000406632D88
:02400E0062FF4F
:00000001FF
